{
	"Twitter.sol": {
		"Twitter": {
			"abi": [
				{
					"inputs": [
						{
							"internalType": "address",
							"name": "_from",
							"type": "address"
						},
						{
							"internalType": "address",
							"name": "_to",
							"type": "address"
						},
						{
							"internalType": "string",
							"name": "_content",
							"type": "string"
						}
					],
					"name": "_sendMessage",
					"outputs": [],
					"stateMutability": "nonpayable",
					"type": "function"
				},
				{
					"inputs": [
						{
							"internalType": "address",
							"name": "_from",
							"type": "address"
						},
						{
							"internalType": "string",
							"name": "_content",
							"type": "string"
						}
					],
					"name": "_tweet",
					"outputs": [],
					"stateMutability": "nonpayable",
					"type": "function"
				},
				{
					"inputs": [
						{
							"internalType": "address",
							"name": "_operator",
							"type": "address"
						}
					],
					"name": "allow",
					"outputs": [],
					"stateMutability": "nonpayable",
					"type": "function"
				},
				{
					"inputs": [
						{
							"internalType": "address",
							"name": "",
							"type": "address"
						},
						{
							"internalType": "uint256",
							"name": "",
							"type": "uint256"
						}
					],
					"name": "conversation",
					"outputs": [
						{
							"internalType": "uint256",
							"name": "id",
							"type": "uint256"
						},
						{
							"internalType": "string",
							"name": "content",
							"type": "string"
						},
						{
							"internalType": "address",
							"name": "from",
							"type": "address"
						},
						{
							"internalType": "address",
							"name": "to",
							"type": "address"
						},
						{
							"internalType": "uint256",
							"name": "createAt",
							"type": "uint256"
						}
					],
					"stateMutability": "view",
					"type": "function"
				},
				{
					"inputs": [
						{
							"internalType": "address",
							"name": "_operator",
							"type": "address"
						}
					],
					"name": "disallow",
					"outputs": [],
					"stateMutability": "nonpayable",
					"type": "function"
				},
				{
					"inputs": [
						{
							"internalType": "address",
							"name": "_followed",
							"type": "address"
						}
					],
					"name": "follow",
					"outputs": [],
					"stateMutability": "nonpayable",
					"type": "function"
				},
				{
					"inputs": [
						{
							"internalType": "address",
							"name": "",
							"type": "address"
						},
						{
							"internalType": "uint256",
							"name": "",
							"type": "uint256"
						}
					],
					"name": "following",
					"outputs": [
						{
							"internalType": "address",
							"name": "",
							"type": "address"
						}
					],
					"stateMutability": "view",
					"type": "function"
				},
				{
					"inputs": [
						{
							"internalType": "uint256",
							"name": "count",
							"type": "uint256"
						}
					],
					"name": "getLatestTweets",
					"outputs": [
						{
							"components": [
								{
									"internalType": "uint256",
									"name": "id",
									"type": "uint256"
								},
								{
									"internalType": "address",
									"name": "author",
									"type": "address"
								},
								{
									"internalType": "string",
									"name": "content",
									"type": "string"
								},
								{
									"internalType": "uint256",
									"name": "createAt",
									"type": "uint256"
								}
							],
							"internalType": "struct Twitter.Tweet[]",
							"name": "",
							"type": "tuple[]"
						}
					],
					"stateMutability": "nonpayable",
					"type": "function"
				},
				{
					"inputs": [
						{
							"internalType": "address",
							"name": "_user",
							"type": "address"
						},
						{
							"internalType": "uint256",
							"name": "count",
							"type": "uint256"
						}
					],
					"name": "getLetestTOUser",
					"outputs": [
						{
							"components": [
								{
									"internalType": "uint256",
									"name": "id",
									"type": "uint256"
								},
								{
									"internalType": "address",
									"name": "author",
									"type": "address"
								},
								{
									"internalType": "string",
									"name": "content",
									"type": "string"
								},
								{
									"internalType": "uint256",
									"name": "createAt",
									"type": "uint256"
								}
							],
							"internalType": "struct Twitter.Tweet[]",
							"name": "",
							"type": "tuple[]"
						}
					],
					"stateMutability": "view",
					"type": "function"
				},
				{
					"inputs": [
						{
							"internalType": "address",
							"name": "",
							"type": "address"
						},
						{
							"internalType": "address",
							"name": "",
							"type": "address"
						}
					],
					"name": "operators",
					"outputs": [
						{
							"internalType": "bool",
							"name": "",
							"type": "bool"
						}
					],
					"stateMutability": "view",
					"type": "function"
				},
				{
					"inputs": [
						{
							"internalType": "address",
							"name": "_from",
							"type": "address"
						},
						{
							"internalType": "address",
							"name": "_to",
							"type": "address"
						},
						{
							"internalType": "string",
							"name": "_content",
							"type": "string"
						}
					],
					"name": "sendMessage",
					"outputs": [],
					"stateMutability": "nonpayable",
					"type": "function"
				},
				{
					"inputs": [
						{
							"internalType": "string",
							"name": "_content",
							"type": "string"
						},
						{
							"internalType": "address",
							"name": "_to",
							"type": "address"
						}
					],
					"name": "sendMessage",
					"outputs": [],
					"stateMutability": "nonpayable",
					"type": "function"
				},
				{
					"inputs": [
						{
							"internalType": "address",
							"name": "_from",
							"type": "address"
						},
						{
							"internalType": "string",
							"name": "_content",
							"type": "string"
						}
					],
					"name": "tweet",
					"outputs": [],
					"stateMutability": "nonpayable",
					"type": "function"
				},
				{
					"inputs": [
						{
							"internalType": "string",
							"name": "_content",
							"type": "string"
						}
					],
					"name": "tweet",
					"outputs": [],
					"stateMutability": "nonpayable",
					"type": "function"
				},
				{
					"inputs": [
						{
							"internalType": "uint256",
							"name": "",
							"type": "uint256"
						}
					],
					"name": "tweets",
					"outputs": [
						{
							"internalType": "uint256",
							"name": "id",
							"type": "uint256"
						},
						{
							"internalType": "address",
							"name": "author",
							"type": "address"
						},
						{
							"internalType": "string",
							"name": "content",
							"type": "string"
						},
						{
							"internalType": "uint256",
							"name": "createAt",
							"type": "uint256"
						}
					],
					"stateMutability": "view",
					"type": "function"
				},
				{
					"inputs": [
						{
							"internalType": "address",
							"name": "",
							"type": "address"
						},
						{
							"internalType": "uint256",
							"name": "",
							"type": "uint256"
						}
					],
					"name": "tweetsOf",
					"outputs": [
						{
							"internalType": "uint256",
							"name": "",
							"type": "uint256"
						}
					],
					"stateMutability": "view",
					"type": "function"
				}
			],
			"devdoc": {
				"kind": "dev",
				"methods": {},
				"version": 1
			},
			"evm": {
				"assembly": "    /* \"Twitter.sol\":73:3292  contract Twitter{... */\n  mstore(0x40, 0x80)\n  callvalue\n  dup1\n  iszero\n  tag_1\n  jumpi\n  0x00\n  dup1\n  revert\ntag_1:\n  pop\n  dataSize(sub_0)\n  dup1\n  dataOffset(sub_0)\n  0x00\n  codecopy\n  0x00\n  return\nstop\n\nsub_0: assembly {\n        /* \"Twitter.sol\":73:3292  contract Twitter{... */\n      mstore(0x40, 0x80)\n      callvalue\n      dup1\n      iszero\n      tag_1\n      jumpi\n      0x00\n      dup1\n      revert\n    tag_1:\n      pop\n      jumpi(tag_2, lt(calldatasize, 0x04))\n      shr(0xe0, calldataload(0x00))\n      dup1\n      0xaf22bf94\n      gt\n      tag_19\n      jumpi\n      dup1\n      0xd21d1596\n      gt\n      tag_20\n      jumpi\n      dup1\n      0xd21d1596\n      eq\n      tag_15\n      jumpi\n      dup1\n      0xe8d857b0\n      eq\n      tag_16\n      jumpi\n      dup1\n      0xfb46d4c5\n      eq\n      tag_17\n      jumpi\n      dup1\n      0xff9913e8\n      eq\n      tag_18\n      jumpi\n      jump(tag_2)\n    tag_20:\n      dup1\n      0xaf22bf94\n      eq\n      tag_11\n      jumpi\n      dup1\n      0xb88e318d\n      eq\n      tag_12\n      jumpi\n      dup1\n      0xc48d6d5e\n      eq\n      tag_13\n      jumpi\n      dup1\n      0xcfe3d77a\n      eq\n      tag_14\n      jumpi\n      jump(tag_2)\n    tag_19:\n      dup1\n      0x5dfcaebf\n      gt\n      tag_21\n      jumpi\n      dup1\n      0x5dfcaebf\n      eq\n      tag_7\n      jumpi\n      dup1\n      0x78bae934\n      eq\n      tag_8\n      jumpi\n      dup1\n      0x9139cda5\n      eq\n      tag_9\n      jumpi\n      dup1\n      0xa9ed9cb8\n      eq\n      tag_10\n      jumpi\n      jump(tag_2)\n    tag_21:\n      dup1\n      0x2637588e\n      eq\n      tag_3\n      jumpi\n      dup1\n      0x365d1cf7\n      eq\n      tag_4\n      jumpi\n      dup1\n      0x4dbf27cc\n      eq\n      tag_5\n      jumpi\n      dup1\n      0x4dc0a687\n      eq\n      tag_6\n      jumpi\n    tag_2:\n      0x00\n      dup1\n      revert\n        /* \"Twitter.sol\":510:571  mapping (address=> mapping (address=>bool)) public  operators */\n    tag_3:\n      tag_22\n      0x04\n      dup1\n      calldatasize\n      sub\n      dup2\n      add\n      swap1\n      tag_23\n      swap2\n      swap1\n      tag_24\n      jump\t// in\n    tag_23:\n      tag_25\n      jump\t// in\n    tag_22:\n      mload(0x40)\n      tag_26\n      swap2\n      swap1\n      tag_27\n      jump\t// in\n    tag_26:\n      mload(0x40)\n      dup1\n      swap2\n      sub\n      swap1\n      return\n        /* \"Twitter.sol\":2501:3287  function getLetestTOUser(address _user, uint count) public view returns(Tweet[] memory) {... */\n    tag_4:\n      tag_28\n      0x04\n      dup1\n      calldatasize\n      sub\n      dup2\n      add\n      swap1\n      tag_29\n      swap2\n      swap1\n      tag_30\n      jump\t// in\n    tag_29:\n      tag_31\n      jump\t// in\n    tag_28:\n      mload(0x40)\n      tag_32\n      swap2\n      swap1\n      tag_33\n      jump\t// in\n    tag_32:\n      mload(0x40)\n      dup1\n      swap2\n      sub\n      swap1\n      return\n        /* \"Twitter.sol\":1569:1666  function follow(address _followed) public{... */\n    tag_5:\n      tag_34\n      0x04\n      dup1\n      calldatasize\n      sub\n      dup2\n      add\n      swap1\n      tag_35\n      swap2\n      swap1\n      tag_36\n      jump\t// in\n    tag_35:\n      tag_37\n      jump\t// in\n    tag_34:\n      stop\n        /* \"Twitter.sol\":2009:2493  function getLatestTweets(uint count) public returns(Tweet[] memory){... */\n    tag_6:\n      tag_38\n      0x04\n      dup1\n      calldatasize\n      sub\n      dup2\n      add\n      swap1\n      tag_39\n      swap2\n      swap1\n      tag_40\n      jump\t// in\n    tag_39:\n      tag_41\n      jump\t// in\n    tag_38:\n      mload(0x40)\n      tag_42\n      swap2\n      swap1\n      tag_33\n      jump\t// in\n    tag_42:\n      mload(0x40)\n      dup1\n      swap2\n      sub\n      swap1\n      return\n        /* \"Twitter.sol\":453:503  mapping (address => Message[]) public conversation */\n    tag_7:\n      tag_43\n      0x04\n      dup1\n      calldatasize\n      sub\n      dup2\n      add\n      swap1\n      tag_44\n      swap2\n      swap1\n      tag_30\n      jump\t// in\n    tag_44:\n      tag_45\n      jump\t// in\n    tag_43:\n      mload(0x40)\n      tag_46\n      swap6\n      swap5\n      swap4\n      swap3\n      swap2\n      swap1\n      tag_47\n      jump\t// in\n    tag_46:\n      mload(0x40)\n      dup1\n      swap2\n      sub\n      swap1\n      return\n        /* \"Twitter.sol\":677:852  function _tweet(address _from, string memory _content) public {... */\n    tag_8:\n      tag_48\n      0x04\n      dup1\n      calldatasize\n      sub\n      dup2\n      add\n      swap1\n      tag_49\n      swap2\n      swap1\n      tag_50\n      jump\t// in\n    tag_49:\n      tag_51\n      jump\t// in\n    tag_48:\n      stop\n        /* \"Twitter.sol\":578:623  mapping (address=>address[]) public following */\n    tag_9:\n      tag_52\n      0x04\n      dup1\n      calldatasize\n      sub\n      dup2\n      add\n      swap1\n      tag_53\n      swap2\n      swap1\n      tag_30\n      jump\t// in\n    tag_53:\n      tag_54\n      jump\t// in\n    tag_52:\n      mload(0x40)\n      tag_55\n      swap2\n      swap1\n      tag_56\n      jump\t// in\n    tag_55:\n      mload(0x40)\n      dup1\n      swap2\n      sub\n      swap1\n      return\n        /* \"Twitter.sol\":1899:2001  function disallow(address _operator) public{... */\n    tag_10:\n      tag_57\n      0x04\n      dup1\n      calldatasize\n      sub\n      dup2\n      add\n      swap1\n      tag_58\n      swap2\n      swap1\n      tag_36\n      jump\t// in\n    tag_58:\n      tag_59\n      jump\t// in\n    tag_57:\n      stop\n        /* \"Twitter.sol\":403:446  mapping (address => uint[]) public tweetsOf */\n    tag_11:\n      tag_60\n      0x04\n      dup1\n      calldatasize\n      sub\n      dup2\n      add\n      swap1\n      tag_61\n      swap2\n      swap1\n      tag_30\n      jump\t// in\n    tag_61:\n      tag_62\n      jump\t// in\n    tag_60:\n      mload(0x40)\n      tag_63\n      swap2\n      swap1\n      tag_64\n      jump\t// in\n    tag_63:\n      mload(0x40)\n      dup1\n      swap2\n      sub\n      swap1\n      return\n        /* \"Twitter.sol\":1421:1553  function sendMessage(address _from,address _to, string memory _content) public {... */\n    tag_12:\n      tag_65\n      0x04\n      dup1\n      calldatasize\n      sub\n      dup2\n      add\n      swap1\n      tag_66\n      swap2\n      swap1\n      tag_67\n      jump\t// in\n    tag_66:\n      tag_68\n      jump\t// in\n    tag_65:\n      stop\n        /* \"Twitter.sol\":1285:1413  function sendMessage(string memory _content,address _to) public {... */\n    tag_13:\n      tag_69\n      0x04\n      dup1\n      calldatasize\n      sub\n      dup2\n      add\n      swap1\n      tag_70\n      swap2\n      swap1\n      tag_71\n      jump\t// in\n    tag_70:\n      tag_72\n      jump\t// in\n    tag_69:\n      stop\n        /* \"Twitter.sol\":860:1068  function _sendMessage(address _from,address _to, string memory _content) public{... */\n    tag_14:\n      tag_73\n      0x04\n      dup1\n      calldatasize\n      sub\n      dup2\n      add\n      swap1\n      tag_74\n      swap2\n      swap1\n      tag_67\n      jump\t// in\n    tag_74:\n      tag_75\n      jump\t// in\n    tag_73:\n      stop\n        /* \"Twitter.sol\":1177:1277  function tweet(address _from,string memory _content) public{... */\n    tag_15:\n      tag_76\n      0x04\n      dup1\n      calldatasize\n      sub\n      dup2\n      add\n      swap1\n      tag_77\n      swap2\n      swap1\n      tag_50\n      jump\t// in\n    tag_77:\n      tag_78\n      jump\t// in\n    tag_76:\n      stop\n        /* \"Twitter.sol\":359:396  mapping (uint => Tweet) public tweets */\n    tag_16:\n      tag_79\n      0x04\n      dup1\n      calldatasize\n      sub\n      dup2\n      add\n      swap1\n      tag_80\n      swap2\n      swap1\n      tag_40\n      jump\t// in\n    tag_80:\n      tag_81\n      jump\t// in\n    tag_79:\n      mload(0x40)\n      tag_82\n      swap5\n      swap4\n      swap3\n      swap2\n      swap1\n      tag_83\n      jump\t// in\n    tag_82:\n      mload(0x40)\n      dup1\n      swap2\n      sub\n      swap1\n      return\n        /* \"Twitter.sol\":1076:1169  function tweet(string memory _content) public {... */\n    tag_17:\n      tag_84\n      0x04\n      dup1\n      calldatasize\n      sub\n      dup2\n      add\n      swap1\n      tag_85\n      swap2\n      swap1\n      tag_86\n      jump\t// in\n    tag_85:\n      tag_87\n      jump\t// in\n    tag_84:\n      stop\n        /* \"Twitter.sol\":1792:1891  function allow(address _operator) public {... */\n    tag_18:\n      tag_88\n      0x04\n      dup1\n      calldatasize\n      sub\n      dup2\n      add\n      swap1\n      tag_89\n      swap2\n      swap1\n      tag_36\n      jump\t// in\n    tag_89:\n      tag_90\n      jump\t// in\n    tag_88:\n      stop\n        /* \"Twitter.sol\":510:571  mapping (address=> mapping (address=>bool)) public  operators */\n    tag_25:\n      mstore(0x20, 0x03)\n      dup2\n      0x00\n      mstore\n      mstore(0x20, keccak256(0x00, 0x40))\n      dup1\n      0x00\n      mstore\n      keccak256(0x00, 0x40)\n      0x00\n      swap2\n      pop\n      swap2\n      pop\n      swap1\n      sload\n      swap1\n      0x0100\n      exp\n      swap1\n      div\n      0xff\n      and\n      dup2\n      jump\t// out\n        /* \"Twitter.sol\":2501:3287  function getLetestTOUser(address _user, uint count) public view returns(Tweet[] memory) {... */\n    tag_31:\n        /* \"Twitter.sol\":2573:2587  Tweet[] memory */\n      0x60\n        /* \"Twitter.sol\":2600:2623  Tweet [] memory _tweets */\n      0x00\n        /* \"Twitter.sol\":2639:2644  count */\n      dup3\n        /* \"Twitter.sol\":2626:2645  new Tweet[] (count) */\n      0xffffffffffffffff\n      dup2\n      gt\n      iszero\n      tag_92\n      jumpi\n      tag_93\n      tag_94\n      jump\t// in\n    tag_93:\n    tag_92:\n      mload(0x40)\n      swap1\n      dup1\n      dup3\n      mstore\n      dup1\n      0x20\n      mul\n      0x20\n      add\n      dup3\n      add\n      0x40\n      mstore\n      dup1\n      iszero\n      tag_95\n      jumpi\n      dup2\n      0x20\n      add\n    tag_96:\n      tag_97\n      tag_98\n      jump\t// in\n    tag_97:\n      dup2\n      mstore\n      0x20\n      add\n      swap1\n      0x01\n      swap1\n      sub\n      swap1\n      dup2\n      tag_96\n      jumpi\n      swap1\n      pop\n    tag_95:\n      pop\n        /* \"Twitter.sol\":2600:2645  Tweet [] memory _tweets = new Tweet[] (count) */\n      swap1\n      pop\n        /* \"Twitter.sol\":2761:2778  uint[] memory ids */\n      0x00\n        /* \"Twitter.sol\":2781:2789  tweetsOf */\n      0x01\n        /* \"Twitter.sol\":2781:2796  tweetsOf[_user] */\n      0x00\n        /* \"Twitter.sol\":2790:2795  _user */\n      dup7\n        /* \"Twitter.sol\":2781:2796  tweetsOf[_user] */\n      0xffffffffffffffffffffffffffffffffffffffff\n      and\n      0xffffffffffffffffffffffffffffffffffffffff\n      and\n      dup2\n      mstore\n      0x20\n      add\n      swap1\n      dup2\n      mstore\n      0x20\n      add\n      0x00\n      keccak256\n        /* \"Twitter.sol\":2761:2796  uint[] memory ids = tweetsOf[_user] */\n      dup1\n      sload\n      dup1\n      0x20\n      mul\n      0x20\n      add\n      mload(0x40)\n      swap1\n      dup2\n      add\n      0x40\n      mstore\n      dup1\n      swap3\n      swap2\n      swap1\n      dup2\n      dup2\n      mstore\n      0x20\n      add\n      dup3\n      dup1\n      sload\n      dup1\n      iszero\n      tag_99\n      jumpi\n      0x20\n      mul\n      dup3\n      add\n      swap2\n      swap1\n      0x00\n      mstore\n      keccak256(0x00, 0x20)\n      swap1\n    tag_100:\n      dup2\n      sload\n      dup2\n      mstore\n      0x20\n      add\n      swap1\n      0x01\n      add\n      swap1\n      dup1\n      dup4\n      gt\n      tag_100\n      jumpi\n    tag_99:\n      pop\n      pop\n      pop\n      pop\n      pop\n      swap1\n      pop\n        /* \"Twitter.sol\":2864:2865  0 */\n      0x00\n        /* \"Twitter.sol\":2856:2861  count */\n      dup5\n        /* \"Twitter.sol\":2856:2865  count > 0 */\n      gt\n        /* \"Twitter.sol\":2856:2884  count > 0 && count <= nextId */\n      dup1\n      iszero\n      tag_101\n      jumpi\n      pop\n        /* \"Twitter.sol\":2878:2884  nextId */\n      sload(0x05)\n        /* \"Twitter.sol\":2869:2874  count */\n      dup5\n        /* \"Twitter.sol\":2869:2884  count <= nextId */\n      gt\n      iszero\n        /* \"Twitter.sol\":2856:2884  count > 0 && count <= nextId */\n    tag_101:\n        /* \"Twitter.sol\":2848:2909  require(count > 0 && count <= nextId, \"Count is not defined\") */\n      tag_102\n      jumpi\n      mload(0x40)\n      0x08c379a000000000000000000000000000000000000000000000000000000000\n      dup2\n      mstore\n      0x04\n      add\n      tag_103\n      swap1\n      tag_104\n      jump\t// in\n    tag_103:\n      mload(0x40)\n      dup1\n      swap2\n      sub\n      swap1\n      revert\n    tag_102:\n        /* \"Twitter.sol\":2922:2928  uint j */\n      0x00\n        /* \"Twitter.sol\":2945:2951  uint i */\n      dup1\n        /* \"Twitter.sol\":2977:2982  count */\n      dup6\n        /* \"Twitter.sol\":2954:2962  tweetsOf */\n      0x01\n        /* \"Twitter.sol\":2954:2969  tweetsOf[_user] */\n      0x00\n        /* \"Twitter.sol\":2963:2968  _user */\n      dup10\n        /* \"Twitter.sol\":2954:2969  tweetsOf[_user] */\n      0xffffffffffffffffffffffffffffffffffffffff\n      and\n      0xffffffffffffffffffffffffffffffffffffffff\n      and\n      dup2\n      mstore\n      0x20\n      add\n      swap1\n      dup2\n      mstore\n      0x20\n      add\n      0x00\n      keccak256\n        /* \"Twitter.sol\":2954:2976  tweetsOf[_user].length */\n      dup1\n      sload\n      swap1\n      pop\n        /* \"Twitter.sol\":2954:2982  tweetsOf[_user].length-count */\n      tag_108\n      swap2\n      swap1\n      tag_109\n      jump\t// in\n    tag_108:\n        /* \"Twitter.sol\":2945:2982  uint i = tweetsOf[_user].length-count */\n      swap1\n      pop\n        /* \"Twitter.sol\":2940:3255  for (uint i = tweetsOf[_user].length-count; i< tweetsOf[_user].length ; i++){... */\n    tag_105:\n        /* \"Twitter.sol\":2987:2995  tweetsOf */\n      0x01\n        /* \"Twitter.sol\":2987:3002  tweetsOf[_user] */\n      0x00\n        /* \"Twitter.sol\":2996:3001  _user */\n      dup9\n        /* \"Twitter.sol\":2987:3002  tweetsOf[_user] */\n      0xffffffffffffffffffffffffffffffffffffffff\n      and\n      0xffffffffffffffffffffffffffffffffffffffff\n      and\n      dup2\n      mstore\n      0x20\n      add\n      swap1\n      dup2\n      mstore\n      0x20\n      add\n      0x00\n      keccak256\n        /* \"Twitter.sol\":2987:3009  tweetsOf[_user].length */\n      dup1\n      sload\n      swap1\n      pop\n        /* \"Twitter.sol\":2984:2985  i */\n      dup2\n        /* \"Twitter.sol\":2984:3009  i< tweetsOf[_user].length */\n      lt\n        /* \"Twitter.sol\":2940:3255  for (uint i = tweetsOf[_user].length-count; i< tweetsOf[_user].length ; i++){... */\n      iszero\n      tag_106\n      jumpi\n        /* \"Twitter.sol\":3031:3055  Tweet storage _structure */\n      0x00\n        /* \"Twitter.sol\":3058:3064  tweets */\n      dup1\n        /* \"Twitter.sol\":3058:3072  tweets[ids[i]] */\n      0x00\n        /* \"Twitter.sol\":3065:3068  ids */\n      dup6\n        /* \"Twitter.sol\":3069:3070  i */\n      dup5\n        /* \"Twitter.sol\":3065:3071  ids[i] */\n      dup2\n      mload\n      dup2\n      lt\n      tag_110\n      jumpi\n      tag_111\n      tag_112\n      jump\t// in\n    tag_111:\n    tag_110:\n      0x20\n      mul\n      0x20\n      add\n      add\n      mload\n        /* \"Twitter.sol\":3058:3072  tweets[ids[i]] */\n      dup2\n      mstore\n      0x20\n      add\n      swap1\n      dup2\n      mstore\n      0x20\n      add\n      0x00\n      keccak256\n        /* \"Twitter.sol\":3031:3072  Tweet storage _structure = tweets[ids[i]] */\n      swap1\n      pop\n        /* \"Twitter.sol\":3100:3221  Tweet(_structure.id,... */\n      mload(0x40)\n      dup1\n      0x80\n      add\n      0x40\n      mstore\n      dup1\n        /* \"Twitter.sol\":3106:3116  _structure */\n      dup3\n        /* \"Twitter.sol\":3106:3119  _structure.id */\n      0x00\n      add\n      sload\n        /* \"Twitter.sol\":3100:3221  Tweet(_structure.id,... */\n      dup2\n      mstore\n      0x20\n      add\n        /* \"Twitter.sol\":3134:3144  _structure */\n      dup3\n        /* \"Twitter.sol\":3134:3151  _structure.author */\n      0x01\n      add\n      0x00\n      swap1\n      sload\n      swap1\n      0x0100\n      exp\n      swap1\n      div\n      0xffffffffffffffffffffffffffffffffffffffff\n      and\n        /* \"Twitter.sol\":3100:3221  Tweet(_structure.id,... */\n      0xffffffffffffffffffffffffffffffffffffffff\n      and\n      dup2\n      mstore\n      0x20\n      add\n        /* \"Twitter.sol\":3167:3177  _structure */\n      dup3\n        /* \"Twitter.sol\":3167:3185  _structure.content */\n      0x02\n      add\n        /* \"Twitter.sol\":3100:3221  Tweet(_structure.id,... */\n      dup1\n      sload\n      tag_113\n      swap1\n      tag_114\n      jump\t// in\n    tag_113:\n      dup1\n      0x1f\n      add\n      0x20\n      dup1\n      swap2\n      div\n      mul\n      0x20\n      add\n      mload(0x40)\n      swap1\n      dup2\n      add\n      0x40\n      mstore\n      dup1\n      swap3\n      swap2\n      swap1\n      dup2\n      dup2\n      mstore\n      0x20\n      add\n      dup3\n      dup1\n      sload\n      tag_115\n      swap1\n      tag_114\n      jump\t// in\n    tag_115:\n      dup1\n      iszero\n      tag_116\n      jumpi\n      dup1\n      0x1f\n      lt\n      tag_117\n      jumpi\n      0x0100\n      dup1\n      dup4\n      sload\n      div\n      mul\n      dup4\n      mstore\n      swap2\n      0x20\n      add\n      swap2\n      jump(tag_116)\n    tag_117:\n      dup3\n      add\n      swap2\n      swap1\n      0x00\n      mstore\n      keccak256(0x00, 0x20)\n      swap1\n    tag_118:\n      dup2\n      sload\n      dup2\n      mstore\n      swap1\n      0x01\n      add\n      swap1\n      0x20\n      add\n      dup1\n      dup4\n      gt\n      tag_118\n      jumpi\n      dup3\n      swap1\n      sub\n      0x1f\n      and\n      dup3\n      add\n      swap2\n    tag_116:\n      pop\n      pop\n      pop\n      pop\n      pop\n      dup2\n      mstore\n      0x20\n      add\n        /* \"Twitter.sol\":3201:3211  _structure */\n      dup3\n        /* \"Twitter.sol\":3201:3220  _structure.createAt */\n      0x03\n      add\n      sload\n        /* \"Twitter.sol\":3100:3221  Tweet(_structure.id,... */\n      dup2\n      mstore\n      pop\n        /* \"Twitter.sol\":3087:3094  _tweets */\n      dup6\n        /* \"Twitter.sol\":3095:3096  j */\n      dup5\n        /* \"Twitter.sol\":3087:3097  _tweets[j] */\n      dup2\n      mload\n      dup2\n      lt\n      tag_119\n      jumpi\n      tag_120\n      tag_112\n      jump\t// in\n    tag_120:\n    tag_119:\n      0x20\n      mul\n      0x20\n      add\n      add\n        /* \"Twitter.sol\":3087:3221  _tweets[j] = Tweet(_structure.id,... */\n      dup2\n      swap1\n      mstore\n      pop\n        /* \"Twitter.sol\":3242:3243  1 */\n      0x01\n        /* \"Twitter.sol\":3240:3241  j */\n      dup4\n        /* \"Twitter.sol\":3240:3243  j+1 */\n      tag_121\n      swap2\n      swap1\n      tag_122\n      jump\t// in\n    tag_121:\n        /* \"Twitter.sol\":3238:3243  j=j+1 */\n      swap3\n      pop\n        /* \"Twitter.sol\":3016:3255  {... */\n      pop\n        /* \"Twitter.sol\":3012:3015  i++ */\n      dup1\n      dup1\n      0x01\n      add\n      swap2\n      pop\n      pop\n        /* \"Twitter.sol\":2940:3255  for (uint i = tweetsOf[_user].length-count; i< tweetsOf[_user].length ; i++){... */\n      jump(tag_105)\n    tag_106:\n      pop\n        /* \"Twitter.sol\":3272:3279  _tweets */\n      dup3\n        /* \"Twitter.sol\":3265:3279  return _tweets */\n      swap4\n      pop\n      pop\n      pop\n      pop\n        /* \"Twitter.sol\":2501:3287  function getLetestTOUser(address _user, uint count) public view returns(Tweet[] memory) {... */\n      swap3\n      swap2\n      pop\n      pop\n      jump\t// out\n        /* \"Twitter.sol\":1569:1666  function follow(address _followed) public{... */\n    tag_37:\n        /* \"Twitter.sol\":1621:1630  following */\n      0x04\n        /* \"Twitter.sol\":1621:1642  following[msg.sender] */\n      0x00\n        /* \"Twitter.sol\":1631:1641  msg.sender */\n      caller\n        /* \"Twitter.sol\":1621:1642  following[msg.sender] */\n      0xffffffffffffffffffffffffffffffffffffffff\n      and\n      0xffffffffffffffffffffffffffffffffffffffff\n      and\n      dup2\n      mstore\n      0x20\n      add\n      swap1\n      dup2\n      mstore\n      0x20\n      add\n      0x00\n      keccak256\n        /* \"Twitter.sol\":1648:1657  _followed */\n      dup2\n        /* \"Twitter.sol\":1621:1658  following[msg.sender].push(_followed) */\n      swap1\n      dup1\n      0x01\n      dup2\n      sload\n      add\n      dup1\n      dup3\n      sstore\n      dup1\n      swap2\n      pop\n      pop\n      0x01\n      swap1\n      sub\n      swap1\n      0x00\n      mstore\n      keccak256(0x00, 0x20)\n      add\n      0x00\n      swap1\n      swap2\n      swap1\n      swap2\n      swap1\n      swap2\n      0x0100\n      exp\n      dup2\n      sload\n      dup2\n      0xffffffffffffffffffffffffffffffffffffffff\n      mul\n      not\n      and\n      swap1\n      dup4\n      0xffffffffffffffffffffffffffffffffffffffff\n      and\n      mul\n      or\n      swap1\n      sstore\n      pop\n        /* \"Twitter.sol\":1569:1666  function follow(address _followed) public{... */\n      pop\n      jump\t// out\n        /* \"Twitter.sol\":2009:2493  function getLatestTweets(uint count) public returns(Tweet[] memory){... */\n    tag_41:\n        /* \"Twitter.sol\":2061:2075  Tweet[] memory */\n      0x60\n        /* \"Twitter.sol\":2101:2102  0 */\n      0x00\n        /* \"Twitter.sol\":2095:2100  count */\n      dup3\n        /* \"Twitter.sol\":2095:2102  count>0 */\n      gt\n        /* \"Twitter.sol\":2095:2119  count>0 && count<=nextId */\n      dup1\n      iszero\n      tag_126\n      jumpi\n      pop\n        /* \"Twitter.sol\":2113:2119  nextId */\n      sload(0x05)\n        /* \"Twitter.sol\":2106:2111  count */\n      dup3\n        /* \"Twitter.sol\":2106:2119  count<=nextId */\n      gt\n      iszero\n        /* \"Twitter.sol\":2095:2119  count>0 && count<=nextId */\n    tag_126:\n        /* \"Twitter.sol\":2087:2143  require(count>0 && count<=nextId, \"Count id not proper\") */\n      tag_127\n      jumpi\n      mload(0x40)\n      0x08c379a000000000000000000000000000000000000000000000000000000000\n      dup2\n      mstore\n      0x04\n      add\n      tag_128\n      swap1\n      tag_129\n      jump\t// in\n    tag_128:\n      mload(0x40)\n      dup1\n      swap2\n      sub\n      swap1\n      revert\n    tag_127:\n        /* \"Twitter.sol\":2154:2176  Tweet[] memory _tweets */\n      0x00\n        /* \"Twitter.sol\":2192:2197  count */\n      dup3\n        /* \"Twitter.sol\":2179:2198  new Tweet[] (count) */\n      0xffffffffffffffff\n      dup2\n      gt\n      iszero\n      tag_130\n      jumpi\n      tag_131\n      tag_94\n      jump\t// in\n    tag_131:\n    tag_130:\n      mload(0x40)\n      swap1\n      dup1\n      dup3\n      mstore\n      dup1\n      0x20\n      mul\n      0x20\n      add\n      dup3\n      add\n      0x40\n      mstore\n      dup1\n      iszero\n      tag_132\n      jumpi\n      dup2\n      0x20\n      add\n    tag_133:\n      tag_134\n      tag_98\n      jump\t// in\n    tag_134:\n      dup2\n      mstore\n      0x20\n      add\n      swap1\n      0x01\n      swap1\n      sub\n      swap1\n      dup2\n      tag_133\n      jumpi\n      swap1\n      pop\n    tag_132:\n      pop\n        /* \"Twitter.sol\":2154:2198  Tweet[] memory _tweets = new Tweet[] (count) */\n      swap1\n      pop\n        /* \"Twitter.sol\":2209:2215  uint j */\n      0x00\n        /* \"Twitter.sol\":2231:2237  uint i */\n      dup1\n        /* \"Twitter.sol\":2247:2252  count */\n      dup5\n        /* \"Twitter.sol\":2240:2246  nextId */\n      sload(0x05)\n        /* \"Twitter.sol\":2240:2252  nextId-count */\n      tag_138\n      swap2\n      swap1\n      tag_109\n      jump\t// in\n    tag_138:\n        /* \"Twitter.sol\":2231:2252  uint i = nextId-count */\n      swap1\n      pop\n        /* \"Twitter.sol\":2226:2459  for (uint i = nextId-count;i<=nextId;nextId++){... */\n    tag_135:\n        /* \"Twitter.sol\":2256:2262  nextId */\n      sload(0x05)\n        /* \"Twitter.sol\":2253:2254  i */\n      dup2\n        /* \"Twitter.sol\":2253:2262  i<=nextId */\n      gt\n        /* \"Twitter.sol\":2226:2459  for (uint i = nextId-count;i<=nextId;nextId++){... */\n      tag_136\n      jumpi\n        /* \"Twitter.sol\":2287:2311  Tweet storage _structure */\n      0x00\n        /* \"Twitter.sol\":2314:2320  tweets */\n      dup1\n        /* \"Twitter.sol\":2314:2323  tweets[i] */\n      0x00\n        /* \"Twitter.sol\":2321:2322  i */\n      dup4\n        /* \"Twitter.sol\":2314:2323  tweets[i] */\n      dup2\n      mstore\n      0x20\n      add\n      swap1\n      dup2\n      mstore\n      0x20\n      add\n      0x00\n      keccak256\n        /* \"Twitter.sol\":2287:2323  Tweet storage _structure = tweets[i] */\n      swap1\n      pop\n        /* \"Twitter.sol\":2350:2429  Tweet( _structure.id, _structure.author,_structure.content,_structure.createAt) */\n      mload(0x40)\n      dup1\n      0x80\n      add\n      0x40\n      mstore\n      dup1\n        /* \"Twitter.sol\":2357:2367  _structure */\n      dup3\n        /* \"Twitter.sol\":2357:2370  _structure.id */\n      0x00\n      add\n      sload\n        /* \"Twitter.sol\":2350:2429  Tweet( _structure.id, _structure.author,_structure.content,_structure.createAt) */\n      dup2\n      mstore\n      0x20\n      add\n        /* \"Twitter.sol\":2372:2382  _structure */\n      dup3\n        /* \"Twitter.sol\":2372:2389  _structure.author */\n      0x01\n      add\n      0x00\n      swap1\n      sload\n      swap1\n      0x0100\n      exp\n      swap1\n      div\n      0xffffffffffffffffffffffffffffffffffffffff\n      and\n        /* \"Twitter.sol\":2350:2429  Tweet( _structure.id, _structure.author,_structure.content,_structure.createAt) */\n      0xffffffffffffffffffffffffffffffffffffffff\n      and\n      dup2\n      mstore\n      0x20\n      add\n        /* \"Twitter.sol\":2390:2400  _structure */\n      dup3\n        /* \"Twitter.sol\":2390:2408  _structure.content */\n      0x02\n      add\n        /* \"Twitter.sol\":2350:2429  Tweet( _structure.id, _structure.author,_structure.content,_structure.createAt) */\n      dup1\n      sload\n      tag_139\n      swap1\n      tag_114\n      jump\t// in\n    tag_139:\n      dup1\n      0x1f\n      add\n      0x20\n      dup1\n      swap2\n      div\n      mul\n      0x20\n      add\n      mload(0x40)\n      swap1\n      dup2\n      add\n      0x40\n      mstore\n      dup1\n      swap3\n      swap2\n      swap1\n      dup2\n      dup2\n      mstore\n      0x20\n      add\n      dup3\n      dup1\n      sload\n      tag_140\n      swap1\n      tag_114\n      jump\t// in\n    tag_140:\n      dup1\n      iszero\n      tag_141\n      jumpi\n      dup1\n      0x1f\n      lt\n      tag_142\n      jumpi\n      0x0100\n      dup1\n      dup4\n      sload\n      div\n      mul\n      dup4\n      mstore\n      swap2\n      0x20\n      add\n      swap2\n      jump(tag_141)\n    tag_142:\n      dup3\n      add\n      swap2\n      swap1\n      0x00\n      mstore\n      keccak256(0x00, 0x20)\n      swap1\n    tag_143:\n      dup2\n      sload\n      dup2\n      mstore\n      swap1\n      0x01\n      add\n      swap1\n      0x20\n      add\n      dup1\n      dup4\n      gt\n      tag_143\n      jumpi\n      dup3\n      swap1\n      sub\n      0x1f\n      and\n      dup3\n      add\n      swap2\n    tag_141:\n      pop\n      pop\n      pop\n      pop\n      pop\n      dup2\n      mstore\n      0x20\n      add\n        /* \"Twitter.sol\":2409:2419  _structure */\n      dup3\n        /* \"Twitter.sol\":2409:2428  _structure.createAt */\n      0x03\n      add\n      sload\n        /* \"Twitter.sol\":2350:2429  Tweet( _structure.id, _structure.author,_structure.content,_structure.createAt) */\n      dup2\n      mstore\n      pop\n        /* \"Twitter.sol\":2338:2345  _tweets */\n      dup5\n        /* \"Twitter.sol\":2346:2347  j */\n      dup5\n        /* \"Twitter.sol\":2338:2348  _tweets[j] */\n      dup2\n      mload\n      dup2\n      lt\n      tag_144\n      jumpi\n      tag_145\n      tag_112\n      jump\t// in\n    tag_145:\n    tag_144:\n      0x20\n      mul\n      0x20\n      add\n      add\n        /* \"Twitter.sol\":2338:2429  _tweets[j] =Tweet( _structure.id, _structure.author,_structure.content,_structure.createAt) */\n      dup2\n      swap1\n      mstore\n      pop\n        /* \"Twitter.sol\":2444:2447  j++ */\n      dup3\n      dup1\n      tag_146\n      swap1\n      tag_147\n      jump\t// in\n    tag_146:\n      swap4\n      pop\n      pop\n        /* \"Twitter.sol\":2272:2459  {... */\n      pop\n        /* \"Twitter.sol\":2263:2269  nextId */\n      0x05\n      0x00\n        /* \"Twitter.sol\":2263:2271  nextId++ */\n      dup2\n      sload\n      dup1\n      swap3\n      swap2\n      swap1\n      tag_148\n      swap1\n      tag_147\n      jump\t// in\n    tag_148:\n      swap2\n      swap1\n      pop\n      sstore\n      pop\n        /* \"Twitter.sol\":2226:2459  for (uint i = nextId-count;i<=nextId;nextId++){... */\n      jump(tag_135)\n    tag_136:\n      pop\n        /* \"Twitter.sol\":2478:2485  _tweets */\n      dup2\n        /* \"Twitter.sol\":2471:2485  return _tweets */\n      swap3\n      pop\n      pop\n      pop\n        /* \"Twitter.sol\":2009:2493  function getLatestTweets(uint count) public returns(Tweet[] memory){... */\n      swap2\n      swap1\n      pop\n      jump\t// out\n        /* \"Twitter.sol\":453:503  mapping (address => Message[]) public conversation */\n    tag_45:\n      mstore(0x20, 0x02)\n      dup2\n      0x00\n      mstore\n      keccak256(0x00, 0x40)\n      dup2\n      dup2\n      sload\n      dup2\n      lt\n      tag_149\n      jumpi\n      0x00\n      dup1\n      revert\n    tag_149:\n      swap1\n      0x00\n      mstore\n      keccak256(0x00, 0x20)\n      swap1\n      0x05\n      mul\n      add\n      0x00\n      swap2\n      pop\n      swap2\n      pop\n      pop\n      dup1\n      0x00\n      add\n      sload\n      swap1\n      dup1\n      0x01\n      add\n      dup1\n      sload\n      tag_151\n      swap1\n      tag_114\n      jump\t// in\n    tag_151:\n      dup1\n      0x1f\n      add\n      0x20\n      dup1\n      swap2\n      div\n      mul\n      0x20\n      add\n      mload(0x40)\n      swap1\n      dup2\n      add\n      0x40\n      mstore\n      dup1\n      swap3\n      swap2\n      swap1\n      dup2\n      dup2\n      mstore\n      0x20\n      add\n      dup3\n      dup1\n      sload\n      tag_152\n      swap1\n      tag_114\n      jump\t// in\n    tag_152:\n      dup1\n      iszero\n      tag_153\n      jumpi\n      dup1\n      0x1f\n      lt\n      tag_154\n      jumpi\n      0x0100\n      dup1\n      dup4\n      sload\n      div\n      mul\n      dup4\n      mstore\n      swap2\n      0x20\n      add\n      swap2\n      jump(tag_153)\n    tag_154:\n      dup3\n      add\n      swap2\n      swap1\n      0x00\n      mstore\n      keccak256(0x00, 0x20)\n      swap1\n    tag_155:\n      dup2\n      sload\n      dup2\n      mstore\n      swap1\n      0x01\n      add\n      swap1\n      0x20\n      add\n      dup1\n      dup4\n      gt\n      tag_155\n      jumpi\n      dup3\n      swap1\n      sub\n      0x1f\n      and\n      dup3\n      add\n      swap2\n    tag_153:\n      pop\n      pop\n      pop\n      pop\n      pop\n      swap1\n      dup1\n      0x02\n      add\n      0x00\n      swap1\n      sload\n      swap1\n      0x0100\n      exp\n      swap1\n      div\n      0xffffffffffffffffffffffffffffffffffffffff\n      and\n      swap1\n      dup1\n      0x03\n      add\n      0x00\n      swap1\n      sload\n      swap1\n      0x0100\n      exp\n      swap1\n      div\n      0xffffffffffffffffffffffffffffffffffffffff\n      and\n      swap1\n      dup1\n      0x04\n      add\n      sload\n      swap1\n      pop\n      dup6\n      jump\t// out\n        /* \"Twitter.sol\":677:852  function _tweet(address _from, string memory _content) public {... */\n    tag_51:\n        /* \"Twitter.sol\":767:814  Tweet(nextId ,_from ,_content, block.timestamp) */\n      mload(0x40)\n      dup1\n      0x80\n      add\n      0x40\n      mstore\n      dup1\n        /* \"Twitter.sol\":773:779  nextId */\n      sload(0x05)\n        /* \"Twitter.sol\":767:814  Tweet(nextId ,_from ,_content, block.timestamp) */\n      dup2\n      mstore\n      0x20\n      add\n        /* \"Twitter.sol\":781:786  _from */\n      dup4\n        /* \"Twitter.sol\":767:814  Tweet(nextId ,_from ,_content, block.timestamp) */\n      0xffffffffffffffffffffffffffffffffffffffff\n      and\n      dup2\n      mstore\n      0x20\n      add\n        /* \"Twitter.sol\":788:796  _content */\n      dup3\n        /* \"Twitter.sol\":767:814  Tweet(nextId ,_from ,_content, block.timestamp) */\n      dup2\n      mstore\n      0x20\n      add\n        /* \"Twitter.sol\":798:813  block.timestamp */\n      timestamp\n        /* \"Twitter.sol\":767:814  Tweet(nextId ,_from ,_content, block.timestamp) */\n      dup2\n      mstore\n      pop\n        /* \"Twitter.sol\":750:756  tweets */\n      0x00\n        /* \"Twitter.sol\":750:764  tweets[nextId] */\n      dup1\n        /* \"Twitter.sol\":757:763  nextId */\n      sload(0x05)\n        /* \"Twitter.sol\":750:764  tweets[nextId] */\n      dup2\n      mstore\n      0x20\n      add\n      swap1\n      dup2\n      mstore\n      0x20\n      add\n      0x00\n      keccak256\n        /* \"Twitter.sol\":750:814  tweets[nextId] = Tweet(nextId ,_from ,_content, block.timestamp) */\n      0x00\n      dup3\n      add\n      mload\n      dup2\n      0x00\n      add\n      sstore\n      0x20\n      dup3\n      add\n      mload\n      dup2\n      0x01\n      add\n      exp(0x0100, 0x00)\n      dup2\n      sload\n      dup2\n      0xffffffffffffffffffffffffffffffffffffffff\n      mul\n      not\n      and\n      swap1\n      dup4\n      0xffffffffffffffffffffffffffffffffffffffff\n      and\n      mul\n      or\n      swap1\n      sstore\n      pop\n      0x40\n      dup3\n      add\n      mload\n      dup2\n      0x02\n      add\n      swap1\n      dup2\n      tag_157\n      swap2\n      swap1\n      tag_158\n      jump\t// in\n    tag_157:\n      pop\n      0x60\n      dup3\n      add\n      mload\n      dup2\n      0x03\n      add\n      sstore\n      swap1\n      pop\n      pop\n        /* \"Twitter.sol\":841:842  1 */\n      0x01\n        /* \"Twitter.sol\":834:840  nextId */\n      sload(0x05)\n        /* \"Twitter.sol\":834:842  nextId+1 */\n      tag_159\n      swap2\n      swap1\n      tag_122\n      jump\t// in\n    tag_159:\n        /* \"Twitter.sol\":825:831  nextId */\n      0x05\n        /* \"Twitter.sol\":825:842  nextId = nextId+1 */\n      dup2\n      swap1\n      sstore\n      pop\n        /* \"Twitter.sol\":677:852  function _tweet(address _from, string memory _content) public {... */\n      pop\n      pop\n      jump\t// out\n        /* \"Twitter.sol\":578:623  mapping (address=>address[]) public following */\n    tag_54:\n      mstore(0x20, 0x04)\n      dup2\n      0x00\n      mstore\n      keccak256(0x00, 0x40)\n      dup2\n      dup2\n      sload\n      dup2\n      lt\n      tag_160\n      jumpi\n      0x00\n      dup1\n      revert\n    tag_160:\n      swap1\n      0x00\n      mstore\n      keccak256(0x00, 0x20)\n      add\n      0x00\n      swap2\n      pop\n      swap2\n      pop\n      swap1\n      sload\n      swap1\n      0x0100\n      exp\n      swap1\n      div\n      0xffffffffffffffffffffffffffffffffffffffff\n      and\n      dup2\n      jump\t// out\n        /* \"Twitter.sol\":1899:2001  function disallow(address _operator) public{... */\n    tag_59:\n        /* \"Twitter.sol\":1988:1993  false */\n      0x00\n        /* \"Twitter.sol\":1953:1962  operators */\n      0x03\n        /* \"Twitter.sol\":1953:1974  operators[msg.sender] */\n      0x00\n        /* \"Twitter.sol\":1963:1973  msg.sender */\n      caller\n        /* \"Twitter.sol\":1953:1974  operators[msg.sender] */\n      0xffffffffffffffffffffffffffffffffffffffff\n      and\n      0xffffffffffffffffffffffffffffffffffffffff\n      and\n      dup2\n      mstore\n      0x20\n      add\n      swap1\n      dup2\n      mstore\n      0x20\n      add\n      0x00\n      keccak256\n        /* \"Twitter.sol\":1953:1985  operators[msg.sender][_operator] */\n      0x00\n        /* \"Twitter.sol\":1975:1984  _operator */\n      dup4\n        /* \"Twitter.sol\":1953:1985  operators[msg.sender][_operator] */\n      0xffffffffffffffffffffffffffffffffffffffff\n      and\n      0xffffffffffffffffffffffffffffffffffffffff\n      and\n      dup2\n      mstore\n      0x20\n      add\n      swap1\n      dup2\n      mstore\n      0x20\n      add\n      0x00\n      keccak256\n      0x00\n        /* \"Twitter.sol\":1953:1993  operators[msg.sender][_operator] = false */\n      0x0100\n      exp\n      dup2\n      sload\n      dup2\n      0xff\n      mul\n      not\n      and\n      swap1\n      dup4\n      iszero\n      iszero\n      mul\n      or\n      swap1\n      sstore\n      pop\n        /* \"Twitter.sol\":1899:2001  function disallow(address _operator) public{... */\n      pop\n      jump\t// out\n        /* \"Twitter.sol\":403:446  mapping (address => uint[]) public tweetsOf */\n    tag_62:\n      mstore(0x20, 0x01)\n      dup2\n      0x00\n      mstore\n      keccak256(0x00, 0x40)\n      dup2\n      dup2\n      sload\n      dup2\n      lt\n      tag_163\n      jumpi\n      0x00\n      dup1\n      revert\n    tag_163:\n      swap1\n      0x00\n      mstore\n      keccak256(0x00, 0x20)\n      add\n      0x00\n      swap2\n      pop\n      swap2\n      pop\n      pop\n      sload\n      dup2\n      jump\t// out\n        /* \"Twitter.sol\":1421:1553  function sendMessage(address _from,address _to, string memory _content) public {... */\n    tag_68:\n        /* \"Twitter.sol\":1511:1545  _sendMessage(_from, _to, _content) */\n      tag_166\n        /* \"Twitter.sol\":1524:1529  _from */\n      dup4\n        /* \"Twitter.sol\":1531:1534  _to */\n      dup4\n        /* \"Twitter.sol\":1536:1544  _content */\n      dup4\n        /* \"Twitter.sol\":1511:1523  _sendMessage */\n      tag_75\n        /* \"Twitter.sol\":1511:1545  _sendMessage(_from, _to, _content) */\n      jump\t// in\n    tag_166:\n        /* \"Twitter.sol\":1421:1553  function sendMessage(address _from,address _to, string memory _content) public {... */\n      pop\n      pop\n      pop\n      jump\t// out\n        /* \"Twitter.sol\":1285:1413  function sendMessage(string memory _content,address _to) public {... */\n    tag_72:\n        /* \"Twitter.sol\":1360:1404  _sendMessage(msg.sender,  _to ,   _content ) */\n      tag_168\n        /* \"Twitter.sol\":1373:1383  msg.sender */\n      caller\n        /* \"Twitter.sol\":1386:1389  _to */\n      dup3\n        /* \"Twitter.sol\":1394:1402  _content */\n      dup5\n        /* \"Twitter.sol\":1360:1372  _sendMessage */\n      tag_75\n        /* \"Twitter.sol\":1360:1404  _sendMessage(msg.sender,  _to ,   _content ) */\n      jump\t// in\n    tag_168:\n        /* \"Twitter.sol\":1285:1413  function sendMessage(string memory _content,address _to) public {... */\n      pop\n      pop\n      jump\t// out\n        /* \"Twitter.sol\":860:1068  function _sendMessage(address _from,address _to, string memory _content) public{... */\n    tag_75:\n        /* \"Twitter.sol\":950:962  conversation */\n      0x02\n        /* \"Twitter.sol\":950:969  conversation[_from] */\n      0x00\n        /* \"Twitter.sol\":963:968  _from */\n      dup5\n        /* \"Twitter.sol\":950:969  conversation[_from] */\n      0xffffffffffffffffffffffffffffffffffffffff\n      and\n      0xffffffffffffffffffffffffffffffffffffffff\n      and\n      dup2\n      mstore\n      0x20\n      add\n      swap1\n      dup2\n      mstore\n      0x20\n      add\n      0x00\n      keccak256\n        /* \"Twitter.sol\":975:1033  Message(nextMessageId, _content,_from,_to,block.timestamp) */\n      mload(0x40)\n      dup1\n      0xa0\n      add\n      0x40\n      mstore\n      dup1\n        /* \"Twitter.sol\":983:996  nextMessageId */\n      sload(0x06)\n        /* \"Twitter.sol\":975:1033  Message(nextMessageId, _content,_from,_to,block.timestamp) */\n      dup2\n      mstore\n      0x20\n      add\n        /* \"Twitter.sol\":998:1006  _content */\n      dup4\n        /* \"Twitter.sol\":975:1033  Message(nextMessageId, _content,_from,_to,block.timestamp) */\n      dup2\n      mstore\n      0x20\n      add\n        /* \"Twitter.sol\":1007:1012  _from */\n      dup6\n        /* \"Twitter.sol\":975:1033  Message(nextMessageId, _content,_from,_to,block.timestamp) */\n      0xffffffffffffffffffffffffffffffffffffffff\n      and\n      dup2\n      mstore\n      0x20\n      add\n        /* \"Twitter.sol\":1013:1016  _to */\n      dup5\n        /* \"Twitter.sol\":975:1033  Message(nextMessageId, _content,_from,_to,block.timestamp) */\n      0xffffffffffffffffffffffffffffffffffffffff\n      and\n      dup2\n      mstore\n      0x20\n      add\n        /* \"Twitter.sol\":1017:1032  block.timestamp */\n      timestamp\n        /* \"Twitter.sol\":975:1033  Message(nextMessageId, _content,_from,_to,block.timestamp) */\n      dup2\n      mstore\n      pop\n        /* \"Twitter.sol\":950:1034  conversation[_from].push(Message(nextMessageId, _content,_from,_to,block.timestamp)) */\n      swap1\n      dup1\n      0x01\n      dup2\n      sload\n      add\n      dup1\n      dup3\n      sstore\n      dup1\n      swap2\n      pop\n      pop\n      0x01\n      swap1\n      sub\n      swap1\n      0x00\n      mstore\n      keccak256(0x00, 0x20)\n      swap1\n      0x05\n      mul\n      add\n      0x00\n      swap1\n      swap2\n      swap1\n      swap2\n      swap1\n      swap2\n      pop\n      0x00\n      dup3\n      add\n      mload\n      dup2\n      0x00\n      add\n      sstore\n      0x20\n      dup3\n      add\n      mload\n      dup2\n      0x01\n      add\n      swap1\n      dup2\n      tag_171\n      swap2\n      swap1\n      tag_158\n      jump\t// in\n    tag_171:\n      pop\n      0x40\n      dup3\n      add\n      mload\n      dup2\n      0x02\n      add\n      exp(0x0100, 0x00)\n      dup2\n      sload\n      dup2\n      0xffffffffffffffffffffffffffffffffffffffff\n      mul\n      not\n      and\n      swap1\n      dup4\n      0xffffffffffffffffffffffffffffffffffffffff\n      and\n      mul\n      or\n      swap1\n      sstore\n      pop\n      0x60\n      dup3\n      add\n      mload\n      dup2\n      0x03\n      add\n      exp(0x0100, 0x00)\n      dup2\n      sload\n      dup2\n      0xffffffffffffffffffffffffffffffffffffffff\n      mul\n      not\n      and\n      swap1\n      dup4\n      0xffffffffffffffffffffffffffffffffffffffff\n      and\n      mul\n      or\n      swap1\n      sstore\n      pop\n      0x80\n      dup3\n      add\n      mload\n      dup2\n      0x04\n      add\n      sstore\n      pop\n      pop\n        /* \"Twitter.sol\":1045:1058  nextMessageId */\n      0x06\n      0x00\n        /* \"Twitter.sol\":1045:1060  nextMessageId++ */\n      dup2\n      sload\n      dup1\n      swap3\n      swap2\n      swap1\n      tag_172\n      swap1\n      tag_147\n      jump\t// in\n    tag_172:\n      swap2\n      swap1\n      pop\n      sstore\n      pop\n        /* \"Twitter.sol\":860:1068  function _sendMessage(address _from,address _to, string memory _content) public{... */\n      pop\n      pop\n      pop\n      jump\t// out\n        /* \"Twitter.sol\":1177:1277  function tweet(address _from,string memory _content) public{... */\n    tag_78:\n        /* \"Twitter.sol\":1247:1269  _tweet(_from,_content) */\n      tag_174\n        /* \"Twitter.sol\":1254:1259  _from */\n      dup3\n        /* \"Twitter.sol\":1260:1268  _content */\n      dup3\n        /* \"Twitter.sol\":1247:1253  _tweet */\n      tag_51\n        /* \"Twitter.sol\":1247:1269  _tweet(_from,_content) */\n      jump\t// in\n    tag_174:\n        /* \"Twitter.sol\":1177:1277  function tweet(address _from,string memory _content) public{... */\n      pop\n      pop\n      jump\t// out\n        /* \"Twitter.sol\":359:396  mapping (uint => Tweet) public tweets */\n    tag_81:\n      mstore(0x20, 0x00)\n      dup1\n      0x00\n      mstore\n      keccak256(0x00, 0x40)\n      0x00\n      swap2\n      pop\n      swap1\n      pop\n      dup1\n      0x00\n      add\n      sload\n      swap1\n      dup1\n      0x01\n      add\n      0x00\n      swap1\n      sload\n      swap1\n      0x0100\n      exp\n      swap1\n      div\n      0xffffffffffffffffffffffffffffffffffffffff\n      and\n      swap1\n      dup1\n      0x02\n      add\n      dup1\n      sload\n      tag_175\n      swap1\n      tag_114\n      jump\t// in\n    tag_175:\n      dup1\n      0x1f\n      add\n      0x20\n      dup1\n      swap2\n      div\n      mul\n      0x20\n      add\n      mload(0x40)\n      swap1\n      dup2\n      add\n      0x40\n      mstore\n      dup1\n      swap3\n      swap2\n      swap1\n      dup2\n      dup2\n      mstore\n      0x20\n      add\n      dup3\n      dup1\n      sload\n      tag_176\n      swap1\n      tag_114\n      jump\t// in\n    tag_176:\n      dup1\n      iszero\n      tag_177\n      jumpi\n      dup1\n      0x1f\n      lt\n      tag_178\n      jumpi\n      0x0100\n      dup1\n      dup4\n      sload\n      div\n      mul\n      dup4\n      mstore\n      swap2\n      0x20\n      add\n      swap2\n      jump(tag_177)\n    tag_178:\n      dup3\n      add\n      swap2\n      swap1\n      0x00\n      mstore\n      keccak256(0x00, 0x20)\n      swap1\n    tag_179:\n      dup2\n      sload\n      dup2\n      mstore\n      swap1\n      0x01\n      add\n      swap1\n      0x20\n      add\n      dup1\n      dup4\n      gt\n      tag_179\n      jumpi\n      dup3\n      swap1\n      sub\n      0x1f\n      and\n      dup3\n      add\n      swap2\n    tag_177:\n      pop\n      pop\n      pop\n      pop\n      pop\n      swap1\n      dup1\n      0x03\n      add\n      sload\n      swap1\n      pop\n      dup5\n      jump\t// out\n        /* \"Twitter.sol\":1076:1169  function tweet(string memory _content) public {... */\n    tag_87:\n        /* \"Twitter.sol\":1133:1161  _tweet(msg.sender, _content) */\n      tag_181\n        /* \"Twitter.sol\":1140:1150  msg.sender */\n      caller\n        /* \"Twitter.sol\":1152:1160  _content */\n      dup3\n        /* \"Twitter.sol\":1133:1139  _tweet */\n      tag_51\n        /* \"Twitter.sol\":1133:1161  _tweet(msg.sender, _content) */\n      jump\t// in\n    tag_181:\n        /* \"Twitter.sol\":1076:1169  function tweet(string memory _content) public {... */\n      pop\n      jump\t// out\n        /* \"Twitter.sol\":1792:1891  function allow(address _operator) public {... */\n    tag_90:\n        /* \"Twitter.sol\":1879:1883  true */\n      0x01\n        /* \"Twitter.sol\":1844:1853  operators */\n      0x03\n        /* \"Twitter.sol\":1844:1865  operators[msg.sender] */\n      0x00\n        /* \"Twitter.sol\":1854:1864  msg.sender */\n      caller\n        /* \"Twitter.sol\":1844:1865  operators[msg.sender] */\n      0xffffffffffffffffffffffffffffffffffffffff\n      and\n      0xffffffffffffffffffffffffffffffffffffffff\n      and\n      dup2\n      mstore\n      0x20\n      add\n      swap1\n      dup2\n      mstore\n      0x20\n      add\n      0x00\n      keccak256\n        /* \"Twitter.sol\":1844:1876  operators[msg.sender][_operator] */\n      0x00\n        /* \"Twitter.sol\":1866:1875  _operator */\n      dup4\n        /* \"Twitter.sol\":1844:1876  operators[msg.sender][_operator] */\n      0xffffffffffffffffffffffffffffffffffffffff\n      and\n      0xffffffffffffffffffffffffffffffffffffffff\n      and\n      dup2\n      mstore\n      0x20\n      add\n      swap1\n      dup2\n      mstore\n      0x20\n      add\n      0x00\n      keccak256\n      0x00\n        /* \"Twitter.sol\":1844:1883  operators[msg.sender][_operator] = true */\n      0x0100\n      exp\n      dup2\n      sload\n      dup2\n      0xff\n      mul\n      not\n      and\n      swap1\n      dup4\n      iszero\n      iszero\n      mul\n      or\n      swap1\n      sstore\n      pop\n        /* \"Twitter.sol\":1792:1891  function allow(address _operator) public {... */\n      pop\n      jump\t// out\n    tag_98:\n      mload(0x40)\n      dup1\n      0x80\n      add\n      0x40\n      mstore\n      dup1\n      0x00\n      dup2\n      mstore\n      0x20\n      add\n      and(0xffffffffffffffffffffffffffffffffffffffff, 0x00)\n      dup2\n      mstore\n      0x20\n      add\n      0x60\n      dup2\n      mstore\n      0x20\n      add\n      0x00\n      dup2\n      mstore\n      pop\n      swap1\n      jump\t// out\n        /* \"#utility.yul\":7:82   */\n    tag_183:\n        /* \"#utility.yul\":40:46   */\n      0x00\n        /* \"#utility.yul\":73:75   */\n      0x40\n        /* \"#utility.yul\":67:76   */\n      mload\n        /* \"#utility.yul\":57:76   */\n      swap1\n      pop\n        /* \"#utility.yul\":7:82   */\n      swap1\n      jump\t// out\n        /* \"#utility.yul\":88:205   */\n    tag_184:\n        /* \"#utility.yul\":197:198   */\n      0x00\n        /* \"#utility.yul\":194:195   */\n      dup1\n        /* \"#utility.yul\":187:199   */\n      revert\n        /* \"#utility.yul\":211:328   */\n    tag_185:\n        /* \"#utility.yul\":320:321   */\n      0x00\n        /* \"#utility.yul\":317:318   */\n      dup1\n        /* \"#utility.yul\":310:322   */\n      revert\n        /* \"#utility.yul\":334:460   */\n    tag_186:\n        /* \"#utility.yul\":371:378   */\n      0x00\n        /* \"#utility.yul\":411:453   */\n      0xffffffffffffffffffffffffffffffffffffffff\n        /* \"#utility.yul\":404:409   */\n      dup3\n        /* \"#utility.yul\":400:454   */\n      and\n        /* \"#utility.yul\":389:454   */\n      swap1\n      pop\n        /* \"#utility.yul\":334:460   */\n      swap2\n      swap1\n      pop\n      jump\t// out\n        /* \"#utility.yul\":466:562   */\n    tag_187:\n        /* \"#utility.yul\":503:510   */\n      0x00\n        /* \"#utility.yul\":532:556   */\n      tag_248\n        /* \"#utility.yul\":550:555   */\n      dup3\n        /* \"#utility.yul\":532:556   */\n      tag_186\n      jump\t// in\n    tag_248:\n        /* \"#utility.yul\":521:556   */\n      swap1\n      pop\n        /* \"#utility.yul\":466:562   */\n      swap2\n      swap1\n      pop\n      jump\t// out\n        /* \"#utility.yul\":568:690   */\n    tag_188:\n        /* \"#utility.yul\":641:665   */\n      tag_250\n        /* \"#utility.yul\":659:664   */\n      dup2\n        /* \"#utility.yul\":641:665   */\n      tag_187\n      jump\t// in\n    tag_250:\n        /* \"#utility.yul\":634:639   */\n      dup2\n        /* \"#utility.yul\":631:666   */\n      eq\n        /* \"#utility.yul\":621:684   */\n      tag_251\n      jumpi\n        /* \"#utility.yul\":680:681   */\n      0x00\n        /* \"#utility.yul\":677:678   */\n      dup1\n        /* \"#utility.yul\":670:682   */\n      revert\n        /* \"#utility.yul\":621:684   */\n    tag_251:\n        /* \"#utility.yul\":568:690   */\n      pop\n      jump\t// out\n        /* \"#utility.yul\":696:835   */\n    tag_189:\n        /* \"#utility.yul\":742:747   */\n      0x00\n        /* \"#utility.yul\":780:786   */\n      dup2\n        /* \"#utility.yul\":767:787   */\n      calldataload\n        /* \"#utility.yul\":758:787   */\n      swap1\n      pop\n        /* \"#utility.yul\":796:829   */\n      tag_253\n        /* \"#utility.yul\":823:828   */\n      dup2\n        /* \"#utility.yul\":796:829   */\n      tag_188\n      jump\t// in\n    tag_253:\n        /* \"#utility.yul\":696:835   */\n      swap3\n      swap2\n      pop\n      pop\n      jump\t// out\n        /* \"#utility.yul\":841:1315   */\n    tag_24:\n        /* \"#utility.yul\":909:915   */\n      0x00\n        /* \"#utility.yul\":917:923   */\n      dup1\n        /* \"#utility.yul\":966:968   */\n      0x40\n        /* \"#utility.yul\":954:963   */\n      dup4\n        /* \"#utility.yul\":945:952   */\n      dup6\n        /* \"#utility.yul\":941:964   */\n      sub\n        /* \"#utility.yul\":937:969   */\n      slt\n        /* \"#utility.yul\":934:1053   */\n      iszero\n      tag_255\n      jumpi\n        /* \"#utility.yul\":972:1051   */\n      tag_256\n      tag_184\n      jump\t// in\n    tag_256:\n        /* \"#utility.yul\":934:1053   */\n    tag_255:\n        /* \"#utility.yul\":1092:1093   */\n      0x00\n        /* \"#utility.yul\":1117:1170   */\n      tag_257\n        /* \"#utility.yul\":1162:1169   */\n      dup6\n        /* \"#utility.yul\":1153:1159   */\n      dup3\n        /* \"#utility.yul\":1142:1151   */\n      dup7\n        /* \"#utility.yul\":1138:1160   */\n      add\n        /* \"#utility.yul\":1117:1170   */\n      tag_189\n      jump\t// in\n    tag_257:\n        /* \"#utility.yul\":1107:1170   */\n      swap3\n      pop\n        /* \"#utility.yul\":1063:1180   */\n      pop\n        /* \"#utility.yul\":1219:1221   */\n      0x20\n        /* \"#utility.yul\":1245:1298   */\n      tag_258\n        /* \"#utility.yul\":1290:1297   */\n      dup6\n        /* \"#utility.yul\":1281:1287   */\n      dup3\n        /* \"#utility.yul\":1270:1279   */\n      dup7\n        /* \"#utility.yul\":1266:1288   */\n      add\n        /* \"#utility.yul\":1245:1298   */\n      tag_189\n      jump\t// in\n    tag_258:\n        /* \"#utility.yul\":1235:1298   */\n      swap2\n      pop\n        /* \"#utility.yul\":1190:1308   */\n      pop\n        /* \"#utility.yul\":841:1315   */\n      swap3\n      pop\n      swap3\n      swap1\n      pop\n      jump\t// out\n        /* \"#utility.yul\":1321:1411   */\n    tag_190:\n        /* \"#utility.yul\":1355:1362   */\n      0x00\n        /* \"#utility.yul\":1398:1403   */\n      dup2\n        /* \"#utility.yul\":1391:1404   */\n      iszero\n        /* \"#utility.yul\":1384:1405   */\n      iszero\n        /* \"#utility.yul\":1373:1405   */\n      swap1\n      pop\n        /* \"#utility.yul\":1321:1411   */\n      swap2\n      swap1\n      pop\n      jump\t// out\n        /* \"#utility.yul\":1417:1526   */\n    tag_191:\n        /* \"#utility.yul\":1498:1519   */\n      tag_261\n        /* \"#utility.yul\":1513:1518   */\n      dup2\n        /* \"#utility.yul\":1498:1519   */\n      tag_190\n      jump\t// in\n    tag_261:\n        /* \"#utility.yul\":1493:1496   */\n      dup3\n        /* \"#utility.yul\":1486:1520   */\n      mstore\n        /* \"#utility.yul\":1417:1526   */\n      pop\n      pop\n      jump\t// out\n        /* \"#utility.yul\":1532:1742   */\n    tag_27:\n        /* \"#utility.yul\":1619:1623   */\n      0x00\n        /* \"#utility.yul\":1657:1659   */\n      0x20\n        /* \"#utility.yul\":1646:1655   */\n      dup3\n        /* \"#utility.yul\":1642:1660   */\n      add\n        /* \"#utility.yul\":1634:1660   */\n      swap1\n      pop\n        /* \"#utility.yul\":1670:1735   */\n      tag_263\n        /* \"#utility.yul\":1732:1733   */\n      0x00\n        /* \"#utility.yul\":1721:1730   */\n      dup4\n        /* \"#utility.yul\":1717:1734   */\n      add\n        /* \"#utility.yul\":1708:1714   */\n      dup5\n        /* \"#utility.yul\":1670:1735   */\n      tag_191\n      jump\t// in\n    tag_263:\n        /* \"#utility.yul\":1532:1742   */\n      swap3\n      swap2\n      pop\n      pop\n      jump\t// out\n        /* \"#utility.yul\":1748:1825   */\n    tag_192:\n        /* \"#utility.yul\":1785:1792   */\n      0x00\n        /* \"#utility.yul\":1814:1819   */\n      dup2\n        /* \"#utility.yul\":1803:1819   */\n      swap1\n      pop\n        /* \"#utility.yul\":1748:1825   */\n      swap2\n      swap1\n      pop\n      jump\t// out\n        /* \"#utility.yul\":1831:1953   */\n    tag_193:\n        /* \"#utility.yul\":1904:1928   */\n      tag_266\n        /* \"#utility.yul\":1922:1927   */\n      dup2\n        /* \"#utility.yul\":1904:1928   */\n      tag_192\n      jump\t// in\n    tag_266:\n        /* \"#utility.yul\":1897:1902   */\n      dup2\n        /* \"#utility.yul\":1894:1929   */\n      eq\n        /* \"#utility.yul\":1884:1947   */\n      tag_267\n      jumpi\n        /* \"#utility.yul\":1943:1944   */\n      0x00\n        /* \"#utility.yul\":1940:1941   */\n      dup1\n        /* \"#utility.yul\":1933:1945   */\n      revert\n        /* \"#utility.yul\":1884:1947   */\n    tag_267:\n        /* \"#utility.yul\":1831:1953   */\n      pop\n      jump\t// out\n        /* \"#utility.yul\":1959:2098   */\n    tag_194:\n        /* \"#utility.yul\":2005:2010   */\n      0x00\n        /* \"#utility.yul\":2043:2049   */\n      dup2\n        /* \"#utility.yul\":2030:2050   */\n      calldataload\n        /* \"#utility.yul\":2021:2050   */\n      swap1\n      pop\n        /* \"#utility.yul\":2059:2092   */\n      tag_269\n        /* \"#utility.yul\":2086:2091   */\n      dup2\n        /* \"#utility.yul\":2059:2092   */\n      tag_193\n      jump\t// in\n    tag_269:\n        /* \"#utility.yul\":1959:2098   */\n      swap3\n      swap2\n      pop\n      pop\n      jump\t// out\n        /* \"#utility.yul\":2104:2578   */\n    tag_30:\n        /* \"#utility.yul\":2172:2178   */\n      0x00\n        /* \"#utility.yul\":2180:2186   */\n      dup1\n        /* \"#utility.yul\":2229:2231   */\n      0x40\n        /* \"#utility.yul\":2217:2226   */\n      dup4\n        /* \"#utility.yul\":2208:2215   */\n      dup6\n        /* \"#utility.yul\":2204:2227   */\n      sub\n        /* \"#utility.yul\":2200:2232   */\n      slt\n        /* \"#utility.yul\":2197:2316   */\n      iszero\n      tag_271\n      jumpi\n        /* \"#utility.yul\":2235:2314   */\n      tag_272\n      tag_184\n      jump\t// in\n    tag_272:\n        /* \"#utility.yul\":2197:2316   */\n    tag_271:\n        /* \"#utility.yul\":2355:2356   */\n      0x00\n        /* \"#utility.yul\":2380:2433   */\n      tag_273\n        /* \"#utility.yul\":2425:2432   */\n      dup6\n        /* \"#utility.yul\":2416:2422   */\n      dup3\n        /* \"#utility.yul\":2405:2414   */\n      dup7\n        /* \"#utility.yul\":2401:2423   */\n      add\n        /* \"#utility.yul\":2380:2433   */\n      tag_189\n      jump\t// in\n    tag_273:\n        /* \"#utility.yul\":2370:2433   */\n      swap3\n      pop\n        /* \"#utility.yul\":2326:2443   */\n      pop\n        /* \"#utility.yul\":2482:2484   */\n      0x20\n        /* \"#utility.yul\":2508:2561   */\n      tag_274\n        /* \"#utility.yul\":2553:2560   */\n      dup6\n        /* \"#utility.yul\":2544:2550   */\n      dup3\n        /* \"#utility.yul\":2533:2542   */\n      dup7\n        /* \"#utility.yul\":2529:2551   */\n      add\n        /* \"#utility.yul\":2508:2561   */\n      tag_194\n      jump\t// in\n    tag_274:\n        /* \"#utility.yul\":2498:2561   */\n      swap2\n      pop\n        /* \"#utility.yul\":2453:2571   */\n      pop\n        /* \"#utility.yul\":2104:2578   */\n      swap3\n      pop\n      swap3\n      swap1\n      pop\n      jump\t// out\n        /* \"#utility.yul\":2584:2719   */\n    tag_195:\n        /* \"#utility.yul\":2672:2678   */\n      0x00\n        /* \"#utility.yul\":2706:2711   */\n      dup2\n        /* \"#utility.yul\":2700:2712   */\n      mload\n        /* \"#utility.yul\":2690:2712   */\n      swap1\n      pop\n        /* \"#utility.yul\":2584:2719   */\n      swap2\n      swap1\n      pop\n      jump\t// out\n        /* \"#utility.yul\":2725:2930   */\n    tag_196:\n        /* \"#utility.yul\":2845:2856   */\n      0x00\n        /* \"#utility.yul\":2879:2885   */\n      dup3\n        /* \"#utility.yul\":2874:2877   */\n      dup3\n        /* \"#utility.yul\":2867:2886   */\n      mstore\n        /* \"#utility.yul\":2919:2923   */\n      0x20\n        /* \"#utility.yul\":2914:2917   */\n      dup3\n        /* \"#utility.yul\":2910:2924   */\n      add\n        /* \"#utility.yul\":2895:2924   */\n      swap1\n      pop\n        /* \"#utility.yul\":2725:2930   */\n      swap3\n      swap2\n      pop\n      pop\n      jump\t// out\n        /* \"#utility.yul\":2936:3089   */\n    tag_197:\n        /* \"#utility.yul\":3024:3028   */\n      0x00\n        /* \"#utility.yul\":3047:3050   */\n      dup2\n        /* \"#utility.yul\":3039:3050   */\n      swap1\n      pop\n        /* \"#utility.yul\":3077:3081   */\n      0x20\n        /* \"#utility.yul\":3072:3075   */\n      dup3\n        /* \"#utility.yul\":3068:3082   */\n      add\n        /* \"#utility.yul\":3060:3082   */\n      swap1\n      pop\n        /* \"#utility.yul\":2936:3089   */\n      swap2\n      swap1\n      pop\n      jump\t// out\n        /* \"#utility.yul\":3095:3203   */\n    tag_198:\n        /* \"#utility.yul\":3172:3196   */\n      tag_279\n        /* \"#utility.yul\":3190:3195   */\n      dup2\n        /* \"#utility.yul\":3172:3196   */\n      tag_192\n      jump\t// in\n    tag_279:\n        /* \"#utility.yul\":3167:3170   */\n      dup3\n        /* \"#utility.yul\":3160:3197   */\n      mstore\n        /* \"#utility.yul\":3095:3203   */\n      pop\n      pop\n      jump\t// out\n        /* \"#utility.yul\":3209:3317   */\n    tag_199:\n        /* \"#utility.yul\":3286:3310   */\n      tag_281\n        /* \"#utility.yul\":3304:3309   */\n      dup2\n        /* \"#utility.yul\":3286:3310   */\n      tag_187\n      jump\t// in\n    tag_281:\n        /* \"#utility.yul\":3281:3284   */\n      dup3\n        /* \"#utility.yul\":3274:3311   */\n      mstore\n        /* \"#utility.yul\":3209:3317   */\n      pop\n      pop\n      jump\t// out\n        /* \"#utility.yul\":3323:3422   */\n    tag_200:\n        /* \"#utility.yul\":3375:3381   */\n      0x00\n        /* \"#utility.yul\":3409:3414   */\n      dup2\n        /* \"#utility.yul\":3403:3415   */\n      mload\n        /* \"#utility.yul\":3393:3415   */\n      swap1\n      pop\n        /* \"#utility.yul\":3323:3422   */\n      swap2\n      swap1\n      pop\n      jump\t// out\n        /* \"#utility.yul\":3428:3587   */\n    tag_201:\n        /* \"#utility.yul\":3502:3513   */\n      0x00\n        /* \"#utility.yul\":3536:3542   */\n      dup3\n        /* \"#utility.yul\":3531:3534   */\n      dup3\n        /* \"#utility.yul\":3524:3543   */\n      mstore\n        /* \"#utility.yul\":3576:3580   */\n      0x20\n        /* \"#utility.yul\":3571:3574   */\n      dup3\n        /* \"#utility.yul\":3567:3581   */\n      add\n        /* \"#utility.yul\":3552:3581   */\n      swap1\n      pop\n        /* \"#utility.yul\":3428:3587   */\n      swap3\n      swap2\n      pop\n      pop\n      jump\t// out\n        /* \"#utility.yul\":3593:3732   */\n    tag_202:\n        /* \"#utility.yul\":3682:3688   */\n      dup3\n        /* \"#utility.yul\":3677:3680   */\n      dup2\n        /* \"#utility.yul\":3672:3675   */\n      dup4\n        /* \"#utility.yul\":3666:3689   */\n      mcopy\n        /* \"#utility.yul\":3723:3724   */\n      0x00\n        /* \"#utility.yul\":3714:3720   */\n      dup4\n        /* \"#utility.yul\":3709:3712   */\n      dup4\n        /* \"#utility.yul\":3705:3721   */\n      add\n        /* \"#utility.yul\":3698:3725   */\n      mstore\n        /* \"#utility.yul\":3593:3732   */\n      pop\n      pop\n      pop\n      jump\t// out\n        /* \"#utility.yul\":3738:3840   */\n    tag_203:\n        /* \"#utility.yul\":3779:3785   */\n      0x00\n        /* \"#utility.yul\":3830:3832   */\n      0x1f\n        /* \"#utility.yul\":3826:3833   */\n      not\n        /* \"#utility.yul\":3821:3823   */\n      0x1f\n        /* \"#utility.yul\":3814:3819   */\n      dup4\n        /* \"#utility.yul\":3810:3824   */\n      add\n        /* \"#utility.yul\":3806:3834   */\n      and\n        /* \"#utility.yul\":3796:3834   */\n      swap1\n      pop\n        /* \"#utility.yul\":3738:3840   */\n      swap2\n      swap1\n      pop\n      jump\t// out\n        /* \"#utility.yul\":3846:4203   */\n    tag_204:\n        /* \"#utility.yul\":3924:3927   */\n      0x00\n        /* \"#utility.yul\":3952:3991   */\n      tag_287\n        /* \"#utility.yul\":3985:3990   */\n      dup3\n        /* \"#utility.yul\":3952:3991   */\n      tag_200\n      jump\t// in\n    tag_287:\n        /* \"#utility.yul\":4007:4068   */\n      tag_288\n        /* \"#utility.yul\":4061:4067   */\n      dup2\n        /* \"#utility.yul\":4056:4059   */\n      dup6\n        /* \"#utility.yul\":4007:4068   */\n      tag_201\n      jump\t// in\n    tag_288:\n        /* \"#utility.yul\":4000:4068   */\n      swap4\n      pop\n        /* \"#utility.yul\":4077:4142   */\n      tag_289\n        /* \"#utility.yul\":4135:4141   */\n      dup2\n        /* \"#utility.yul\":4130:4133   */\n      dup6\n        /* \"#utility.yul\":4123:4127   */\n      0x20\n        /* \"#utility.yul\":4116:4121   */\n      dup7\n        /* \"#utility.yul\":4112:4128   */\n      add\n        /* \"#utility.yul\":4077:4142   */\n      tag_202\n      jump\t// in\n    tag_289:\n        /* \"#utility.yul\":4167:4196   */\n      tag_290\n        /* \"#utility.yul\":4189:4195   */\n      dup2\n        /* \"#utility.yul\":4167:4196   */\n      tag_203\n      jump\t// in\n    tag_290:\n        /* \"#utility.yul\":4162:4165   */\n      dup5\n        /* \"#utility.yul\":4158:4197   */\n      add\n        /* \"#utility.yul\":4151:4197   */\n      swap2\n      pop\n        /* \"#utility.yul\":3928:4203   */\n      pop\n        /* \"#utility.yul\":3846:4203   */\n      swap3\n      swap2\n      pop\n      pop\n      jump\t// out\n        /* \"#utility.yul\":4261:5204   */\n    tag_205:\n        /* \"#utility.yul\":4362:4365   */\n      0x00\n        /* \"#utility.yul\":4398:4402   */\n      0x80\n        /* \"#utility.yul\":4393:4396   */\n      dup4\n        /* \"#utility.yul\":4389:4403   */\n      add\n        /* \"#utility.yul\":4483:4487   */\n      0x00\n        /* \"#utility.yul\":4476:4481   */\n      dup4\n        /* \"#utility.yul\":4472:4488   */\n      add\n        /* \"#utility.yul\":4466:4489   */\n      mload\n        /* \"#utility.yul\":4502:4565   */\n      tag_292\n        /* \"#utility.yul\":4559:4563   */\n      0x00\n        /* \"#utility.yul\":4554:4557   */\n      dup7\n        /* \"#utility.yul\":4550:4564   */\n      add\n        /* \"#utility.yul\":4536:4548   */\n      dup3\n        /* \"#utility.yul\":4502:4565   */\n      tag_198\n      jump\t// in\n    tag_292:\n        /* \"#utility.yul\":4413:4575   */\n      pop\n        /* \"#utility.yul\":4659:4663   */\n      0x20\n        /* \"#utility.yul\":4652:4657   */\n      dup4\n        /* \"#utility.yul\":4648:4664   */\n      add\n        /* \"#utility.yul\":4642:4665   */\n      mload\n        /* \"#utility.yul\":4678:4741   */\n      tag_293\n        /* \"#utility.yul\":4735:4739   */\n      0x20\n        /* \"#utility.yul\":4730:4733   */\n      dup7\n        /* \"#utility.yul\":4726:4740   */\n      add\n        /* \"#utility.yul\":4712:4724   */\n      dup3\n        /* \"#utility.yul\":4678:4741   */\n      tag_199\n      jump\t// in\n    tag_293:\n        /* \"#utility.yul\":4585:4751   */\n      pop\n        /* \"#utility.yul\":4836:4840   */\n      0x40\n        /* \"#utility.yul\":4829:4834   */\n      dup4\n        /* \"#utility.yul\":4825:4841   */\n      add\n        /* \"#utility.yul\":4819:4842   */\n      mload\n        /* \"#utility.yul\":4889:4892   */\n      dup5\n        /* \"#utility.yul\":4883:4887   */\n      dup3\n        /* \"#utility.yul\":4879:4893   */\n      sub\n        /* \"#utility.yul\":4872:4876   */\n      0x40\n        /* \"#utility.yul\":4867:4870   */\n      dup7\n        /* \"#utility.yul\":4863:4877   */\n      add\n        /* \"#utility.yul\":4856:4894   */\n      mstore\n        /* \"#utility.yul\":4915:4988   */\n      tag_294\n        /* \"#utility.yul\":4983:4987   */\n      dup3\n        /* \"#utility.yul\":4969:4981   */\n      dup3\n        /* \"#utility.yul\":4915:4988   */\n      tag_204\n      jump\t// in\n    tag_294:\n        /* \"#utility.yul\":4907:4988   */\n      swap2\n      pop\n        /* \"#utility.yul\":4761:4999   */\n      pop\n        /* \"#utility.yul\":5085:5089   */\n      0x60\n        /* \"#utility.yul\":5078:5083   */\n      dup4\n        /* \"#utility.yul\":5074:5090   */\n      add\n        /* \"#utility.yul\":5068:5091   */\n      mload\n        /* \"#utility.yul\":5104:5167   */\n      tag_295\n        /* \"#utility.yul\":5161:5165   */\n      0x60\n        /* \"#utility.yul\":5156:5159   */\n      dup7\n        /* \"#utility.yul\":5152:5166   */\n      add\n        /* \"#utility.yul\":5138:5150   */\n      dup3\n        /* \"#utility.yul\":5104:5167   */\n      tag_198\n      jump\t// in\n    tag_295:\n        /* \"#utility.yul\":5009:5177   */\n      pop\n        /* \"#utility.yul\":5194:5198   */\n      dup1\n        /* \"#utility.yul\":5187:5198   */\n      swap2\n      pop\n        /* \"#utility.yul\":4367:5204   */\n      pop\n        /* \"#utility.yul\":4261:5204   */\n      swap3\n      swap2\n      pop\n      pop\n      jump\t// out\n        /* \"#utility.yul\":5210:5450   */\n    tag_206:\n        /* \"#utility.yul\":5321:5331   */\n      0x00\n        /* \"#utility.yul\":5356:5444   */\n      tag_297\n        /* \"#utility.yul\":5440:5443   */\n      dup4\n        /* \"#utility.yul\":5432:5438   */\n      dup4\n        /* \"#utility.yul\":5356:5444   */\n      tag_205\n      jump\t// in\n    tag_297:\n        /* \"#utility.yul\":5342:5444   */\n      swap1\n      pop\n        /* \"#utility.yul\":5210:5450   */\n      swap3\n      swap2\n      pop\n      pop\n      jump\t// out\n        /* \"#utility.yul\":5456:5590   */\n    tag_207:\n        /* \"#utility.yul\":5547:5551   */\n      0x00\n        /* \"#utility.yul\":5579:5583   */\n      0x20\n        /* \"#utility.yul\":5574:5577   */\n      dup3\n        /* \"#utility.yul\":5570:5584   */\n      add\n        /* \"#utility.yul\":5562:5584   */\n      swap1\n      pop\n        /* \"#utility.yul\":5456:5590   */\n      swap2\n      swap1\n      pop\n      jump\t// out\n        /* \"#utility.yul\":5652:6731   */\n    tag_208:\n        /* \"#utility.yul\":5813:5816   */\n      0x00\n        /* \"#utility.yul\":5842:5917   */\n      tag_300\n        /* \"#utility.yul\":5911:5916   */\n      dup3\n        /* \"#utility.yul\":5842:5917   */\n      tag_195\n      jump\t// in\n    tag_300:\n        /* \"#utility.yul\":5933:6040   */\n      tag_301\n        /* \"#utility.yul\":6033:6039   */\n      dup2\n        /* \"#utility.yul\":6028:6031   */\n      dup6\n        /* \"#utility.yul\":5933:6040   */\n      tag_196\n      jump\t// in\n    tag_301:\n        /* \"#utility.yul\":5926:6040   */\n      swap4\n      pop\n        /* \"#utility.yul\":6066:6069   */\n      dup4\n        /* \"#utility.yul\":6111:6115   */\n      0x20\n        /* \"#utility.yul\":6103:6109   */\n      dup3\n        /* \"#utility.yul\":6099:6116   */\n      mul\n        /* \"#utility.yul\":6094:6097   */\n      dup6\n        /* \"#utility.yul\":6090:6117   */\n      add\n        /* \"#utility.yul\":6141:6218   */\n      tag_302\n        /* \"#utility.yul\":6212:6217   */\n      dup6\n        /* \"#utility.yul\":6141:6218   */\n      tag_197\n      jump\t// in\n    tag_302:\n        /* \"#utility.yul\":6241:6248   */\n      dup1\n        /* \"#utility.yul\":6272:6273   */\n      0x00\n        /* \"#utility.yul\":6257:6686   */\n    tag_303:\n        /* \"#utility.yul\":6282:6288   */\n      dup6\n        /* \"#utility.yul\":6279:6280   */\n      dup2\n        /* \"#utility.yul\":6276:6289   */\n      lt\n        /* \"#utility.yul\":6257:6686   */\n      iszero\n      tag_305\n      jumpi\n        /* \"#utility.yul\":6353:6362   */\n      dup5\n        /* \"#utility.yul\":6347:6351   */\n      dup5\n        /* \"#utility.yul\":6343:6363   */\n      sub\n        /* \"#utility.yul\":6338:6341   */\n      dup10\n        /* \"#utility.yul\":6331:6364   */\n      mstore\n        /* \"#utility.yul\":6404:6410   */\n      dup2\n        /* \"#utility.yul\":6398:6411   */\n      mload\n        /* \"#utility.yul\":6432:6538   */\n      tag_306\n        /* \"#utility.yul\":6533:6537   */\n      dup6\n        /* \"#utility.yul\":6518:6531   */\n      dup3\n        /* \"#utility.yul\":6432:6538   */\n      tag_206\n      jump\t// in\n    tag_306:\n        /* \"#utility.yul\":6424:6538   */\n      swap5\n      pop\n        /* \"#utility.yul\":6561:6642   */\n      tag_307\n        /* \"#utility.yul\":6635:6641   */\n      dup4\n        /* \"#utility.yul\":6561:6642   */\n      tag_207\n      jump\t// in\n    tag_307:\n        /* \"#utility.yul\":6551:6642   */\n      swap3\n      pop\n        /* \"#utility.yul\":6671:6675   */\n      0x20\n        /* \"#utility.yul\":6666:6669   */\n      dup11\n        /* \"#utility.yul\":6662:6676   */\n      add\n        /* \"#utility.yul\":6655:6676   */\n      swap10\n      pop\n        /* \"#utility.yul\":6317:6686   */\n      pop\n        /* \"#utility.yul\":6304:6305   */\n      0x01\n        /* \"#utility.yul\":6301:6302   */\n      dup2\n        /* \"#utility.yul\":6297:6306   */\n      add\n        /* \"#utility.yul\":6292:6306   */\n      swap1\n      pop\n        /* \"#utility.yul\":6257:6686   */\n      jump(tag_303)\n    tag_305:\n        /* \"#utility.yul\":6261:6275   */\n      pop\n        /* \"#utility.yul\":6702:6706   */\n      dup3\n        /* \"#utility.yul\":6695:6706   */\n      swap8\n      pop\n        /* \"#utility.yul\":6722:6725   */\n      dup8\n        /* \"#utility.yul\":6715:6725   */\n      swap6\n      pop\n        /* \"#utility.yul\":5818:6731   */\n      pop\n      pop\n      pop\n      pop\n      pop\n        /* \"#utility.yul\":5652:6731   */\n      swap3\n      swap2\n      pop\n      pop\n      jump\t// out\n        /* \"#utility.yul\":6737:7194   */\n    tag_33:\n        /* \"#utility.yul\":6922:6926   */\n      0x00\n        /* \"#utility.yul\":6960:6962   */\n      0x20\n        /* \"#utility.yul\":6949:6958   */\n      dup3\n        /* \"#utility.yul\":6945:6963   */\n      add\n        /* \"#utility.yul\":6937:6963   */\n      swap1\n      pop\n        /* \"#utility.yul\":7009:7018   */\n      dup2\n        /* \"#utility.yul\":7003:7007   */\n      dup2\n        /* \"#utility.yul\":6999:7019   */\n      sub\n        /* \"#utility.yul\":6995:6996   */\n      0x00\n        /* \"#utility.yul\":6984:6993   */\n      dup4\n        /* \"#utility.yul\":6980:6997   */\n      add\n        /* \"#utility.yul\":6973:7020   */\n      mstore\n        /* \"#utility.yul\":7037:7187   */\n      tag_309\n        /* \"#utility.yul\":7182:7186   */\n      dup2\n        /* \"#utility.yul\":7173:7179   */\n      dup5\n        /* \"#utility.yul\":7037:7187   */\n      tag_208\n      jump\t// in\n    tag_309:\n        /* \"#utility.yul\":7029:7187   */\n      swap1\n      pop\n        /* \"#utility.yul\":6737:7194   */\n      swap3\n      swap2\n      pop\n      pop\n      jump\t// out\n        /* \"#utility.yul\":7200:7529   */\n    tag_36:\n        /* \"#utility.yul\":7259:7265   */\n      0x00\n        /* \"#utility.yul\":7308:7310   */\n      0x20\n        /* \"#utility.yul\":7296:7305   */\n      dup3\n        /* \"#utility.yul\":7287:7294   */\n      dup5\n        /* \"#utility.yul\":7283:7306   */\n      sub\n        /* \"#utility.yul\":7279:7311   */\n      slt\n        /* \"#utility.yul\":7276:7395   */\n      iszero\n      tag_311\n      jumpi\n        /* \"#utility.yul\":7314:7393   */\n      tag_312\n      tag_184\n      jump\t// in\n    tag_312:\n        /* \"#utility.yul\":7276:7395   */\n    tag_311:\n        /* \"#utility.yul\":7434:7435   */\n      0x00\n        /* \"#utility.yul\":7459:7512   */\n      tag_313\n        /* \"#utility.yul\":7504:7511   */\n      dup5\n        /* \"#utility.yul\":7495:7501   */\n      dup3\n        /* \"#utility.yul\":7484:7493   */\n      dup6\n        /* \"#utility.yul\":7480:7502   */\n      add\n        /* \"#utility.yul\":7459:7512   */\n      tag_189\n      jump\t// in\n    tag_313:\n        /* \"#utility.yul\":7449:7512   */\n      swap2\n      pop\n        /* \"#utility.yul\":7405:7522   */\n      pop\n        /* \"#utility.yul\":7200:7529   */\n      swap3\n      swap2\n      pop\n      pop\n      jump\t// out\n        /* \"#utility.yul\":7535:7864   */\n    tag_40:\n        /* \"#utility.yul\":7594:7600   */\n      0x00\n        /* \"#utility.yul\":7643:7645   */\n      0x20\n        /* \"#utility.yul\":7631:7640   */\n      dup3\n        /* \"#utility.yul\":7622:7629   */\n      dup5\n        /* \"#utility.yul\":7618:7641   */\n      sub\n        /* \"#utility.yul\":7614:7646   */\n      slt\n        /* \"#utility.yul\":7611:7730   */\n      iszero\n      tag_315\n      jumpi\n        /* \"#utility.yul\":7649:7728   */\n      tag_316\n      tag_184\n      jump\t// in\n    tag_316:\n        /* \"#utility.yul\":7611:7730   */\n    tag_315:\n        /* \"#utility.yul\":7769:7770   */\n      0x00\n        /* \"#utility.yul\":7794:7847   */\n      tag_317\n        /* \"#utility.yul\":7839:7846   */\n      dup5\n        /* \"#utility.yul\":7830:7836   */\n      dup3\n        /* \"#utility.yul\":7819:7828   */\n      dup6\n        /* \"#utility.yul\":7815:7837   */\n      add\n        /* \"#utility.yul\":7794:7847   */\n      tag_194\n      jump\t// in\n    tag_317:\n        /* \"#utility.yul\":7784:7847   */\n      swap2\n      pop\n        /* \"#utility.yul\":7740:7857   */\n      pop\n        /* \"#utility.yul\":7535:7864   */\n      swap3\n      swap2\n      pop\n      pop\n      jump\t// out\n        /* \"#utility.yul\":7870:7988   */\n    tag_209:\n        /* \"#utility.yul\":7957:7981   */\n      tag_319\n        /* \"#utility.yul\":7975:7980   */\n      dup2\n        /* \"#utility.yul\":7957:7981   */\n      tag_192\n      jump\t// in\n    tag_319:\n        /* \"#utility.yul\":7952:7955   */\n      dup3\n        /* \"#utility.yul\":7945:7982   */\n      mstore\n        /* \"#utility.yul\":7870:7988   */\n      pop\n      pop\n      jump\t// out\n        /* \"#utility.yul\":7994:8163   */\n    tag_210:\n        /* \"#utility.yul\":8078:8089   */\n      0x00\n        /* \"#utility.yul\":8112:8118   */\n      dup3\n        /* \"#utility.yul\":8107:8110   */\n      dup3\n        /* \"#utility.yul\":8100:8119   */\n      mstore\n        /* \"#utility.yul\":8152:8156   */\n      0x20\n        /* \"#utility.yul\":8147:8150   */\n      dup3\n        /* \"#utility.yul\":8143:8157   */\n      add\n        /* \"#utility.yul\":8128:8157   */\n      swap1\n      pop\n        /* \"#utility.yul\":7994:8163   */\n      swap3\n      swap2\n      pop\n      pop\n      jump\t// out\n        /* \"#utility.yul\":8169:8546   */\n    tag_211:\n        /* \"#utility.yul\":8257:8260   */\n      0x00\n        /* \"#utility.yul\":8285:8324   */\n      tag_322\n        /* \"#utility.yul\":8318:8323   */\n      dup3\n        /* \"#utility.yul\":8285:8324   */\n      tag_200\n      jump\t// in\n    tag_322:\n        /* \"#utility.yul\":8340:8411   */\n      tag_323\n        /* \"#utility.yul\":8404:8410   */\n      dup2\n        /* \"#utility.yul\":8399:8402   */\n      dup6\n        /* \"#utility.yul\":8340:8411   */\n      tag_210\n      jump\t// in\n    tag_323:\n        /* \"#utility.yul\":8333:8411   */\n      swap4\n      pop\n        /* \"#utility.yul\":8420:8485   */\n      tag_324\n        /* \"#utility.yul\":8478:8484   */\n      dup2\n        /* \"#utility.yul\":8473:8476   */\n      dup6\n        /* \"#utility.yul\":8466:8470   */\n      0x20\n        /* \"#utility.yul\":8459:8464   */\n      dup7\n        /* \"#utility.yul\":8455:8471   */\n      add\n        /* \"#utility.yul\":8420:8485   */\n      tag_202\n      jump\t// in\n    tag_324:\n        /* \"#utility.yul\":8510:8539   */\n      tag_325\n        /* \"#utility.yul\":8532:8538   */\n      dup2\n        /* \"#utility.yul\":8510:8539   */\n      tag_203\n      jump\t// in\n    tag_325:\n        /* \"#utility.yul\":8505:8508   */\n      dup5\n        /* \"#utility.yul\":8501:8540   */\n      add\n        /* \"#utility.yul\":8494:8540   */\n      swap2\n      pop\n        /* \"#utility.yul\":8261:8546   */\n      pop\n        /* \"#utility.yul\":8169:8546   */\n      swap3\n      swap2\n      pop\n      pop\n      jump\t// out\n        /* \"#utility.yul\":8552:8670   */\n    tag_212:\n        /* \"#utility.yul\":8639:8663   */\n      tag_327\n        /* \"#utility.yul\":8657:8662   */\n      dup2\n        /* \"#utility.yul\":8639:8663   */\n      tag_187\n      jump\t// in\n    tag_327:\n        /* \"#utility.yul\":8634:8637   */\n      dup3\n        /* \"#utility.yul\":8627:8664   */\n      mstore\n        /* \"#utility.yul\":8552:8670   */\n      pop\n      pop\n      jump\t// out\n        /* \"#utility.yul\":8676:9431   */\n    tag_47:\n        /* \"#utility.yul\":8901:8905   */\n      0x00\n        /* \"#utility.yul\":8939:8942   */\n      0xa0\n        /* \"#utility.yul\":8928:8937   */\n      dup3\n        /* \"#utility.yul\":8924:8943   */\n      add\n        /* \"#utility.yul\":8916:8943   */\n      swap1\n      pop\n        /* \"#utility.yul\":8953:9024   */\n      tag_329\n        /* \"#utility.yul\":9021:9022   */\n      0x00\n        /* \"#utility.yul\":9010:9019   */\n      dup4\n        /* \"#utility.yul\":9006:9023   */\n      add\n        /* \"#utility.yul\":8997:9003   */\n      dup9\n        /* \"#utility.yul\":8953:9024   */\n      tag_209\n      jump\t// in\n    tag_329:\n        /* \"#utility.yul\":9071:9080   */\n      dup2\n        /* \"#utility.yul\":9065:9069   */\n      dup2\n        /* \"#utility.yul\":9061:9081   */\n      sub\n        /* \"#utility.yul\":9056:9058   */\n      0x20\n        /* \"#utility.yul\":9045:9054   */\n      dup4\n        /* \"#utility.yul\":9041:9059   */\n      add\n        /* \"#utility.yul\":9034:9082   */\n      mstore\n        /* \"#utility.yul\":9099:9177   */\n      tag_330\n        /* \"#utility.yul\":9172:9176   */\n      dup2\n        /* \"#utility.yul\":9163:9169   */\n      dup8\n        /* \"#utility.yul\":9099:9177   */\n      tag_211\n      jump\t// in\n    tag_330:\n        /* \"#utility.yul\":9091:9177   */\n      swap1\n      pop\n        /* \"#utility.yul\":9187:9259   */\n      tag_331\n        /* \"#utility.yul\":9255:9257   */\n      0x40\n        /* \"#utility.yul\":9244:9253   */\n      dup4\n        /* \"#utility.yul\":9240:9258   */\n      add\n        /* \"#utility.yul\":9231:9237   */\n      dup7\n        /* \"#utility.yul\":9187:9259   */\n      tag_212\n      jump\t// in\n    tag_331:\n        /* \"#utility.yul\":9269:9341   */\n      tag_332\n        /* \"#utility.yul\":9337:9339   */\n      0x60\n        /* \"#utility.yul\":9326:9335   */\n      dup4\n        /* \"#utility.yul\":9322:9340   */\n      add\n        /* \"#utility.yul\":9313:9319   */\n      dup6\n        /* \"#utility.yul\":9269:9341   */\n      tag_212\n      jump\t// in\n    tag_332:\n        /* \"#utility.yul\":9351:9424   */\n      tag_333\n        /* \"#utility.yul\":9419:9422   */\n      0x80\n        /* \"#utility.yul\":9408:9417   */\n      dup4\n        /* \"#utility.yul\":9404:9423   */\n      add\n        /* \"#utility.yul\":9395:9401   */\n      dup5\n        /* \"#utility.yul\":9351:9424   */\n      tag_209\n      jump\t// in\n    tag_333:\n        /* \"#utility.yul\":8676:9431   */\n      swap7\n      swap6\n      pop\n      pop\n      pop\n      pop\n      pop\n      pop\n      jump\t// out\n        /* \"#utility.yul\":9437:9554   */\n    tag_213:\n        /* \"#utility.yul\":9546:9547   */\n      0x00\n        /* \"#utility.yul\":9543:9544   */\n      dup1\n        /* \"#utility.yul\":9536:9548   */\n      revert\n        /* \"#utility.yul\":9560:9677   */\n    tag_214:\n        /* \"#utility.yul\":9669:9670   */\n      0x00\n        /* \"#utility.yul\":9666:9667   */\n      dup1\n        /* \"#utility.yul\":9659:9671   */\n      revert\n        /* \"#utility.yul\":9683:9863   */\n    tag_94:\n        /* \"#utility.yul\":9731:9808   */\n      0x4e487b7100000000000000000000000000000000000000000000000000000000\n        /* \"#utility.yul\":9728:9729   */\n      0x00\n        /* \"#utility.yul\":9721:9809   */\n      mstore\n        /* \"#utility.yul\":9828:9832   */\n      0x41\n        /* \"#utility.yul\":9825:9826   */\n      0x04\n        /* \"#utility.yul\":9818:9833   */\n      mstore\n        /* \"#utility.yul\":9852:9856   */\n      0x24\n        /* \"#utility.yul\":9849:9850   */\n      0x00\n        /* \"#utility.yul\":9842:9857   */\n      revert\n        /* \"#utility.yul\":9869:10150   */\n    tag_215:\n        /* \"#utility.yul\":9952:9979   */\n      tag_338\n        /* \"#utility.yul\":9974:9978   */\n      dup3\n        /* \"#utility.yul\":9952:9979   */\n      tag_203\n      jump\t// in\n    tag_338:\n        /* \"#utility.yul\":9944:9950   */\n      dup2\n        /* \"#utility.yul\":9940:9980   */\n      add\n        /* \"#utility.yul\":10082:10088   */\n      dup2\n        /* \"#utility.yul\":10070:10080   */\n      dup2\n        /* \"#utility.yul\":10067:10089   */\n      lt\n        /* \"#utility.yul\":10046:10064   */\n      0xffffffffffffffff\n        /* \"#utility.yul\":10034:10044   */\n      dup3\n        /* \"#utility.yul\":10031:10065   */\n      gt\n        /* \"#utility.yul\":10028:10090   */\n      or\n        /* \"#utility.yul\":10025:10113   */\n      iszero\n      tag_339\n      jumpi\n        /* \"#utility.yul\":10093:10111   */\n      tag_340\n      tag_94\n      jump\t// in\n    tag_340:\n        /* \"#utility.yul\":10025:10113   */\n    tag_339:\n        /* \"#utility.yul\":10133:10143   */\n      dup1\n        /* \"#utility.yul\":10129:10131   */\n      0x40\n        /* \"#utility.yul\":10122:10144   */\n      mstore\n        /* \"#utility.yul\":9912:10150   */\n      pop\n        /* \"#utility.yul\":9869:10150   */\n      pop\n      pop\n      jump\t// out\n        /* \"#utility.yul\":10156:10285   */\n    tag_216:\n        /* \"#utility.yul\":10190:10196   */\n      0x00\n        /* \"#utility.yul\":10217:10237   */\n      tag_342\n      tag_183\n      jump\t// in\n    tag_342:\n        /* \"#utility.yul\":10207:10237   */\n      swap1\n      pop\n        /* \"#utility.yul\":10246:10279   */\n      tag_343\n        /* \"#utility.yul\":10274:10278   */\n      dup3\n        /* \"#utility.yul\":10266:10272   */\n      dup3\n        /* \"#utility.yul\":10246:10279   */\n      tag_215\n      jump\t// in\n    tag_343:\n        /* \"#utility.yul\":10156:10285   */\n      swap2\n      swap1\n      pop\n      jump\t// out\n        /* \"#utility.yul\":10291:10599   */\n    tag_217:\n        /* \"#utility.yul\":10353:10357   */\n      0x00\n        /* \"#utility.yul\":10443:10461   */\n      0xffffffffffffffff\n        /* \"#utility.yul\":10435:10441   */\n      dup3\n        /* \"#utility.yul\":10432:10462   */\n      gt\n        /* \"#utility.yul\":10429:10485   */\n      iszero\n      tag_345\n      jumpi\n        /* \"#utility.yul\":10465:10483   */\n      tag_346\n      tag_94\n      jump\t// in\n    tag_346:\n        /* \"#utility.yul\":10429:10485   */\n    tag_345:\n        /* \"#utility.yul\":10503:10532   */\n      tag_347\n        /* \"#utility.yul\":10525:10531   */\n      dup3\n        /* \"#utility.yul\":10503:10532   */\n      tag_203\n      jump\t// in\n    tag_347:\n        /* \"#utility.yul\":10495:10532   */\n      swap1\n      pop\n        /* \"#utility.yul\":10587:10591   */\n      0x20\n        /* \"#utility.yul\":10581:10585   */\n      dup2\n        /* \"#utility.yul\":10577:10592   */\n      add\n        /* \"#utility.yul\":10569:10592   */\n      swap1\n      pop\n        /* \"#utility.yul\":10291:10599   */\n      swap2\n      swap1\n      pop\n      jump\t// out\n        /* \"#utility.yul\":10605:10753   */\n    tag_218:\n        /* \"#utility.yul\":10703:10709   */\n      dup3\n        /* \"#utility.yul\":10698:10701   */\n      dup2\n        /* \"#utility.yul\":10693:10696   */\n      dup4\n        /* \"#utility.yul\":10680:10710   */\n      calldatacopy\n        /* \"#utility.yul\":10744:10745   */\n      0x00\n        /* \"#utility.yul\":10735:10741   */\n      dup4\n        /* \"#utility.yul\":10730:10733   */\n      dup4\n        /* \"#utility.yul\":10726:10742   */\n      add\n        /* \"#utility.yul\":10719:10746   */\n      mstore\n        /* \"#utility.yul\":10605:10753   */\n      pop\n      pop\n      pop\n      jump\t// out\n        /* \"#utility.yul\":10759:11184   */\n    tag_219:\n        /* \"#utility.yul\":10837:10842   */\n      0x00\n        /* \"#utility.yul\":10862:10928   */\n      tag_350\n        /* \"#utility.yul\":10878:10927   */\n      tag_351\n        /* \"#utility.yul\":10920:10926   */\n      dup5\n        /* \"#utility.yul\":10878:10927   */\n      tag_217\n      jump\t// in\n    tag_351:\n        /* \"#utility.yul\":10862:10928   */\n      tag_216\n      jump\t// in\n    tag_350:\n        /* \"#utility.yul\":10853:10928   */\n      swap1\n      pop\n        /* \"#utility.yul\":10951:10957   */\n      dup3\n        /* \"#utility.yul\":10944:10949   */\n      dup2\n        /* \"#utility.yul\":10937:10958   */\n      mstore\n        /* \"#utility.yul\":10989:10993   */\n      0x20\n        /* \"#utility.yul\":10982:10987   */\n      dup2\n        /* \"#utility.yul\":10978:10994   */\n      add\n        /* \"#utility.yul\":11027:11030   */\n      dup5\n        /* \"#utility.yul\":11018:11024   */\n      dup5\n        /* \"#utility.yul\":11013:11016   */\n      dup5\n        /* \"#utility.yul\":11009:11025   */\n      add\n        /* \"#utility.yul\":11006:11031   */\n      gt\n        /* \"#utility.yul\":11003:11115   */\n      iszero\n      tag_352\n      jumpi\n        /* \"#utility.yul\":11034:11113   */\n      tag_353\n      tag_214\n      jump\t// in\n    tag_353:\n        /* \"#utility.yul\":11003:11115   */\n    tag_352:\n        /* \"#utility.yul\":11124:11178   */\n      tag_354\n        /* \"#utility.yul\":11171:11177   */\n      dup5\n        /* \"#utility.yul\":11166:11169   */\n      dup3\n        /* \"#utility.yul\":11161:11164   */\n      dup6\n        /* \"#utility.yul\":11124:11178   */\n      tag_218\n      jump\t// in\n    tag_354:\n        /* \"#utility.yul\":10843:11184   */\n      pop\n        /* \"#utility.yul\":10759:11184   */\n      swap4\n      swap3\n      pop\n      pop\n      pop\n      jump\t// out\n        /* \"#utility.yul\":11204:11544   */\n    tag_220:\n        /* \"#utility.yul\":11260:11265   */\n      0x00\n        /* \"#utility.yul\":11309:11312   */\n      dup3\n        /* \"#utility.yul\":11302:11306   */\n      0x1f\n        /* \"#utility.yul\":11294:11300   */\n      dup4\n        /* \"#utility.yul\":11290:11307   */\n      add\n        /* \"#utility.yul\":11286:11313   */\n      slt\n        /* \"#utility.yul\":11276:11398   */\n      tag_356\n      jumpi\n        /* \"#utility.yul\":11317:11396   */\n      tag_357\n      tag_213\n      jump\t// in\n    tag_357:\n        /* \"#utility.yul\":11276:11398   */\n    tag_356:\n        /* \"#utility.yul\":11434:11440   */\n      dup2\n        /* \"#utility.yul\":11421:11441   */\n      calldataload\n        /* \"#utility.yul\":11459:11538   */\n      tag_358\n        /* \"#utility.yul\":11534:11537   */\n      dup5\n        /* \"#utility.yul\":11526:11532   */\n      dup3\n        /* \"#utility.yul\":11519:11523   */\n      0x20\n        /* \"#utility.yul\":11511:11517   */\n      dup7\n        /* \"#utility.yul\":11507:11524   */\n      add\n        /* \"#utility.yul\":11459:11538   */\n      tag_219\n      jump\t// in\n    tag_358:\n        /* \"#utility.yul\":11450:11538   */\n      swap2\n      pop\n        /* \"#utility.yul\":11266:11544   */\n      pop\n        /* \"#utility.yul\":11204:11544   */\n      swap3\n      swap2\n      pop\n      pop\n      jump\t// out\n        /* \"#utility.yul\":11550:12204   */\n    tag_50:\n        /* \"#utility.yul\":11628:11634   */\n      0x00\n        /* \"#utility.yul\":11636:11642   */\n      dup1\n        /* \"#utility.yul\":11685:11687   */\n      0x40\n        /* \"#utility.yul\":11673:11682   */\n      dup4\n        /* \"#utility.yul\":11664:11671   */\n      dup6\n        /* \"#utility.yul\":11660:11683   */\n      sub\n        /* \"#utility.yul\":11656:11688   */\n      slt\n        /* \"#utility.yul\":11653:11772   */\n      iszero\n      tag_360\n      jumpi\n        /* \"#utility.yul\":11691:11770   */\n      tag_361\n      tag_184\n      jump\t// in\n    tag_361:\n        /* \"#utility.yul\":11653:11772   */\n    tag_360:\n        /* \"#utility.yul\":11811:11812   */\n      0x00\n        /* \"#utility.yul\":11836:11889   */\n      tag_362\n        /* \"#utility.yul\":11881:11888   */\n      dup6\n        /* \"#utility.yul\":11872:11878   */\n      dup3\n        /* \"#utility.yul\":11861:11870   */\n      dup7\n        /* \"#utility.yul\":11857:11879   */\n      add\n        /* \"#utility.yul\":11836:11889   */\n      tag_189\n      jump\t// in\n    tag_362:\n        /* \"#utility.yul\":11826:11889   */\n      swap3\n      pop\n        /* \"#utility.yul\":11782:11899   */\n      pop\n        /* \"#utility.yul\":11966:11968   */\n      0x20\n        /* \"#utility.yul\":11955:11964   */\n      dup4\n        /* \"#utility.yul\":11951:11969   */\n      add\n        /* \"#utility.yul\":11938:11970   */\n      calldataload\n        /* \"#utility.yul\":11997:12015   */\n      0xffffffffffffffff\n        /* \"#utility.yul\":11989:11995   */\n      dup2\n        /* \"#utility.yul\":11986:12016   */\n      gt\n        /* \"#utility.yul\":11983:12100   */\n      iszero\n      tag_363\n      jumpi\n        /* \"#utility.yul\":12019:12098   */\n      tag_364\n      tag_185\n      jump\t// in\n    tag_364:\n        /* \"#utility.yul\":11983:12100   */\n    tag_363:\n        /* \"#utility.yul\":12124:12187   */\n      tag_365\n        /* \"#utility.yul\":12179:12186   */\n      dup6\n        /* \"#utility.yul\":12170:12176   */\n      dup3\n        /* \"#utility.yul\":12159:12168   */\n      dup7\n        /* \"#utility.yul\":12155:12177   */\n      add\n        /* \"#utility.yul\":12124:12187   */\n      tag_220\n      jump\t// in\n    tag_365:\n        /* \"#utility.yul\":12114:12187   */\n      swap2\n      pop\n        /* \"#utility.yul\":11909:12197   */\n      pop\n        /* \"#utility.yul\":11550:12204   */\n      swap3\n      pop\n      swap3\n      swap1\n      pop\n      jump\t// out\n        /* \"#utility.yul\":12210:12432   */\n    tag_56:\n        /* \"#utility.yul\":12303:12307   */\n      0x00\n        /* \"#utility.yul\":12341:12343   */\n      0x20\n        /* \"#utility.yul\":12330:12339   */\n      dup3\n        /* \"#utility.yul\":12326:12344   */\n      add\n        /* \"#utility.yul\":12318:12344   */\n      swap1\n      pop\n        /* \"#utility.yul\":12354:12425   */\n      tag_367\n        /* \"#utility.yul\":12422:12423   */\n      0x00\n        /* \"#utility.yul\":12411:12420   */\n      dup4\n        /* \"#utility.yul\":12407:12424   */\n      add\n        /* \"#utility.yul\":12398:12404   */\n      dup5\n        /* \"#utility.yul\":12354:12425   */\n      tag_212\n      jump\t// in\n    tag_367:\n        /* \"#utility.yul\":12210:12432   */\n      swap3\n      swap2\n      pop\n      pop\n      jump\t// out\n        /* \"#utility.yul\":12438:12660   */\n    tag_64:\n        /* \"#utility.yul\":12531:12535   */\n      0x00\n        /* \"#utility.yul\":12569:12571   */\n      0x20\n        /* \"#utility.yul\":12558:12567   */\n      dup3\n        /* \"#utility.yul\":12554:12572   */\n      add\n        /* \"#utility.yul\":12546:12572   */\n      swap1\n      pop\n        /* \"#utility.yul\":12582:12653   */\n      tag_369\n        /* \"#utility.yul\":12650:12651   */\n      0x00\n        /* \"#utility.yul\":12639:12648   */\n      dup4\n        /* \"#utility.yul\":12635:12652   */\n      add\n        /* \"#utility.yul\":12626:12632   */\n      dup5\n        /* \"#utility.yul\":12582:12653   */\n      tag_209\n      jump\t// in\n    tag_369:\n        /* \"#utility.yul\":12438:12660   */\n      swap3\n      swap2\n      pop\n      pop\n      jump\t// out\n        /* \"#utility.yul\":12666:13465   */\n    tag_67:\n        /* \"#utility.yul\":12753:12759   */\n      0x00\n        /* \"#utility.yul\":12761:12767   */\n      dup1\n        /* \"#utility.yul\":12769:12775   */\n      0x00\n        /* \"#utility.yul\":12818:12820   */\n      0x60\n        /* \"#utility.yul\":12806:12815   */\n      dup5\n        /* \"#utility.yul\":12797:12804   */\n      dup7\n        /* \"#utility.yul\":12793:12816   */\n      sub\n        /* \"#utility.yul\":12789:12821   */\n      slt\n        /* \"#utility.yul\":12786:12905   */\n      iszero\n      tag_371\n      jumpi\n        /* \"#utility.yul\":12824:12903   */\n      tag_372\n      tag_184\n      jump\t// in\n    tag_372:\n        /* \"#utility.yul\":12786:12905   */\n    tag_371:\n        /* \"#utility.yul\":12944:12945   */\n      0x00\n        /* \"#utility.yul\":12969:13022   */\n      tag_373\n        /* \"#utility.yul\":13014:13021   */\n      dup7\n        /* \"#utility.yul\":13005:13011   */\n      dup3\n        /* \"#utility.yul\":12994:13003   */\n      dup8\n        /* \"#utility.yul\":12990:13012   */\n      add\n        /* \"#utility.yul\":12969:13022   */\n      tag_189\n      jump\t// in\n    tag_373:\n        /* \"#utility.yul\":12959:13022   */\n      swap4\n      pop\n        /* \"#utility.yul\":12915:13032   */\n      pop\n        /* \"#utility.yul\":13071:13073   */\n      0x20\n        /* \"#utility.yul\":13097:13150   */\n      tag_374\n        /* \"#utility.yul\":13142:13149   */\n      dup7\n        /* \"#utility.yul\":13133:13139   */\n      dup3\n        /* \"#utility.yul\":13122:13131   */\n      dup8\n        /* \"#utility.yul\":13118:13140   */\n      add\n        /* \"#utility.yul\":13097:13150   */\n      tag_189\n      jump\t// in\n    tag_374:\n        /* \"#utility.yul\":13087:13150   */\n      swap3\n      pop\n        /* \"#utility.yul\":13042:13160   */\n      pop\n        /* \"#utility.yul\":13227:13229   */\n      0x40\n        /* \"#utility.yul\":13216:13225   */\n      dup5\n        /* \"#utility.yul\":13212:13230   */\n      add\n        /* \"#utility.yul\":13199:13231   */\n      calldataload\n        /* \"#utility.yul\":13258:13276   */\n      0xffffffffffffffff\n        /* \"#utility.yul\":13250:13256   */\n      dup2\n        /* \"#utility.yul\":13247:13277   */\n      gt\n        /* \"#utility.yul\":13244:13361   */\n      iszero\n      tag_375\n      jumpi\n        /* \"#utility.yul\":13280:13359   */\n      tag_376\n      tag_185\n      jump\t// in\n    tag_376:\n        /* \"#utility.yul\":13244:13361   */\n    tag_375:\n        /* \"#utility.yul\":13385:13448   */\n      tag_377\n        /* \"#utility.yul\":13440:13447   */\n      dup7\n        /* \"#utility.yul\":13431:13437   */\n      dup3\n        /* \"#utility.yul\":13420:13429   */\n      dup8\n        /* \"#utility.yul\":13416:13438   */\n      add\n        /* \"#utility.yul\":13385:13448   */\n      tag_220\n      jump\t// in\n    tag_377:\n        /* \"#utility.yul\":13375:13448   */\n      swap2\n      pop\n        /* \"#utility.yul\":13170:13458   */\n      pop\n        /* \"#utility.yul\":12666:13465   */\n      swap3\n      pop\n      swap3\n      pop\n      swap3\n      jump\t// out\n        /* \"#utility.yul\":13471:14125   */\n    tag_71:\n        /* \"#utility.yul\":13549:13555   */\n      0x00\n        /* \"#utility.yul\":13557:13563   */\n      dup1\n        /* \"#utility.yul\":13606:13608   */\n      0x40\n        /* \"#utility.yul\":13594:13603   */\n      dup4\n        /* \"#utility.yul\":13585:13592   */\n      dup6\n        /* \"#utility.yul\":13581:13604   */\n      sub\n        /* \"#utility.yul\":13577:13609   */\n      slt\n        /* \"#utility.yul\":13574:13693   */\n      iszero\n      tag_379\n      jumpi\n        /* \"#utility.yul\":13612:13691   */\n      tag_380\n      tag_184\n      jump\t// in\n    tag_380:\n        /* \"#utility.yul\":13574:13693   */\n    tag_379:\n        /* \"#utility.yul\":13760:13761   */\n      0x00\n        /* \"#utility.yul\":13749:13758   */\n      dup4\n        /* \"#utility.yul\":13745:13762   */\n      add\n        /* \"#utility.yul\":13732:13763   */\n      calldataload\n        /* \"#utility.yul\":13790:13808   */\n      0xffffffffffffffff\n        /* \"#utility.yul\":13782:13788   */\n      dup2\n        /* \"#utility.yul\":13779:13809   */\n      gt\n        /* \"#utility.yul\":13776:13893   */\n      iszero\n      tag_381\n      jumpi\n        /* \"#utility.yul\":13812:13891   */\n      tag_382\n      tag_185\n      jump\t// in\n    tag_382:\n        /* \"#utility.yul\":13776:13893   */\n    tag_381:\n        /* \"#utility.yul\":13917:13980   */\n      tag_383\n        /* \"#utility.yul\":13972:13979   */\n      dup6\n        /* \"#utility.yul\":13963:13969   */\n      dup3\n        /* \"#utility.yul\":13952:13961   */\n      dup7\n        /* \"#utility.yul\":13948:13970   */\n      add\n        /* \"#utility.yul\":13917:13980   */\n      tag_220\n      jump\t// in\n    tag_383:\n        /* \"#utility.yul\":13907:13980   */\n      swap3\n      pop\n        /* \"#utility.yul\":13703:13990   */\n      pop\n        /* \"#utility.yul\":14029:14031   */\n      0x20\n        /* \"#utility.yul\":14055:14108   */\n      tag_384\n        /* \"#utility.yul\":14100:14107   */\n      dup6\n        /* \"#utility.yul\":14091:14097   */\n      dup3\n        /* \"#utility.yul\":14080:14089   */\n      dup7\n        /* \"#utility.yul\":14076:14098   */\n      add\n        /* \"#utility.yul\":14055:14108   */\n      tag_189\n      jump\t// in\n    tag_384:\n        /* \"#utility.yul\":14045:14108   */\n      swap2\n      pop\n        /* \"#utility.yul\":14000:14118   */\n      pop\n        /* \"#utility.yul\":13471:14125   */\n      swap3\n      pop\n      swap3\n      swap1\n      pop\n      jump\t// out\n        /* \"#utility.yul\":14131:14775   */\n    tag_83:\n        /* \"#utility.yul\":14328:14332   */\n      0x00\n        /* \"#utility.yul\":14366:14369   */\n      0x80\n        /* \"#utility.yul\":14355:14364   */\n      dup3\n        /* \"#utility.yul\":14351:14370   */\n      add\n        /* \"#utility.yul\":14343:14370   */\n      swap1\n      pop\n        /* \"#utility.yul\":14380:14451   */\n      tag_386\n        /* \"#utility.yul\":14448:14449   */\n      0x00\n        /* \"#utility.yul\":14437:14446   */\n      dup4\n        /* \"#utility.yul\":14433:14450   */\n      add\n        /* \"#utility.yul\":14424:14430   */\n      dup8\n        /* \"#utility.yul\":14380:14451   */\n      tag_209\n      jump\t// in\n    tag_386:\n        /* \"#utility.yul\":14461:14533   */\n      tag_387\n        /* \"#utility.yul\":14529:14531   */\n      0x20\n        /* \"#utility.yul\":14518:14527   */\n      dup4\n        /* \"#utility.yul\":14514:14532   */\n      add\n        /* \"#utility.yul\":14505:14511   */\n      dup7\n        /* \"#utility.yul\":14461:14533   */\n      tag_212\n      jump\t// in\n    tag_387:\n        /* \"#utility.yul\":14580:14589   */\n      dup2\n        /* \"#utility.yul\":14574:14578   */\n      dup2\n        /* \"#utility.yul\":14570:14590   */\n      sub\n        /* \"#utility.yul\":14565:14567   */\n      0x40\n        /* \"#utility.yul\":14554:14563   */\n      dup4\n        /* \"#utility.yul\":14550:14568   */\n      add\n        /* \"#utility.yul\":14543:14591   */\n      mstore\n        /* \"#utility.yul\":14608:14686   */\n      tag_388\n        /* \"#utility.yul\":14681:14685   */\n      dup2\n        /* \"#utility.yul\":14672:14678   */\n      dup6\n        /* \"#utility.yul\":14608:14686   */\n      tag_211\n      jump\t// in\n    tag_388:\n        /* \"#utility.yul\":14600:14686   */\n      swap1\n      pop\n        /* \"#utility.yul\":14696:14768   */\n      tag_389\n        /* \"#utility.yul\":14764:14766   */\n      0x60\n        /* \"#utility.yul\":14753:14762   */\n      dup4\n        /* \"#utility.yul\":14749:14767   */\n      add\n        /* \"#utility.yul\":14740:14746   */\n      dup5\n        /* \"#utility.yul\":14696:14768   */\n      tag_209\n      jump\t// in\n    tag_389:\n        /* \"#utility.yul\":14131:14775   */\n      swap6\n      swap5\n      pop\n      pop\n      pop\n      pop\n      pop\n      jump\t// out\n        /* \"#utility.yul\":14781:15290   */\n    tag_86:\n        /* \"#utility.yul\":14850:14856   */\n      0x00\n        /* \"#utility.yul\":14899:14901   */\n      0x20\n        /* \"#utility.yul\":14887:14896   */\n      dup3\n        /* \"#utility.yul\":14878:14885   */\n      dup5\n        /* \"#utility.yul\":14874:14897   */\n      sub\n        /* \"#utility.yul\":14870:14902   */\n      slt\n        /* \"#utility.yul\":14867:14986   */\n      iszero\n      tag_391\n      jumpi\n        /* \"#utility.yul\":14905:14984   */\n      tag_392\n      tag_184\n      jump\t// in\n    tag_392:\n        /* \"#utility.yul\":14867:14986   */\n    tag_391:\n        /* \"#utility.yul\":15053:15054   */\n      0x00\n        /* \"#utility.yul\":15042:15051   */\n      dup3\n        /* \"#utility.yul\":15038:15055   */\n      add\n        /* \"#utility.yul\":15025:15056   */\n      calldataload\n        /* \"#utility.yul\":15083:15101   */\n      0xffffffffffffffff\n        /* \"#utility.yul\":15075:15081   */\n      dup2\n        /* \"#utility.yul\":15072:15102   */\n      gt\n        /* \"#utility.yul\":15069:15186   */\n      iszero\n      tag_393\n      jumpi\n        /* \"#utility.yul\":15105:15184   */\n      tag_394\n      tag_185\n      jump\t// in\n    tag_394:\n        /* \"#utility.yul\":15069:15186   */\n    tag_393:\n        /* \"#utility.yul\":15210:15273   */\n      tag_395\n        /* \"#utility.yul\":15265:15272   */\n      dup5\n        /* \"#utility.yul\":15256:15262   */\n      dup3\n        /* \"#utility.yul\":15245:15254   */\n      dup6\n        /* \"#utility.yul\":15241:15263   */\n      add\n        /* \"#utility.yul\":15210:15273   */\n      tag_220\n      jump\t// in\n    tag_395:\n        /* \"#utility.yul\":15200:15273   */\n      swap2\n      pop\n        /* \"#utility.yul\":14996:15283   */\n      pop\n        /* \"#utility.yul\":14781:15290   */\n      swap3\n      swap2\n      pop\n      pop\n      jump\t// out\n        /* \"#utility.yul\":15296:15466   */\n    tag_221:\n        /* \"#utility.yul\":15436:15458   */\n      0x436f756e74206973206e6f7420646566696e6564000000000000000000000000\n        /* \"#utility.yul\":15432:15433   */\n      0x00\n        /* \"#utility.yul\":15424:15430   */\n      dup3\n        /* \"#utility.yul\":15420:15434   */\n      add\n        /* \"#utility.yul\":15413:15459   */\n      mstore\n        /* \"#utility.yul\":15296:15466   */\n      pop\n      jump\t// out\n        /* \"#utility.yul\":15472:15838   */\n    tag_222:\n        /* \"#utility.yul\":15614:15617   */\n      0x00\n        /* \"#utility.yul\":15635:15702   */\n      tag_398\n        /* \"#utility.yul\":15699:15701   */\n      0x14\n        /* \"#utility.yul\":15694:15697   */\n      dup4\n        /* \"#utility.yul\":15635:15702   */\n      tag_210\n      jump\t// in\n    tag_398:\n        /* \"#utility.yul\":15628:15702   */\n      swap2\n      pop\n        /* \"#utility.yul\":15711:15804   */\n      tag_399\n        /* \"#utility.yul\":15800:15803   */\n      dup3\n        /* \"#utility.yul\":15711:15804   */\n      tag_221\n      jump\t// in\n    tag_399:\n        /* \"#utility.yul\":15829:15831   */\n      0x20\n        /* \"#utility.yul\":15824:15827   */\n      dup3\n        /* \"#utility.yul\":15820:15832   */\n      add\n        /* \"#utility.yul\":15813:15832   */\n      swap1\n      pop\n        /* \"#utility.yul\":15472:15838   */\n      swap2\n      swap1\n      pop\n      jump\t// out\n        /* \"#utility.yul\":15844:16263   */\n    tag_104:\n        /* \"#utility.yul\":16010:16014   */\n      0x00\n        /* \"#utility.yul\":16048:16050   */\n      0x20\n        /* \"#utility.yul\":16037:16046   */\n      dup3\n        /* \"#utility.yul\":16033:16051   */\n      add\n        /* \"#utility.yul\":16025:16051   */\n      swap1\n      pop\n        /* \"#utility.yul\":16097:16106   */\n      dup2\n        /* \"#utility.yul\":16091:16095   */\n      dup2\n        /* \"#utility.yul\":16087:16107   */\n      sub\n        /* \"#utility.yul\":16083:16084   */\n      0x00\n        /* \"#utility.yul\":16072:16081   */\n      dup4\n        /* \"#utility.yul\":16068:16085   */\n      add\n        /* \"#utility.yul\":16061:16108   */\n      mstore\n        /* \"#utility.yul\":16125:16256   */\n      tag_401\n        /* \"#utility.yul\":16251:16255   */\n      dup2\n        /* \"#utility.yul\":16125:16256   */\n      tag_222\n      jump\t// in\n    tag_401:\n        /* \"#utility.yul\":16117:16256   */\n      swap1\n      pop\n        /* \"#utility.yul\":15844:16263   */\n      swap2\n      swap1\n      pop\n      jump\t// out\n        /* \"#utility.yul\":16269:16449   */\n    tag_223:\n        /* \"#utility.yul\":16317:16394   */\n      0x4e487b7100000000000000000000000000000000000000000000000000000000\n        /* \"#utility.yul\":16314:16315   */\n      0x00\n        /* \"#utility.yul\":16307:16395   */\n      mstore\n        /* \"#utility.yul\":16414:16418   */\n      0x11\n        /* \"#utility.yul\":16411:16412   */\n      0x04\n        /* \"#utility.yul\":16404:16419   */\n      mstore\n        /* \"#utility.yul\":16438:16442   */\n      0x24\n        /* \"#utility.yul\":16435:16436   */\n      0x00\n        /* \"#utility.yul\":16428:16443   */\n      revert\n        /* \"#utility.yul\":16455:16649   */\n    tag_109:\n        /* \"#utility.yul\":16495:16499   */\n      0x00\n        /* \"#utility.yul\":16515:16535   */\n      tag_404\n        /* \"#utility.yul\":16533:16534   */\n      dup3\n        /* \"#utility.yul\":16515:16535   */\n      tag_192\n      jump\t// in\n    tag_404:\n        /* \"#utility.yul\":16510:16535   */\n      swap2\n      pop\n        /* \"#utility.yul\":16549:16569   */\n      tag_405\n        /* \"#utility.yul\":16567:16568   */\n      dup4\n        /* \"#utility.yul\":16549:16569   */\n      tag_192\n      jump\t// in\n    tag_405:\n        /* \"#utility.yul\":16544:16569   */\n      swap3\n      pop\n        /* \"#utility.yul\":16593:16594   */\n      dup3\n        /* \"#utility.yul\":16590:16591   */\n      dup3\n        /* \"#utility.yul\":16586:16595   */\n      sub\n        /* \"#utility.yul\":16578:16595   */\n      swap1\n      pop\n        /* \"#utility.yul\":16617:16618   */\n      dup2\n        /* \"#utility.yul\":16611:16615   */\n      dup2\n        /* \"#utility.yul\":16608:16619   */\n      gt\n        /* \"#utility.yul\":16605:16642   */\n      iszero\n      tag_406\n      jumpi\n        /* \"#utility.yul\":16622:16640   */\n      tag_407\n      tag_223\n      jump\t// in\n    tag_407:\n        /* \"#utility.yul\":16605:16642   */\n    tag_406:\n        /* \"#utility.yul\":16455:16649   */\n      swap3\n      swap2\n      pop\n      pop\n      jump\t// out\n        /* \"#utility.yul\":16655:16835   */\n    tag_112:\n        /* \"#utility.yul\":16703:16780   */\n      0x4e487b7100000000000000000000000000000000000000000000000000000000\n        /* \"#utility.yul\":16700:16701   */\n      0x00\n        /* \"#utility.yul\":16693:16781   */\n      mstore\n        /* \"#utility.yul\":16800:16804   */\n      0x32\n        /* \"#utility.yul\":16797:16798   */\n      0x04\n        /* \"#utility.yul\":16790:16805   */\n      mstore\n        /* \"#utility.yul\":16824:16828   */\n      0x24\n        /* \"#utility.yul\":16821:16822   */\n      0x00\n        /* \"#utility.yul\":16814:16829   */\n      revert\n        /* \"#utility.yul\":16841:17021   */\n    tag_224:\n        /* \"#utility.yul\":16889:16966   */\n      0x4e487b7100000000000000000000000000000000000000000000000000000000\n        /* \"#utility.yul\":16886:16887   */\n      0x00\n        /* \"#utility.yul\":16879:16967   */\n      mstore\n        /* \"#utility.yul\":16986:16990   */\n      0x22\n        /* \"#utility.yul\":16983:16984   */\n      0x04\n        /* \"#utility.yul\":16976:16991   */\n      mstore\n        /* \"#utility.yul\":17010:17014   */\n      0x24\n        /* \"#utility.yul\":17007:17008   */\n      0x00\n        /* \"#utility.yul\":17000:17015   */\n      revert\n        /* \"#utility.yul\":17027:17347   */\n    tag_114:\n        /* \"#utility.yul\":17071:17077   */\n      0x00\n        /* \"#utility.yul\":17108:17109   */\n      0x02\n        /* \"#utility.yul\":17102:17106   */\n      dup3\n        /* \"#utility.yul\":17098:17110   */\n      div\n        /* \"#utility.yul\":17088:17110   */\n      swap1\n      pop\n        /* \"#utility.yul\":17155:17156   */\n      0x01\n        /* \"#utility.yul\":17149:17153   */\n      dup3\n        /* \"#utility.yul\":17145:17157   */\n      and\n        /* \"#utility.yul\":17176:17194   */\n      dup1\n        /* \"#utility.yul\":17166:17247   */\n      tag_411\n      jumpi\n        /* \"#utility.yul\":17232:17236   */\n      0x7f\n        /* \"#utility.yul\":17224:17230   */\n      dup3\n        /* \"#utility.yul\":17220:17237   */\n      and\n        /* \"#utility.yul\":17210:17237   */\n      swap2\n      pop\n        /* \"#utility.yul\":17166:17247   */\n    tag_411:\n        /* \"#utility.yul\":17294:17296   */\n      0x20\n        /* \"#utility.yul\":17286:17292   */\n      dup3\n        /* \"#utility.yul\":17283:17297   */\n      lt\n        /* \"#utility.yul\":17263:17281   */\n      dup2\n        /* \"#utility.yul\":17260:17298   */\n      sub\n        /* \"#utility.yul\":17257:17341   */\n      tag_412\n      jumpi\n        /* \"#utility.yul\":17313:17331   */\n      tag_413\n      tag_224\n      jump\t// in\n    tag_413:\n        /* \"#utility.yul\":17257:17341   */\n    tag_412:\n        /* \"#utility.yul\":17078:17347   */\n      pop\n        /* \"#utility.yul\":17027:17347   */\n      swap2\n      swap1\n      pop\n      jump\t// out\n        /* \"#utility.yul\":17353:17544   */\n    tag_122:\n        /* \"#utility.yul\":17393:17396   */\n      0x00\n        /* \"#utility.yul\":17412:17432   */\n      tag_415\n        /* \"#utility.yul\":17430:17431   */\n      dup3\n        /* \"#utility.yul\":17412:17432   */\n      tag_192\n      jump\t// in\n    tag_415:\n        /* \"#utility.yul\":17407:17432   */\n      swap2\n      pop\n        /* \"#utility.yul\":17446:17466   */\n      tag_416\n        /* \"#utility.yul\":17464:17465   */\n      dup4\n        /* \"#utility.yul\":17446:17466   */\n      tag_192\n      jump\t// in\n    tag_416:\n        /* \"#utility.yul\":17441:17466   */\n      swap3\n      pop\n        /* \"#utility.yul\":17489:17490   */\n      dup3\n        /* \"#utility.yul\":17486:17487   */\n      dup3\n        /* \"#utility.yul\":17482:17491   */\n      add\n        /* \"#utility.yul\":17475:17491   */\n      swap1\n      pop\n        /* \"#utility.yul\":17510:17513   */\n      dup1\n        /* \"#utility.yul\":17507:17508   */\n      dup3\n        /* \"#utility.yul\":17504:17514   */\n      gt\n        /* \"#utility.yul\":17501:17537   */\n      iszero\n      tag_417\n      jumpi\n        /* \"#utility.yul\":17517:17535   */\n      tag_418\n      tag_223\n      jump\t// in\n    tag_418:\n        /* \"#utility.yul\":17501:17537   */\n    tag_417:\n        /* \"#utility.yul\":17353:17544   */\n      swap3\n      swap2\n      pop\n      pop\n      jump\t// out\n        /* \"#utility.yul\":17550:17719   */\n    tag_225:\n        /* \"#utility.yul\":17690:17711   */\n      0x436f756e74206964206e6f742070726f70657200000000000000000000000000\n        /* \"#utility.yul\":17686:17687   */\n      0x00\n        /* \"#utility.yul\":17678:17684   */\n      dup3\n        /* \"#utility.yul\":17674:17688   */\n      add\n        /* \"#utility.yul\":17667:17712   */\n      mstore\n        /* \"#utility.yul\":17550:17719   */\n      pop\n      jump\t// out\n        /* \"#utility.yul\":17725:18091   */\n    tag_226:\n        /* \"#utility.yul\":17867:17870   */\n      0x00\n        /* \"#utility.yul\":17888:17955   */\n      tag_421\n        /* \"#utility.yul\":17952:17954   */\n      0x13\n        /* \"#utility.yul\":17947:17950   */\n      dup4\n        /* \"#utility.yul\":17888:17955   */\n      tag_210\n      jump\t// in\n    tag_421:\n        /* \"#utility.yul\":17881:17955   */\n      swap2\n      pop\n        /* \"#utility.yul\":17964:18057   */\n      tag_422\n        /* \"#utility.yul\":18053:18056   */\n      dup3\n        /* \"#utility.yul\":17964:18057   */\n      tag_225\n      jump\t// in\n    tag_422:\n        /* \"#utility.yul\":18082:18084   */\n      0x20\n        /* \"#utility.yul\":18077:18080   */\n      dup3\n        /* \"#utility.yul\":18073:18085   */\n      add\n        /* \"#utility.yul\":18066:18085   */\n      swap1\n      pop\n        /* \"#utility.yul\":17725:18091   */\n      swap2\n      swap1\n      pop\n      jump\t// out\n        /* \"#utility.yul\":18097:18516   */\n    tag_129:\n        /* \"#utility.yul\":18263:18267   */\n      0x00\n        /* \"#utility.yul\":18301:18303   */\n      0x20\n        /* \"#utility.yul\":18290:18299   */\n      dup3\n        /* \"#utility.yul\":18286:18304   */\n      add\n        /* \"#utility.yul\":18278:18304   */\n      swap1\n      pop\n        /* \"#utility.yul\":18350:18359   */\n      dup2\n        /* \"#utility.yul\":18344:18348   */\n      dup2\n        /* \"#utility.yul\":18340:18360   */\n      sub\n        /* \"#utility.yul\":18336:18337   */\n      0x00\n        /* \"#utility.yul\":18325:18334   */\n      dup4\n        /* \"#utility.yul\":18321:18338   */\n      add\n        /* \"#utility.yul\":18314:18361   */\n      mstore\n        /* \"#utility.yul\":18378:18509   */\n      tag_424\n        /* \"#utility.yul\":18504:18508   */\n      dup2\n        /* \"#utility.yul\":18378:18509   */\n      tag_226\n      jump\t// in\n    tag_424:\n        /* \"#utility.yul\":18370:18509   */\n      swap1\n      pop\n        /* \"#utility.yul\":18097:18516   */\n      swap2\n      swap1\n      pop\n      jump\t// out\n        /* \"#utility.yul\":18522:18755   */\n    tag_147:\n        /* \"#utility.yul\":18561:18564   */\n      0x00\n        /* \"#utility.yul\":18584:18608   */\n      tag_426\n        /* \"#utility.yul\":18602:18607   */\n      dup3\n        /* \"#utility.yul\":18584:18608   */\n      tag_192\n      jump\t// in\n    tag_426:\n        /* \"#utility.yul\":18575:18608   */\n      swap2\n      pop\n        /* \"#utility.yul\":18630:18696   */\n      0xffffffffffffffffffffffffffffffffffffffffffffffffffffffffffffffff\n        /* \"#utility.yul\":18623:18628   */\n      dup3\n        /* \"#utility.yul\":18620:18697   */\n      sub\n        /* \"#utility.yul\":18617:18720   */\n      tag_427\n      jumpi\n        /* \"#utility.yul\":18700:18718   */\n      tag_428\n      tag_223\n      jump\t// in\n    tag_428:\n        /* \"#utility.yul\":18617:18720   */\n    tag_427:\n        /* \"#utility.yul\":18747:18748   */\n      0x01\n        /* \"#utility.yul\":18740:18745   */\n      dup3\n        /* \"#utility.yul\":18736:18749   */\n      add\n        /* \"#utility.yul\":18729:18749   */\n      swap1\n      pop\n        /* \"#utility.yul\":18522:18755   */\n      swap2\n      swap1\n      pop\n      jump\t// out\n        /* \"#utility.yul\":18761:18902   */\n    tag_227:\n        /* \"#utility.yul\":18810:18814   */\n      0x00\n        /* \"#utility.yul\":18833:18836   */\n      dup2\n        /* \"#utility.yul\":18825:18836   */\n      swap1\n      pop\n        /* \"#utility.yul\":18856:18859   */\n      dup2\n        /* \"#utility.yul\":18853:18854   */\n      0x00\n        /* \"#utility.yul\":18846:18860   */\n      mstore\n        /* \"#utility.yul\":18890:18894   */\n      0x20\n        /* \"#utility.yul\":18887:18888   */\n      0x00\n        /* \"#utility.yul\":18877:18895   */\n      keccak256\n        /* \"#utility.yul\":18869:18895   */\n      swap1\n      pop\n        /* \"#utility.yul\":18761:18902   */\n      swap2\n      swap1\n      pop\n      jump\t// out\n        /* \"#utility.yul\":18908:19001   */\n    tag_228:\n        /* \"#utility.yul\":18945:18951   */\n      0x00\n        /* \"#utility.yul\":18992:18994   */\n      0x20\n        /* \"#utility.yul\":18987:18989   */\n      0x1f\n        /* \"#utility.yul\":18980:18985   */\n      dup4\n        /* \"#utility.yul\":18976:18990   */\n      add\n        /* \"#utility.yul\":18972:18995   */\n      div\n        /* \"#utility.yul\":18962:18995   */\n      swap1\n      pop\n        /* \"#utility.yul\":18908:19001   */\n      swap2\n      swap1\n      pop\n      jump\t// out\n        /* \"#utility.yul\":19007:19114   */\n    tag_229:\n        /* \"#utility.yul\":19051:19059   */\n      0x00\n        /* \"#utility.yul\":19101:19106   */\n      dup3\n        /* \"#utility.yul\":19095:19099   */\n      dup3\n        /* \"#utility.yul\":19091:19107   */\n      shl\n        /* \"#utility.yul\":19070:19107   */\n      swap1\n      pop\n        /* \"#utility.yul\":19007:19114   */\n      swap3\n      swap2\n      pop\n      pop\n      jump\t// out\n        /* \"#utility.yul\":19120:19513   */\n    tag_230:\n        /* \"#utility.yul\":19189:19195   */\n      0x00\n        /* \"#utility.yul\":19239:19240   */\n      0x08\n        /* \"#utility.yul\":19227:19237   */\n      dup4\n        /* \"#utility.yul\":19223:19241   */\n      mul\n        /* \"#utility.yul\":19262:19359   */\n      tag_433\n        /* \"#utility.yul\":19292:19358   */\n      0xffffffffffffffffffffffffffffffffffffffffffffffffffffffffffffffff\n        /* \"#utility.yul\":19281:19290   */\n      dup3\n        /* \"#utility.yul\":19262:19359   */\n      tag_229\n      jump\t// in\n    tag_433:\n        /* \"#utility.yul\":19380:19419   */\n      tag_434\n        /* \"#utility.yul\":19410:19418   */\n      dup7\n        /* \"#utility.yul\":19399:19408   */\n      dup4\n        /* \"#utility.yul\":19380:19419   */\n      tag_229\n      jump\t// in\n    tag_434:\n        /* \"#utility.yul\":19368:19419   */\n      swap6\n      pop\n        /* \"#utility.yul\":19452:19456   */\n      dup1\n        /* \"#utility.yul\":19448:19457   */\n      not\n        /* \"#utility.yul\":19441:19446   */\n      dup5\n        /* \"#utility.yul\":19437:19458   */\n      and\n        /* \"#utility.yul\":19428:19458   */\n      swap4\n      pop\n        /* \"#utility.yul\":19501:19505   */\n      dup1\n        /* \"#utility.yul\":19491:19499   */\n      dup7\n        /* \"#utility.yul\":19487:19506   */\n      and\n        /* \"#utility.yul\":19480:19485   */\n      dup5\n        /* \"#utility.yul\":19477:19507   */\n      or\n        /* \"#utility.yul\":19467:19507   */\n      swap3\n      pop\n        /* \"#utility.yul\":19196:19513   */\n      pop\n      pop\n        /* \"#utility.yul\":19120:19513   */\n      swap4\n      swap3\n      pop\n      pop\n      pop\n      jump\t// out\n        /* \"#utility.yul\":19519:19579   */\n    tag_231:\n        /* \"#utility.yul\":19547:19550   */\n      0x00\n        /* \"#utility.yul\":19568:19573   */\n      dup2\n        /* \"#utility.yul\":19561:19573   */\n      swap1\n      pop\n        /* \"#utility.yul\":19519:19579   */\n      swap2\n      swap1\n      pop\n      jump\t// out\n        /* \"#utility.yul\":19585:19727   */\n    tag_232:\n        /* \"#utility.yul\":19635:19644   */\n      0x00\n        /* \"#utility.yul\":19668:19721   */\n      tag_437\n        /* \"#utility.yul\":19686:19720   */\n      tag_438\n        /* \"#utility.yul\":19695:19719   */\n      tag_439\n        /* \"#utility.yul\":19713:19718   */\n      dup5\n        /* \"#utility.yul\":19695:19719   */\n      tag_192\n      jump\t// in\n    tag_439:\n        /* \"#utility.yul\":19686:19720   */\n      tag_231\n      jump\t// in\n    tag_438:\n        /* \"#utility.yul\":19668:19721   */\n      tag_192\n      jump\t// in\n    tag_437:\n        /* \"#utility.yul\":19655:19721   */\n      swap1\n      pop\n        /* \"#utility.yul\":19585:19727   */\n      swap2\n      swap1\n      pop\n      jump\t// out\n        /* \"#utility.yul\":19733:19808   */\n    tag_233:\n        /* \"#utility.yul\":19776:19779   */\n      0x00\n        /* \"#utility.yul\":19797:19802   */\n      dup2\n        /* \"#utility.yul\":19790:19802   */\n      swap1\n      pop\n        /* \"#utility.yul\":19733:19808   */\n      swap2\n      swap1\n      pop\n      jump\t// out\n        /* \"#utility.yul\":19814:20083   */\n    tag_234:\n        /* \"#utility.yul\":19924:19963   */\n      tag_442\n        /* \"#utility.yul\":19955:19962   */\n      dup4\n        /* \"#utility.yul\":19924:19963   */\n      tag_232\n      jump\t// in\n    tag_442:\n        /* \"#utility.yul\":19985:20076   */\n      tag_443\n        /* \"#utility.yul\":20034:20075   */\n      tag_444\n        /* \"#utility.yul\":20058:20074   */\n      dup3\n        /* \"#utility.yul\":20034:20075   */\n      tag_233\n      jump\t// in\n    tag_444:\n        /* \"#utility.yul\":20026:20032   */\n      dup5\n        /* \"#utility.yul\":20019:20023   */\n      dup5\n        /* \"#utility.yul\":20013:20024   */\n      sload\n        /* \"#utility.yul\":19985:20076   */\n      tag_230\n      jump\t// in\n    tag_443:\n        /* \"#utility.yul\":19979:19983   */\n      dup3\n        /* \"#utility.yul\":19972:20077   */\n      sstore\n        /* \"#utility.yul\":19890:20083   */\n      pop\n        /* \"#utility.yul\":19814:20083   */\n      pop\n      pop\n      pop\n      jump\t// out\n        /* \"#utility.yul\":20089:20162   */\n    tag_235:\n        /* \"#utility.yul\":20134:20137   */\n      0x00\n        /* \"#utility.yul\":20089:20162   */\n      swap1\n      jump\t// out\n        /* \"#utility.yul\":20168:20357   */\n    tag_236:\n        /* \"#utility.yul\":20245:20277   */\n      tag_447\n      tag_235\n      jump\t// in\n    tag_447:\n        /* \"#utility.yul\":20286:20351   */\n      tag_448\n        /* \"#utility.yul\":20344:20350   */\n      dup2\n        /* \"#utility.yul\":20336:20342   */\n      dup5\n        /* \"#utility.yul\":20330:20334   */\n      dup5\n        /* \"#utility.yul\":20286:20351   */\n      tag_234\n      jump\t// in\n    tag_448:\n        /* \"#utility.yul\":20221:20357   */\n      pop\n        /* \"#utility.yul\":20168:20357   */\n      pop\n      pop\n      jump\t// out\n        /* \"#utility.yul\":20363:20549   */\n    tag_237:\n        /* \"#utility.yul\":20423:20543   */\n    tag_450:\n        /* \"#utility.yul\":20440:20443   */\n      dup2\n        /* \"#utility.yul\":20433:20438   */\n      dup2\n        /* \"#utility.yul\":20430:20444   */\n      lt\n        /* \"#utility.yul\":20423:20543   */\n      iszero\n      tag_452\n      jumpi\n        /* \"#utility.yul\":20494:20533   */\n      tag_453\n        /* \"#utility.yul\":20531:20532   */\n      0x00\n        /* \"#utility.yul\":20524:20529   */\n      dup3\n        /* \"#utility.yul\":20494:20533   */\n      tag_236\n      jump\t// in\n    tag_453:\n        /* \"#utility.yul\":20467:20468   */\n      0x01\n        /* \"#utility.yul\":20460:20465   */\n      dup2\n        /* \"#utility.yul\":20456:20469   */\n      add\n        /* \"#utility.yul\":20447:20469   */\n      swap1\n      pop\n        /* \"#utility.yul\":20423:20543   */\n      jump(tag_450)\n    tag_452:\n        /* \"#utility.yul\":20363:20549   */\n      pop\n      pop\n      jump\t// out\n        /* \"#utility.yul\":20555:21098   */\n    tag_238:\n        /* \"#utility.yul\":20656:20658   */\n      0x1f\n        /* \"#utility.yul\":20651:20654   */\n      dup3\n        /* \"#utility.yul\":20648:20659   */\n      gt\n        /* \"#utility.yul\":20645:21091   */\n      iszero\n      tag_455\n      jumpi\n        /* \"#utility.yul\":20690:20728   */\n      tag_456\n        /* \"#utility.yul\":20722:20727   */\n      dup2\n        /* \"#utility.yul\":20690:20728   */\n      tag_227\n      jump\t// in\n    tag_456:\n        /* \"#utility.yul\":20774:20803   */\n      tag_457\n        /* \"#utility.yul\":20792:20802   */\n      dup5\n        /* \"#utility.yul\":20774:20803   */\n      tag_228\n      jump\t// in\n    tag_457:\n        /* \"#utility.yul\":20764:20772   */\n      dup2\n        /* \"#utility.yul\":20760:20804   */\n      add\n        /* \"#utility.yul\":20957:20959   */\n      0x20\n        /* \"#utility.yul\":20945:20955   */\n      dup6\n        /* \"#utility.yul\":20942:20960   */\n      lt\n        /* \"#utility.yul\":20939:20988   */\n      iszero\n      tag_458\n      jumpi\n        /* \"#utility.yul\":20978:20986   */\n      dup2\n        /* \"#utility.yul\":20963:20986   */\n      swap1\n      pop\n        /* \"#utility.yul\":20939:20988   */\n    tag_458:\n        /* \"#utility.yul\":21001:21081   */\n      tag_459\n        /* \"#utility.yul\":21057:21079   */\n      tag_460\n        /* \"#utility.yul\":21075:21078   */\n      dup6\n        /* \"#utility.yul\":21057:21079   */\n      tag_228\n      jump\t// in\n    tag_460:\n        /* \"#utility.yul\":21047:21055   */\n      dup4\n        /* \"#utility.yul\":21043:21080   */\n      add\n        /* \"#utility.yul\":21030:21041   */\n      dup3\n        /* \"#utility.yul\":21001:21081   */\n      tag_237\n      jump\t// in\n    tag_459:\n        /* \"#utility.yul\":20660:21091   */\n      pop\n      pop\n        /* \"#utility.yul\":20645:21091   */\n    tag_455:\n        /* \"#utility.yul\":20555:21098   */\n      pop\n      pop\n      pop\n      jump\t// out\n        /* \"#utility.yul\":21104:21221   */\n    tag_239:\n        /* \"#utility.yul\":21158:21166   */\n      0x00\n        /* \"#utility.yul\":21208:21213   */\n      dup3\n        /* \"#utility.yul\":21202:21206   */\n      dup3\n        /* \"#utility.yul\":21198:21214   */\n      shr\n        /* \"#utility.yul\":21177:21214   */\n      swap1\n      pop\n        /* \"#utility.yul\":21104:21221   */\n      swap3\n      swap2\n      pop\n      pop\n      jump\t// out\n        /* \"#utility.yul\":21227:21396   */\n    tag_240:\n        /* \"#utility.yul\":21271:21277   */\n      0x00\n        /* \"#utility.yul\":21304:21355   */\n      tag_463\n        /* \"#utility.yul\":21352:21353   */\n      0x00\n        /* \"#utility.yul\":21348:21354   */\n      not\n        /* \"#utility.yul\":21340:21345   */\n      dup5\n        /* \"#utility.yul\":21337:21338   */\n      0x08\n        /* \"#utility.yul\":21333:21346   */\n      mul\n        /* \"#utility.yul\":21304:21355   */\n      tag_239\n      jump\t// in\n    tag_463:\n        /* \"#utility.yul\":21300:21356   */\n      not\n        /* \"#utility.yul\":21385:21389   */\n      dup1\n        /* \"#utility.yul\":21379:21383   */\n      dup4\n        /* \"#utility.yul\":21375:21390   */\n      and\n        /* \"#utility.yul\":21365:21390   */\n      swap2\n      pop\n        /* \"#utility.yul\":21278:21396   */\n      pop\n        /* \"#utility.yul\":21227:21396   */\n      swap3\n      swap2\n      pop\n      pop\n      jump\t// out\n        /* \"#utility.yul\":21401:21696   */\n    tag_241:\n        /* \"#utility.yul\":21477:21481   */\n      0x00\n        /* \"#utility.yul\":21623:21652   */\n      tag_465\n        /* \"#utility.yul\":21648:21651   */\n      dup4\n        /* \"#utility.yul\":21642:21646   */\n      dup4\n        /* \"#utility.yul\":21623:21652   */\n      tag_240\n      jump\t// in\n    tag_465:\n        /* \"#utility.yul\":21615:21652   */\n      swap2\n      pop\n        /* \"#utility.yul\":21685:21688   */\n      dup3\n        /* \"#utility.yul\":21682:21683   */\n      0x02\n        /* \"#utility.yul\":21678:21689   */\n      mul\n        /* \"#utility.yul\":21672:21676   */\n      dup3\n        /* \"#utility.yul\":21669:21690   */\n      or\n        /* \"#utility.yul\":21661:21690   */\n      swap1\n      pop\n        /* \"#utility.yul\":21401:21696   */\n      swap3\n      swap2\n      pop\n      pop\n      jump\t// out\n        /* \"#utility.yul\":21701:23096   */\n    tag_158:\n        /* \"#utility.yul\":21818:21855   */\n      tag_467\n        /* \"#utility.yul\":21851:21854   */\n      dup3\n        /* \"#utility.yul\":21818:21855   */\n      tag_200\n      jump\t// in\n    tag_467:\n        /* \"#utility.yul\":21920:21938   */\n      0xffffffffffffffff\n        /* \"#utility.yul\":21912:21918   */\n      dup2\n        /* \"#utility.yul\":21909:21939   */\n      gt\n        /* \"#utility.yul\":21906:21962   */\n      iszero\n      tag_468\n      jumpi\n        /* \"#utility.yul\":21942:21960   */\n      tag_469\n      tag_94\n      jump\t// in\n    tag_469:\n        /* \"#utility.yul\":21906:21962   */\n    tag_468:\n        /* \"#utility.yul\":21986:22024   */\n      tag_470\n        /* \"#utility.yul\":22018:22022   */\n      dup3\n        /* \"#utility.yul\":22012:22023   */\n      sload\n        /* \"#utility.yul\":21986:22024   */\n      tag_114\n      jump\t// in\n    tag_470:\n        /* \"#utility.yul\":22071:22138   */\n      tag_471\n        /* \"#utility.yul\":22131:22137   */\n      dup3\n        /* \"#utility.yul\":22123:22129   */\n      dup3\n        /* \"#utility.yul\":22117:22121   */\n      dup6\n        /* \"#utility.yul\":22071:22138   */\n      tag_238\n      jump\t// in\n    tag_471:\n        /* \"#utility.yul\":22165:22166   */\n      0x00\n        /* \"#utility.yul\":22189:22193   */\n      0x20\n        /* \"#utility.yul\":22176:22193   */\n      swap1\n      pop\n        /* \"#utility.yul\":22221:22223   */\n      0x1f\n        /* \"#utility.yul\":22213:22219   */\n      dup4\n        /* \"#utility.yul\":22210:22224   */\n      gt\n        /* \"#utility.yul\":22238:22239   */\n      0x01\n        /* \"#utility.yul\":22233:22851   */\n      dup2\n      eq\n      tag_473\n      jumpi\n        /* \"#utility.yul\":22895:22896   */\n      0x00\n        /* \"#utility.yul\":22912:22918   */\n      dup5\n        /* \"#utility.yul\":22909:22986   */\n      iszero\n      tag_474\n      jumpi\n        /* \"#utility.yul\":22961:22970   */\n      dup3\n        /* \"#utility.yul\":22956:22959   */\n      dup8\n        /* \"#utility.yul\":22952:22971   */\n      add\n        /* \"#utility.yul\":22946:22972   */\n      mload\n        /* \"#utility.yul\":22937:22972   */\n      swap1\n      pop\n        /* \"#utility.yul\":22909:22986   */\n    tag_474:\n        /* \"#utility.yul\":23012:23079   */\n      tag_475\n        /* \"#utility.yul\":23072:23078   */\n      dup6\n        /* \"#utility.yul\":23065:23070   */\n      dup3\n        /* \"#utility.yul\":23012:23079   */\n      tag_241\n      jump\t// in\n    tag_475:\n        /* \"#utility.yul\":23006:23010   */\n      dup7\n        /* \"#utility.yul\":22999:23080   */\n      sstore\n        /* \"#utility.yul\":22868:23090   */\n      pop\n        /* \"#utility.yul\":22203:23090   */\n      jump(tag_472)\n        /* \"#utility.yul\":22233:22851   */\n    tag_473:\n        /* \"#utility.yul\":22285:22289   */\n      0x1f\n        /* \"#utility.yul\":22281:22290   */\n      not\n        /* \"#utility.yul\":22273:22279   */\n      dup5\n        /* \"#utility.yul\":22269:22291   */\n      and\n        /* \"#utility.yul\":22319:22356   */\n      tag_476\n        /* \"#utility.yul\":22351:22355   */\n      dup7\n        /* \"#utility.yul\":22319:22356   */\n      tag_227\n      jump\t// in\n    tag_476:\n        /* \"#utility.yul\":22378:22379   */\n      0x00\n        /* \"#utility.yul\":22392:22600   */\n    tag_477:\n        /* \"#utility.yul\":22406:22413   */\n      dup3\n        /* \"#utility.yul\":22403:22404   */\n      dup2\n        /* \"#utility.yul\":22400:22414   */\n      lt\n        /* \"#utility.yul\":22392:22600   */\n      iszero\n      tag_479\n      jumpi\n        /* \"#utility.yul\":22485:22494   */\n      dup5\n        /* \"#utility.yul\":22480:22483   */\n      dup10\n        /* \"#utility.yul\":22476:22495   */\n      add\n        /* \"#utility.yul\":22470:22496   */\n      mload\n        /* \"#utility.yul\":22462:22468   */\n      dup3\n        /* \"#utility.yul\":22455:22497   */\n      sstore\n        /* \"#utility.yul\":22536:22537   */\n      0x01\n        /* \"#utility.yul\":22528:22534   */\n      dup3\n        /* \"#utility.yul\":22524:22538   */\n      add\n        /* \"#utility.yul\":22514:22538   */\n      swap2\n      pop\n        /* \"#utility.yul\":22583:22585   */\n      0x20\n        /* \"#utility.yul\":22572:22581   */\n      dup6\n        /* \"#utility.yul\":22568:22586   */\n      add\n        /* \"#utility.yul\":22555:22586   */\n      swap5\n      pop\n        /* \"#utility.yul\":22429:22433   */\n      0x20\n        /* \"#utility.yul\":22426:22427   */\n      dup2\n        /* \"#utility.yul\":22422:22434   */\n      add\n        /* \"#utility.yul\":22417:22434   */\n      swap1\n      pop\n        /* \"#utility.yul\":22392:22600   */\n      jump(tag_477)\n    tag_479:\n        /* \"#utility.yul\":22628:22634   */\n      dup7\n        /* \"#utility.yul\":22619:22626   */\n      dup4\n        /* \"#utility.yul\":22616:22635   */\n      lt\n        /* \"#utility.yul\":22613:22792   */\n      iszero\n      tag_480\n      jumpi\n        /* \"#utility.yul\":22686:22695   */\n      dup5\n        /* \"#utility.yul\":22681:22684   */\n      dup10\n        /* \"#utility.yul\":22677:22696   */\n      add\n        /* \"#utility.yul\":22671:22697   */\n      mload\n        /* \"#utility.yul\":22729:22777   */\n      tag_481\n        /* \"#utility.yul\":22771:22775   */\n      0x1f\n        /* \"#utility.yul\":22763:22769   */\n      dup10\n        /* \"#utility.yul\":22759:22776   */\n      and\n        /* \"#utility.yul\":22748:22757   */\n      dup3\n        /* \"#utility.yul\":22729:22777   */\n      tag_240\n      jump\t// in\n    tag_481:\n        /* \"#utility.yul\":22721:22727   */\n      dup4\n        /* \"#utility.yul\":22714:22778   */\n      sstore\n        /* \"#utility.yul\":22636:22792   */\n      pop\n        /* \"#utility.yul\":22613:22792   */\n    tag_480:\n        /* \"#utility.yul\":22838:22839   */\n      0x01\n        /* \"#utility.yul\":22834:22835   */\n      0x02\n        /* \"#utility.yul\":22826:22832   */\n      dup9\n        /* \"#utility.yul\":22822:22836   */\n      mul\n        /* \"#utility.yul\":22818:22840   */\n      add\n        /* \"#utility.yul\":22812:22816   */\n      dup9\n        /* \"#utility.yul\":22805:22841   */\n      sstore\n        /* \"#utility.yul\":22240:22851   */\n      pop\n      pop\n      pop\n        /* \"#utility.yul\":22203:23090   */\n    tag_472:\n      pop\n        /* \"#utility.yul\":21793:23096   */\n      pop\n      pop\n      pop\n        /* \"#utility.yul\":21701:23096   */\n      pop\n      pop\n      jump\t// out\n\n    auxdata: 0xa26469706673582212205ac18d024de597b07121f00bd7f86f719568bfe160f0b8c1deaa1ae8eca66cb364736f6c634300081a0033\n}\n",
				"bytecode": {
					"linkReferences": {},
					"object": "6080604052348015600e575f80fd5b50611bbe8061001c5f395ff3fe608060405234801561000f575f80fd5b50600436106100fe575f3560e01c8063af22bf9411610095578063d21d159611610064578063d21d1596146102ce578063e8d857b0146102ea578063fb46d4c51461031d578063ff9913e814610339576100fe565b8063af22bf941461024a578063b88e318d1461027a578063c48d6d5e14610296578063cfe3d77a146102b2576100fe565b80635dfcaebf116100d15780635dfcaebf146101ae57806378bae934146101e25780639139cda5146101fe578063a9ed9cb81461022e576100fe565b80632637588e14610102578063365d1cf7146101325780634dbf27cc146101625780634dc0a6871461017e575b5f80fd5b61011c6004803603810190610117919061101a565b610355565b6040516101299190611072565b60405180910390f35b61014c600480360381019061014791906110be565b61037f565b60405161015991906112a5565b60405180910390f35b61017c600480360381019061017791906112c5565b6106ae565b005b610198600480360381019061019391906112f0565b61074c565b6040516101a591906112a5565b60405180910390f35b6101c860048036038101906101c391906110be565b610963565b6040516101d9959493929190611381565b60405180910390f35b6101fc60048036038101906101f79190611505565b610a73565b005b610218600480360381019061021391906110be565b610b48565b604051610225919061155f565b60405180910390f35b610248600480360381019061024391906112c5565b610b90565b005b610264600480360381019061025f91906110be565b610c22565b6040516102719190611578565b60405180910390f35b610294600480360381019061028f9190611591565b610c4d565b005b6102b060048036038101906102ab91906115fd565b610c5d565b005b6102cc60048036038101906102c79190611591565b610c6c565b005b6102e860048036038101906102e39190611505565b610df6565b005b61030460048036038101906102ff91906112f0565b610e04565b6040516103149493929190611657565b60405180910390f35b610337600480360381019061033291906116a1565b610ed4565b005b610353600480360381019061034e91906112c5565b610ee1565b005b6003602052815f5260405f20602052805f5260405f205f915091509054906101000a900460ff1681565b60605f8267ffffffffffffffff81111561039c5761039b6113e1565b5b6040519080825280602002602001820160405280156103d557816020015b6103c2610f74565b8152602001906001900390816103ba5790505b5090505f60015f8673ffffffffffffffffffffffffffffffffffffffff1673ffffffffffffffffffffffffffffffffffffffff1681526020019081526020015f2080548060200260200160405190810160405280929190818152602001828054801561045e57602002820191905f5260205f20905b81548152602001906001019080831161044a575b505050505090505f8411801561047657506005548411155b6104b5576040517f08c379a00000000000000000000000000000000000000000000000000000000081526004016104ac90611732565b60405180910390fd5b5f808560015f8973ffffffffffffffffffffffffffffffffffffffff1673ffffffffffffffffffffffffffffffffffffffff1681526020019081526020015f2080549050610503919061177d565b90505b60015f8873ffffffffffffffffffffffffffffffffffffffff1673ffffffffffffffffffffffffffffffffffffffff1681526020019081526020015f20805490508110156106a1575f805f858481518110610564576105636117b0565b5b602002602001015181526020019081526020015f2090506040518060800160405280825f01548152602001826001015f9054906101000a900473ffffffffffffffffffffffffffffffffffffffff1673ffffffffffffffffffffffffffffffffffffffff1681526020018260020180546105dd9061180a565b80601f01602080910402602001604051908101604052809291908181526020018280546106099061180a565b80156106545780601f1061062b57610100808354040283529160200191610654565b820191905f5260205f20905b81548152906001019060200180831161063757829003601f168201915b505050505081526020018260030154815250858481518110610679576106786117b0565b5b6020026020010181905250600183610691919061183a565b9250508080600101915050610506565b5082935050505092915050565b60045f3373ffffffffffffffffffffffffffffffffffffffff1673ffffffffffffffffffffffffffffffffffffffff1681526020019081526020015f2081908060018154018082558091505060019003905f5260205f20015f9091909190916101000a81548173ffffffffffffffffffffffffffffffffffffffff021916908373ffffffffffffffffffffffffffffffffffffffff16021790555050565b60605f8211801561075f57506005548211155b61079e576040517f08c379a0000000000000000000000000000000000000000000000000000000008152600401610795906118b7565b60405180910390fd5b5f8267ffffffffffffffff8111156107b9576107b86113e1565b5b6040519080825280602002602001820160405280156107f257816020015b6107df610f74565b8152602001906001900390816107d75790505b5090505f8084600554610805919061177d565b90505b6005548111610958575f805f8381526020019081526020015f2090506040518060800160405280825f01548152602001826001015f9054906101000a900473ffffffffffffffffffffffffffffffffffffffff1673ffffffffffffffffffffffffffffffffffffffff1681526020018260020180546108869061180a565b80601f01602080910402602001604051908101604052809291908181526020018280546108b29061180a565b80156108fd5780601f106108d4576101008083540402835291602001916108fd565b820191905f5260205f20905b8154815290600101906020018083116108e057829003601f168201915b505050505081526020018260030154815250848481518110610922576109216117b0565b5b60200260200101819052508280610938906118d5565b9350505060055f81548092919061094e906118d5565b9190505550610808565b508192505050919050565b6002602052815f5260405f20818154811061097c575f80fd5b905f5260205f2090600502015f9150915050805f0154908060010180546109a29061180a565b80601f01602080910402602001604051908101604052809291908181526020018280546109ce9061180a565b8015610a195780601f106109f057610100808354040283529160200191610a19565b820191905f5260205f20905b8154815290600101906020018083116109fc57829003601f168201915b505050505090806002015f9054906101000a900473ffffffffffffffffffffffffffffffffffffffff1690806003015f9054906101000a900473ffffffffffffffffffffffffffffffffffffffff16908060040154905085565b604051806080016040528060055481526020018373ffffffffffffffffffffffffffffffffffffffff168152602001828152602001428152505f8060055481526020019081526020015f205f820151815f01556020820151816001015f6101000a81548173ffffffffffffffffffffffffffffffffffffffff021916908373ffffffffffffffffffffffffffffffffffffffff1602179055506040820151816002019081610b219190611ab9565b50606082015181600301559050506001600554610b3e919061183a565b6005819055505050565b6004602052815f5260405f208181548110610b61575f80fd5b905f5260205f20015f915091509054906101000a900473ffffffffffffffffffffffffffffffffffffffff1681565b5f60035f3373ffffffffffffffffffffffffffffffffffffffff1673ffffffffffffffffffffffffffffffffffffffff1681526020019081526020015f205f8373ffffffffffffffffffffffffffffffffffffffff1673ffffffffffffffffffffffffffffffffffffffff1681526020019081526020015f205f6101000a81548160ff02191690831515021790555050565b6001602052815f5260405f208181548110610c3b575f80fd5b905f5260205f20015f91509150505481565b610c58838383610c6c565b505050565b610c68338284610c6c565b5050565b60025f8473ffffffffffffffffffffffffffffffffffffffff1673ffffffffffffffffffffffffffffffffffffffff1681526020019081526020015f206040518060a0016040528060065481526020018381526020018573ffffffffffffffffffffffffffffffffffffffff1681526020018473ffffffffffffffffffffffffffffffffffffffff16815260200142815250908060018154018082558091505060019003905f5260205f2090600502015f909190919091505f820151815f01556020820151816001019081610d419190611ab9565b506040820151816002015f6101000a81548173ffffffffffffffffffffffffffffffffffffffff021916908373ffffffffffffffffffffffffffffffffffffffff1602179055506060820151816003015f6101000a81548173ffffffffffffffffffffffffffffffffffffffff021916908373ffffffffffffffffffffffffffffffffffffffff16021790555060808201518160040155505060065f815480929190610dec906118d5565b9190505550505050565b610e008282610a73565b5050565b5f602052805f5260405f205f91509050805f015490806001015f9054906101000a900473ffffffffffffffffffffffffffffffffffffffff1690806002018054610e4d9061180a565b80601f0160208091040260200160405190810160405280929190818152602001828054610e799061180a565b8015610ec45780601f10610e9b57610100808354040283529160200191610ec4565b820191905f5260205f20905b815481529060010190602001808311610ea757829003601f168201915b5050505050908060030154905084565b610ede3382610a73565b50565b600160035f3373ffffffffffffffffffffffffffffffffffffffff1673ffffffffffffffffffffffffffffffffffffffff1681526020019081526020015f205f8373ffffffffffffffffffffffffffffffffffffffff1673ffffffffffffffffffffffffffffffffffffffff1681526020019081526020015f205f6101000a81548160ff02191690831515021790555050565b60405180608001604052805f81526020015f73ffffffffffffffffffffffffffffffffffffffff168152602001606081526020015f81525090565b5f604051905090565b5f80fd5b5f80fd5b5f73ffffffffffffffffffffffffffffffffffffffff82169050919050565b5f610fe982610fc0565b9050919050565b610ff981610fdf565b8114611003575f80fd5b50565b5f8135905061101481610ff0565b92915050565b5f80604083850312156110305761102f610fb8565b5b5f61103d85828601611006565b925050602061104e85828601611006565b9150509250929050565b5f8115159050919050565b61106c81611058565b82525050565b5f6020820190506110855f830184611063565b92915050565b5f819050919050565b61109d8161108b565b81146110a7575f80fd5b50565b5f813590506110b881611094565b92915050565b5f80604083850312156110d4576110d3610fb8565b5b5f6110e185828601611006565b92505060206110f2858286016110aa565b9150509250929050565b5f81519050919050565b5f82825260208201905092915050565b5f819050602082019050919050565b61112e8161108b565b82525050565b61113d81610fdf565b82525050565b5f81519050919050565b5f82825260208201905092915050565b8281835e5f83830152505050565b5f601f19601f8301169050919050565b5f61118582611143565b61118f818561114d565b935061119f81856020860161115d565b6111a88161116b565b840191505092915050565b5f608083015f8301516111c85f860182611125565b5060208301516111db6020860182611134565b50604083015184820360408601526111f3828261117b565b91505060608301516112086060860182611125565b508091505092915050565b5f61121e83836111b3565b905092915050565b5f602082019050919050565b5f61123c826110fc565b6112468185611106565b93508360208202850161125885611116565b805f5b8581101561129357848403895281516112748582611213565b945061127f83611226565b925060208a0199505060018101905061125b565b50829750879550505050505092915050565b5f6020820190508181035f8301526112bd8184611232565b905092915050565b5f602082840312156112da576112d9610fb8565b5b5f6112e784828501611006565b91505092915050565b5f6020828403121561130557611304610fb8565b5b5f611312848285016110aa565b91505092915050565b6113248161108b565b82525050565b5f82825260208201905092915050565b5f61134482611143565b61134e818561132a565b935061135e81856020860161115d565b6113678161116b565b840191505092915050565b61137b81610fdf565b82525050565b5f60a0820190506113945f83018861131b565b81810360208301526113a6818761133a565b90506113b56040830186611372565b6113c26060830185611372565b6113cf608083018461131b565b9695505050505050565b5f80fd5b5f80fd5b7f4e487b71000000000000000000000000000000000000000000000000000000005f52604160045260245ffd5b6114178261116b565b810181811067ffffffffffffffff82111715611436576114356113e1565b5b80604052505050565b5f611448610faf565b9050611454828261140e565b919050565b5f67ffffffffffffffff821115611473576114726113e1565b5b61147c8261116b565b9050602081019050919050565b828183375f83830152505050565b5f6114a96114a484611459565b61143f565b9050828152602081018484840111156114c5576114c46113dd565b5b6114d0848285611489565b509392505050565b5f82601f8301126114ec576114eb6113d9565b5b81356114fc848260208601611497565b91505092915050565b5f806040838503121561151b5761151a610fb8565b5b5f61152885828601611006565b925050602083013567ffffffffffffffff81111561154957611548610fbc565b5b611555858286016114d8565b9150509250929050565b5f6020820190506115725f830184611372565b92915050565b5f60208201905061158b5f83018461131b565b92915050565b5f805f606084860312156115a8576115a7610fb8565b5b5f6115b586828701611006565b93505060206115c686828701611006565b925050604084013567ffffffffffffffff8111156115e7576115e6610fbc565b5b6115f3868287016114d8565b9150509250925092565b5f806040838503121561161357611612610fb8565b5b5f83013567ffffffffffffffff8111156116305761162f610fbc565b5b61163c858286016114d8565b925050602061164d85828601611006565b9150509250929050565b5f60808201905061166a5f83018761131b565b6116776020830186611372565b8181036040830152611689818561133a565b9050611698606083018461131b565b95945050505050565b5f602082840312156116b6576116b5610fb8565b5b5f82013567ffffffffffffffff8111156116d3576116d2610fbc565b5b6116df848285016114d8565b91505092915050565b7f436f756e74206973206e6f7420646566696e65640000000000000000000000005f82015250565b5f61171c60148361132a565b9150611727826116e8565b602082019050919050565b5f6020820190508181035f83015261174981611710565b9050919050565b7f4e487b71000000000000000000000000000000000000000000000000000000005f52601160045260245ffd5b5f6117878261108b565b91506117928361108b565b92508282039050818111156117aa576117a9611750565b5b92915050565b7f4e487b71000000000000000000000000000000000000000000000000000000005f52603260045260245ffd5b7f4e487b71000000000000000000000000000000000000000000000000000000005f52602260045260245ffd5b5f600282049050600182168061182157607f821691505b602082108103611834576118336117dd565b5b50919050565b5f6118448261108b565b915061184f8361108b565b925082820190508082111561186757611866611750565b5b92915050565b7f436f756e74206964206e6f742070726f706572000000000000000000000000005f82015250565b5f6118a160138361132a565b91506118ac8261186d565b602082019050919050565b5f6020820190508181035f8301526118ce81611895565b9050919050565b5f6118df8261108b565b91507fffffffffffffffffffffffffffffffffffffffffffffffffffffffffffffffff820361191157611910611750565b5b600182019050919050565b5f819050815f5260205f209050919050565b5f6020601f8301049050919050565b5f82821b905092915050565b5f600883026119787fffffffffffffffffffffffffffffffffffffffffffffffffffffffffffffffff8261193d565b611982868361193d565b95508019841693508086168417925050509392505050565b5f819050919050565b5f6119bd6119b86119b38461108b565b61199a565b61108b565b9050919050565b5f819050919050565b6119d6836119a3565b6119ea6119e2826119c4565b848454611949565b825550505050565b5f90565b6119fe6119f2565b611a098184846119cd565b505050565b5b81811015611a2c57611a215f826119f6565b600181019050611a0f565b5050565b601f821115611a7157611a428161191c565b611a4b8461192e565b81016020851015611a5a578190505b611a6e611a668561192e565b830182611a0e565b50505b505050565b5f82821c905092915050565b5f611a915f1984600802611a76565b1980831691505092915050565b5f611aa98383611a82565b9150826002028217905092915050565b611ac282611143565b67ffffffffffffffff811115611adb57611ada6113e1565b5b611ae5825461180a565b611af0828285611a30565b5f60209050601f831160018114611b21575f8415611b0f578287015190505b611b198582611a9e565b865550611b80565b601f198416611b2f8661191c565b5f5b82811015611b5657848901518255600182019150602085019450602081019050611b31565b86831015611b735784890151611b6f601f891682611a82565b8355505b6001600288020188555050505b50505050505056fea26469706673582212205ac18d024de597b07121f00bd7f86f719568bfe160f0b8c1deaa1ae8eca66cb364736f6c634300081a0033",
					"opcodes": "PUSH1 0x80 PUSH1 0x40 MSTORE CALLVALUE DUP1 ISZERO PUSH1 0xE JUMPI PUSH0 DUP1 REVERT JUMPDEST POP PUSH2 0x1BBE DUP1 PUSH2 0x1C PUSH0 CODECOPY PUSH0 RETURN INVALID PUSH1 0x80 PUSH1 0x40 MSTORE CALLVALUE DUP1 ISZERO PUSH2 0xF JUMPI PUSH0 DUP1 REVERT JUMPDEST POP PUSH1 0x4 CALLDATASIZE LT PUSH2 0xFE JUMPI PUSH0 CALLDATALOAD PUSH1 0xE0 SHR DUP1 PUSH4 0xAF22BF94 GT PUSH2 0x95 JUMPI DUP1 PUSH4 0xD21D1596 GT PUSH2 0x64 JUMPI DUP1 PUSH4 0xD21D1596 EQ PUSH2 0x2CE JUMPI DUP1 PUSH4 0xE8D857B0 EQ PUSH2 0x2EA JUMPI DUP1 PUSH4 0xFB46D4C5 EQ PUSH2 0x31D JUMPI DUP1 PUSH4 0xFF9913E8 EQ PUSH2 0x339 JUMPI PUSH2 0xFE JUMP JUMPDEST DUP1 PUSH4 0xAF22BF94 EQ PUSH2 0x24A JUMPI DUP1 PUSH4 0xB88E318D EQ PUSH2 0x27A JUMPI DUP1 PUSH4 0xC48D6D5E EQ PUSH2 0x296 JUMPI DUP1 PUSH4 0xCFE3D77A EQ PUSH2 0x2B2 JUMPI PUSH2 0xFE JUMP JUMPDEST DUP1 PUSH4 0x5DFCAEBF GT PUSH2 0xD1 JUMPI DUP1 PUSH4 0x5DFCAEBF EQ PUSH2 0x1AE JUMPI DUP1 PUSH4 0x78BAE934 EQ PUSH2 0x1E2 JUMPI DUP1 PUSH4 0x9139CDA5 EQ PUSH2 0x1FE JUMPI DUP1 PUSH4 0xA9ED9CB8 EQ PUSH2 0x22E JUMPI PUSH2 0xFE JUMP JUMPDEST DUP1 PUSH4 0x2637588E EQ PUSH2 0x102 JUMPI DUP1 PUSH4 0x365D1CF7 EQ PUSH2 0x132 JUMPI DUP1 PUSH4 0x4DBF27CC EQ PUSH2 0x162 JUMPI DUP1 PUSH4 0x4DC0A687 EQ PUSH2 0x17E JUMPI JUMPDEST PUSH0 DUP1 REVERT JUMPDEST PUSH2 0x11C PUSH1 0x4 DUP1 CALLDATASIZE SUB DUP2 ADD SWAP1 PUSH2 0x117 SWAP2 SWAP1 PUSH2 0x101A JUMP JUMPDEST PUSH2 0x355 JUMP JUMPDEST PUSH1 0x40 MLOAD PUSH2 0x129 SWAP2 SWAP1 PUSH2 0x1072 JUMP JUMPDEST PUSH1 0x40 MLOAD DUP1 SWAP2 SUB SWAP1 RETURN JUMPDEST PUSH2 0x14C PUSH1 0x4 DUP1 CALLDATASIZE SUB DUP2 ADD SWAP1 PUSH2 0x147 SWAP2 SWAP1 PUSH2 0x10BE JUMP JUMPDEST PUSH2 0x37F JUMP JUMPDEST PUSH1 0x40 MLOAD PUSH2 0x159 SWAP2 SWAP1 PUSH2 0x12A5 JUMP JUMPDEST PUSH1 0x40 MLOAD DUP1 SWAP2 SUB SWAP1 RETURN JUMPDEST PUSH2 0x17C PUSH1 0x4 DUP1 CALLDATASIZE SUB DUP2 ADD SWAP1 PUSH2 0x177 SWAP2 SWAP1 PUSH2 0x12C5 JUMP JUMPDEST PUSH2 0x6AE JUMP JUMPDEST STOP JUMPDEST PUSH2 0x198 PUSH1 0x4 DUP1 CALLDATASIZE SUB DUP2 ADD SWAP1 PUSH2 0x193 SWAP2 SWAP1 PUSH2 0x12F0 JUMP JUMPDEST PUSH2 0x74C JUMP JUMPDEST PUSH1 0x40 MLOAD PUSH2 0x1A5 SWAP2 SWAP1 PUSH2 0x12A5 JUMP JUMPDEST PUSH1 0x40 MLOAD DUP1 SWAP2 SUB SWAP1 RETURN JUMPDEST PUSH2 0x1C8 PUSH1 0x4 DUP1 CALLDATASIZE SUB DUP2 ADD SWAP1 PUSH2 0x1C3 SWAP2 SWAP1 PUSH2 0x10BE JUMP JUMPDEST PUSH2 0x963 JUMP JUMPDEST PUSH1 0x40 MLOAD PUSH2 0x1D9 SWAP6 SWAP5 SWAP4 SWAP3 SWAP2 SWAP1 PUSH2 0x1381 JUMP JUMPDEST PUSH1 0x40 MLOAD DUP1 SWAP2 SUB SWAP1 RETURN JUMPDEST PUSH2 0x1FC PUSH1 0x4 DUP1 CALLDATASIZE SUB DUP2 ADD SWAP1 PUSH2 0x1F7 SWAP2 SWAP1 PUSH2 0x1505 JUMP JUMPDEST PUSH2 0xA73 JUMP JUMPDEST STOP JUMPDEST PUSH2 0x218 PUSH1 0x4 DUP1 CALLDATASIZE SUB DUP2 ADD SWAP1 PUSH2 0x213 SWAP2 SWAP1 PUSH2 0x10BE JUMP JUMPDEST PUSH2 0xB48 JUMP JUMPDEST PUSH1 0x40 MLOAD PUSH2 0x225 SWAP2 SWAP1 PUSH2 0x155F JUMP JUMPDEST PUSH1 0x40 MLOAD DUP1 SWAP2 SUB SWAP1 RETURN JUMPDEST PUSH2 0x248 PUSH1 0x4 DUP1 CALLDATASIZE SUB DUP2 ADD SWAP1 PUSH2 0x243 SWAP2 SWAP1 PUSH2 0x12C5 JUMP JUMPDEST PUSH2 0xB90 JUMP JUMPDEST STOP JUMPDEST PUSH2 0x264 PUSH1 0x4 DUP1 CALLDATASIZE SUB DUP2 ADD SWAP1 PUSH2 0x25F SWAP2 SWAP1 PUSH2 0x10BE JUMP JUMPDEST PUSH2 0xC22 JUMP JUMPDEST PUSH1 0x40 MLOAD PUSH2 0x271 SWAP2 SWAP1 PUSH2 0x1578 JUMP JUMPDEST PUSH1 0x40 MLOAD DUP1 SWAP2 SUB SWAP1 RETURN JUMPDEST PUSH2 0x294 PUSH1 0x4 DUP1 CALLDATASIZE SUB DUP2 ADD SWAP1 PUSH2 0x28F SWAP2 SWAP1 PUSH2 0x1591 JUMP JUMPDEST PUSH2 0xC4D JUMP JUMPDEST STOP JUMPDEST PUSH2 0x2B0 PUSH1 0x4 DUP1 CALLDATASIZE SUB DUP2 ADD SWAP1 PUSH2 0x2AB SWAP2 SWAP1 PUSH2 0x15FD JUMP JUMPDEST PUSH2 0xC5D JUMP JUMPDEST STOP JUMPDEST PUSH2 0x2CC PUSH1 0x4 DUP1 CALLDATASIZE SUB DUP2 ADD SWAP1 PUSH2 0x2C7 SWAP2 SWAP1 PUSH2 0x1591 JUMP JUMPDEST PUSH2 0xC6C JUMP JUMPDEST STOP JUMPDEST PUSH2 0x2E8 PUSH1 0x4 DUP1 CALLDATASIZE SUB DUP2 ADD SWAP1 PUSH2 0x2E3 SWAP2 SWAP1 PUSH2 0x1505 JUMP JUMPDEST PUSH2 0xDF6 JUMP JUMPDEST STOP JUMPDEST PUSH2 0x304 PUSH1 0x4 DUP1 CALLDATASIZE SUB DUP2 ADD SWAP1 PUSH2 0x2FF SWAP2 SWAP1 PUSH2 0x12F0 JUMP JUMPDEST PUSH2 0xE04 JUMP JUMPDEST PUSH1 0x40 MLOAD PUSH2 0x314 SWAP5 SWAP4 SWAP3 SWAP2 SWAP1 PUSH2 0x1657 JUMP JUMPDEST PUSH1 0x40 MLOAD DUP1 SWAP2 SUB SWAP1 RETURN JUMPDEST PUSH2 0x337 PUSH1 0x4 DUP1 CALLDATASIZE SUB DUP2 ADD SWAP1 PUSH2 0x332 SWAP2 SWAP1 PUSH2 0x16A1 JUMP JUMPDEST PUSH2 0xED4 JUMP JUMPDEST STOP JUMPDEST PUSH2 0x353 PUSH1 0x4 DUP1 CALLDATASIZE SUB DUP2 ADD SWAP1 PUSH2 0x34E SWAP2 SWAP1 PUSH2 0x12C5 JUMP JUMPDEST PUSH2 0xEE1 JUMP JUMPDEST STOP JUMPDEST PUSH1 0x3 PUSH1 0x20 MSTORE DUP2 PUSH0 MSTORE PUSH1 0x40 PUSH0 KECCAK256 PUSH1 0x20 MSTORE DUP1 PUSH0 MSTORE PUSH1 0x40 PUSH0 KECCAK256 PUSH0 SWAP2 POP SWAP2 POP SWAP1 SLOAD SWAP1 PUSH2 0x100 EXP SWAP1 DIV PUSH1 0xFF AND DUP2 JUMP JUMPDEST PUSH1 0x60 PUSH0 DUP3 PUSH8 0xFFFFFFFFFFFFFFFF DUP2 GT ISZERO PUSH2 0x39C JUMPI PUSH2 0x39B PUSH2 0x13E1 JUMP JUMPDEST JUMPDEST PUSH1 0x40 MLOAD SWAP1 DUP1 DUP3 MSTORE DUP1 PUSH1 0x20 MUL PUSH1 0x20 ADD DUP3 ADD PUSH1 0x40 MSTORE DUP1 ISZERO PUSH2 0x3D5 JUMPI DUP2 PUSH1 0x20 ADD JUMPDEST PUSH2 0x3C2 PUSH2 0xF74 JUMP JUMPDEST DUP2 MSTORE PUSH1 0x20 ADD SWAP1 PUSH1 0x1 SWAP1 SUB SWAP1 DUP2 PUSH2 0x3BA JUMPI SWAP1 POP JUMPDEST POP SWAP1 POP PUSH0 PUSH1 0x1 PUSH0 DUP7 PUSH20 0xFFFFFFFFFFFFFFFFFFFFFFFFFFFFFFFFFFFFFFFF AND PUSH20 0xFFFFFFFFFFFFFFFFFFFFFFFFFFFFFFFFFFFFFFFF AND DUP2 MSTORE PUSH1 0x20 ADD SWAP1 DUP2 MSTORE PUSH1 0x20 ADD PUSH0 KECCAK256 DUP1 SLOAD DUP1 PUSH1 0x20 MUL PUSH1 0x20 ADD PUSH1 0x40 MLOAD SWAP1 DUP2 ADD PUSH1 0x40 MSTORE DUP1 SWAP3 SWAP2 SWAP1 DUP2 DUP2 MSTORE PUSH1 0x20 ADD DUP3 DUP1 SLOAD DUP1 ISZERO PUSH2 0x45E JUMPI PUSH1 0x20 MUL DUP3 ADD SWAP2 SWAP1 PUSH0 MSTORE PUSH1 0x20 PUSH0 KECCAK256 SWAP1 JUMPDEST DUP2 SLOAD DUP2 MSTORE PUSH1 0x20 ADD SWAP1 PUSH1 0x1 ADD SWAP1 DUP1 DUP4 GT PUSH2 0x44A JUMPI JUMPDEST POP POP POP POP POP SWAP1 POP PUSH0 DUP5 GT DUP1 ISZERO PUSH2 0x476 JUMPI POP PUSH1 0x5 SLOAD DUP5 GT ISZERO JUMPDEST PUSH2 0x4B5 JUMPI PUSH1 0x40 MLOAD PUSH32 0x8C379A000000000000000000000000000000000000000000000000000000000 DUP2 MSTORE PUSH1 0x4 ADD PUSH2 0x4AC SWAP1 PUSH2 0x1732 JUMP JUMPDEST PUSH1 0x40 MLOAD DUP1 SWAP2 SUB SWAP1 REVERT JUMPDEST PUSH0 DUP1 DUP6 PUSH1 0x1 PUSH0 DUP10 PUSH20 0xFFFFFFFFFFFFFFFFFFFFFFFFFFFFFFFFFFFFFFFF AND PUSH20 0xFFFFFFFFFFFFFFFFFFFFFFFFFFFFFFFFFFFFFFFF AND DUP2 MSTORE PUSH1 0x20 ADD SWAP1 DUP2 MSTORE PUSH1 0x20 ADD PUSH0 KECCAK256 DUP1 SLOAD SWAP1 POP PUSH2 0x503 SWAP2 SWAP1 PUSH2 0x177D JUMP JUMPDEST SWAP1 POP JUMPDEST PUSH1 0x1 PUSH0 DUP9 PUSH20 0xFFFFFFFFFFFFFFFFFFFFFFFFFFFFFFFFFFFFFFFF AND PUSH20 0xFFFFFFFFFFFFFFFFFFFFFFFFFFFFFFFFFFFFFFFF AND DUP2 MSTORE PUSH1 0x20 ADD SWAP1 DUP2 MSTORE PUSH1 0x20 ADD PUSH0 KECCAK256 DUP1 SLOAD SWAP1 POP DUP2 LT ISZERO PUSH2 0x6A1 JUMPI PUSH0 DUP1 PUSH0 DUP6 DUP5 DUP2 MLOAD DUP2 LT PUSH2 0x564 JUMPI PUSH2 0x563 PUSH2 0x17B0 JUMP JUMPDEST JUMPDEST PUSH1 0x20 MUL PUSH1 0x20 ADD ADD MLOAD DUP2 MSTORE PUSH1 0x20 ADD SWAP1 DUP2 MSTORE PUSH1 0x20 ADD PUSH0 KECCAK256 SWAP1 POP PUSH1 0x40 MLOAD DUP1 PUSH1 0x80 ADD PUSH1 0x40 MSTORE DUP1 DUP3 PUSH0 ADD SLOAD DUP2 MSTORE PUSH1 0x20 ADD DUP3 PUSH1 0x1 ADD PUSH0 SWAP1 SLOAD SWAP1 PUSH2 0x100 EXP SWAP1 DIV PUSH20 0xFFFFFFFFFFFFFFFFFFFFFFFFFFFFFFFFFFFFFFFF AND PUSH20 0xFFFFFFFFFFFFFFFFFFFFFFFFFFFFFFFFFFFFFFFF AND DUP2 MSTORE PUSH1 0x20 ADD DUP3 PUSH1 0x2 ADD DUP1 SLOAD PUSH2 0x5DD SWAP1 PUSH2 0x180A JUMP JUMPDEST DUP1 PUSH1 0x1F ADD PUSH1 0x20 DUP1 SWAP2 DIV MUL PUSH1 0x20 ADD PUSH1 0x40 MLOAD SWAP1 DUP2 ADD PUSH1 0x40 MSTORE DUP1 SWAP3 SWAP2 SWAP1 DUP2 DUP2 MSTORE PUSH1 0x20 ADD DUP3 DUP1 SLOAD PUSH2 0x609 SWAP1 PUSH2 0x180A JUMP JUMPDEST DUP1 ISZERO PUSH2 0x654 JUMPI DUP1 PUSH1 0x1F LT PUSH2 0x62B JUMPI PUSH2 0x100 DUP1 DUP4 SLOAD DIV MUL DUP4 MSTORE SWAP2 PUSH1 0x20 ADD SWAP2 PUSH2 0x654 JUMP JUMPDEST DUP3 ADD SWAP2 SWAP1 PUSH0 MSTORE PUSH1 0x20 PUSH0 KECCAK256 SWAP1 JUMPDEST DUP2 SLOAD DUP2 MSTORE SWAP1 PUSH1 0x1 ADD SWAP1 PUSH1 0x20 ADD DUP1 DUP4 GT PUSH2 0x637 JUMPI DUP3 SWAP1 SUB PUSH1 0x1F AND DUP3 ADD SWAP2 JUMPDEST POP POP POP POP POP DUP2 MSTORE PUSH1 0x20 ADD DUP3 PUSH1 0x3 ADD SLOAD DUP2 MSTORE POP DUP6 DUP5 DUP2 MLOAD DUP2 LT PUSH2 0x679 JUMPI PUSH2 0x678 PUSH2 0x17B0 JUMP JUMPDEST JUMPDEST PUSH1 0x20 MUL PUSH1 0x20 ADD ADD DUP2 SWAP1 MSTORE POP PUSH1 0x1 DUP4 PUSH2 0x691 SWAP2 SWAP1 PUSH2 0x183A JUMP JUMPDEST SWAP3 POP POP DUP1 DUP1 PUSH1 0x1 ADD SWAP2 POP POP PUSH2 0x506 JUMP JUMPDEST POP DUP3 SWAP4 POP POP POP POP SWAP3 SWAP2 POP POP JUMP JUMPDEST PUSH1 0x4 PUSH0 CALLER PUSH20 0xFFFFFFFFFFFFFFFFFFFFFFFFFFFFFFFFFFFFFFFF AND PUSH20 0xFFFFFFFFFFFFFFFFFFFFFFFFFFFFFFFFFFFFFFFF AND DUP2 MSTORE PUSH1 0x20 ADD SWAP1 DUP2 MSTORE PUSH1 0x20 ADD PUSH0 KECCAK256 DUP2 SWAP1 DUP1 PUSH1 0x1 DUP2 SLOAD ADD DUP1 DUP3 SSTORE DUP1 SWAP2 POP POP PUSH1 0x1 SWAP1 SUB SWAP1 PUSH0 MSTORE PUSH1 0x20 PUSH0 KECCAK256 ADD PUSH0 SWAP1 SWAP2 SWAP1 SWAP2 SWAP1 SWAP2 PUSH2 0x100 EXP DUP2 SLOAD DUP2 PUSH20 0xFFFFFFFFFFFFFFFFFFFFFFFFFFFFFFFFFFFFFFFF MUL NOT AND SWAP1 DUP4 PUSH20 0xFFFFFFFFFFFFFFFFFFFFFFFFFFFFFFFFFFFFFFFF AND MUL OR SWAP1 SSTORE POP POP JUMP JUMPDEST PUSH1 0x60 PUSH0 DUP3 GT DUP1 ISZERO PUSH2 0x75F JUMPI POP PUSH1 0x5 SLOAD DUP3 GT ISZERO JUMPDEST PUSH2 0x79E JUMPI PUSH1 0x40 MLOAD PUSH32 0x8C379A000000000000000000000000000000000000000000000000000000000 DUP2 MSTORE PUSH1 0x4 ADD PUSH2 0x795 SWAP1 PUSH2 0x18B7 JUMP JUMPDEST PUSH1 0x40 MLOAD DUP1 SWAP2 SUB SWAP1 REVERT JUMPDEST PUSH0 DUP3 PUSH8 0xFFFFFFFFFFFFFFFF DUP2 GT ISZERO PUSH2 0x7B9 JUMPI PUSH2 0x7B8 PUSH2 0x13E1 JUMP JUMPDEST JUMPDEST PUSH1 0x40 MLOAD SWAP1 DUP1 DUP3 MSTORE DUP1 PUSH1 0x20 MUL PUSH1 0x20 ADD DUP3 ADD PUSH1 0x40 MSTORE DUP1 ISZERO PUSH2 0x7F2 JUMPI DUP2 PUSH1 0x20 ADD JUMPDEST PUSH2 0x7DF PUSH2 0xF74 JUMP JUMPDEST DUP2 MSTORE PUSH1 0x20 ADD SWAP1 PUSH1 0x1 SWAP1 SUB SWAP1 DUP2 PUSH2 0x7D7 JUMPI SWAP1 POP JUMPDEST POP SWAP1 POP PUSH0 DUP1 DUP5 PUSH1 0x5 SLOAD PUSH2 0x805 SWAP2 SWAP1 PUSH2 0x177D JUMP JUMPDEST SWAP1 POP JUMPDEST PUSH1 0x5 SLOAD DUP2 GT PUSH2 0x958 JUMPI PUSH0 DUP1 PUSH0 DUP4 DUP2 MSTORE PUSH1 0x20 ADD SWAP1 DUP2 MSTORE PUSH1 0x20 ADD PUSH0 KECCAK256 SWAP1 POP PUSH1 0x40 MLOAD DUP1 PUSH1 0x80 ADD PUSH1 0x40 MSTORE DUP1 DUP3 PUSH0 ADD SLOAD DUP2 MSTORE PUSH1 0x20 ADD DUP3 PUSH1 0x1 ADD PUSH0 SWAP1 SLOAD SWAP1 PUSH2 0x100 EXP SWAP1 DIV PUSH20 0xFFFFFFFFFFFFFFFFFFFFFFFFFFFFFFFFFFFFFFFF AND PUSH20 0xFFFFFFFFFFFFFFFFFFFFFFFFFFFFFFFFFFFFFFFF AND DUP2 MSTORE PUSH1 0x20 ADD DUP3 PUSH1 0x2 ADD DUP1 SLOAD PUSH2 0x886 SWAP1 PUSH2 0x180A JUMP JUMPDEST DUP1 PUSH1 0x1F ADD PUSH1 0x20 DUP1 SWAP2 DIV MUL PUSH1 0x20 ADD PUSH1 0x40 MLOAD SWAP1 DUP2 ADD PUSH1 0x40 MSTORE DUP1 SWAP3 SWAP2 SWAP1 DUP2 DUP2 MSTORE PUSH1 0x20 ADD DUP3 DUP1 SLOAD PUSH2 0x8B2 SWAP1 PUSH2 0x180A JUMP JUMPDEST DUP1 ISZERO PUSH2 0x8FD JUMPI DUP1 PUSH1 0x1F LT PUSH2 0x8D4 JUMPI PUSH2 0x100 DUP1 DUP4 SLOAD DIV MUL DUP4 MSTORE SWAP2 PUSH1 0x20 ADD SWAP2 PUSH2 0x8FD JUMP JUMPDEST DUP3 ADD SWAP2 SWAP1 PUSH0 MSTORE PUSH1 0x20 PUSH0 KECCAK256 SWAP1 JUMPDEST DUP2 SLOAD DUP2 MSTORE SWAP1 PUSH1 0x1 ADD SWAP1 PUSH1 0x20 ADD DUP1 DUP4 GT PUSH2 0x8E0 JUMPI DUP3 SWAP1 SUB PUSH1 0x1F AND DUP3 ADD SWAP2 JUMPDEST POP POP POP POP POP DUP2 MSTORE PUSH1 0x20 ADD DUP3 PUSH1 0x3 ADD SLOAD DUP2 MSTORE POP DUP5 DUP5 DUP2 MLOAD DUP2 LT PUSH2 0x922 JUMPI PUSH2 0x921 PUSH2 0x17B0 JUMP JUMPDEST JUMPDEST PUSH1 0x20 MUL PUSH1 0x20 ADD ADD DUP2 SWAP1 MSTORE POP DUP3 DUP1 PUSH2 0x938 SWAP1 PUSH2 0x18D5 JUMP JUMPDEST SWAP4 POP POP POP PUSH1 0x5 PUSH0 DUP2 SLOAD DUP1 SWAP3 SWAP2 SWAP1 PUSH2 0x94E SWAP1 PUSH2 0x18D5 JUMP JUMPDEST SWAP2 SWAP1 POP SSTORE POP PUSH2 0x808 JUMP JUMPDEST POP DUP2 SWAP3 POP POP POP SWAP2 SWAP1 POP JUMP JUMPDEST PUSH1 0x2 PUSH1 0x20 MSTORE DUP2 PUSH0 MSTORE PUSH1 0x40 PUSH0 KECCAK256 DUP2 DUP2 SLOAD DUP2 LT PUSH2 0x97C JUMPI PUSH0 DUP1 REVERT JUMPDEST SWAP1 PUSH0 MSTORE PUSH1 0x20 PUSH0 KECCAK256 SWAP1 PUSH1 0x5 MUL ADD PUSH0 SWAP2 POP SWAP2 POP POP DUP1 PUSH0 ADD SLOAD SWAP1 DUP1 PUSH1 0x1 ADD DUP1 SLOAD PUSH2 0x9A2 SWAP1 PUSH2 0x180A JUMP JUMPDEST DUP1 PUSH1 0x1F ADD PUSH1 0x20 DUP1 SWAP2 DIV MUL PUSH1 0x20 ADD PUSH1 0x40 MLOAD SWAP1 DUP2 ADD PUSH1 0x40 MSTORE DUP1 SWAP3 SWAP2 SWAP1 DUP2 DUP2 MSTORE PUSH1 0x20 ADD DUP3 DUP1 SLOAD PUSH2 0x9CE SWAP1 PUSH2 0x180A JUMP JUMPDEST DUP1 ISZERO PUSH2 0xA19 JUMPI DUP1 PUSH1 0x1F LT PUSH2 0x9F0 JUMPI PUSH2 0x100 DUP1 DUP4 SLOAD DIV MUL DUP4 MSTORE SWAP2 PUSH1 0x20 ADD SWAP2 PUSH2 0xA19 JUMP JUMPDEST DUP3 ADD SWAP2 SWAP1 PUSH0 MSTORE PUSH1 0x20 PUSH0 KECCAK256 SWAP1 JUMPDEST DUP2 SLOAD DUP2 MSTORE SWAP1 PUSH1 0x1 ADD SWAP1 PUSH1 0x20 ADD DUP1 DUP4 GT PUSH2 0x9FC JUMPI DUP3 SWAP1 SUB PUSH1 0x1F AND DUP3 ADD SWAP2 JUMPDEST POP POP POP POP POP SWAP1 DUP1 PUSH1 0x2 ADD PUSH0 SWAP1 SLOAD SWAP1 PUSH2 0x100 EXP SWAP1 DIV PUSH20 0xFFFFFFFFFFFFFFFFFFFFFFFFFFFFFFFFFFFFFFFF AND SWAP1 DUP1 PUSH1 0x3 ADD PUSH0 SWAP1 SLOAD SWAP1 PUSH2 0x100 EXP SWAP1 DIV PUSH20 0xFFFFFFFFFFFFFFFFFFFFFFFFFFFFFFFFFFFFFFFF AND SWAP1 DUP1 PUSH1 0x4 ADD SLOAD SWAP1 POP DUP6 JUMP JUMPDEST PUSH1 0x40 MLOAD DUP1 PUSH1 0x80 ADD PUSH1 0x40 MSTORE DUP1 PUSH1 0x5 SLOAD DUP2 MSTORE PUSH1 0x20 ADD DUP4 PUSH20 0xFFFFFFFFFFFFFFFFFFFFFFFFFFFFFFFFFFFFFFFF AND DUP2 MSTORE PUSH1 0x20 ADD DUP3 DUP2 MSTORE PUSH1 0x20 ADD TIMESTAMP DUP2 MSTORE POP PUSH0 DUP1 PUSH1 0x5 SLOAD DUP2 MSTORE PUSH1 0x20 ADD SWAP1 DUP2 MSTORE PUSH1 0x20 ADD PUSH0 KECCAK256 PUSH0 DUP3 ADD MLOAD DUP2 PUSH0 ADD SSTORE PUSH1 0x20 DUP3 ADD MLOAD DUP2 PUSH1 0x1 ADD PUSH0 PUSH2 0x100 EXP DUP2 SLOAD DUP2 PUSH20 0xFFFFFFFFFFFFFFFFFFFFFFFFFFFFFFFFFFFFFFFF MUL NOT AND SWAP1 DUP4 PUSH20 0xFFFFFFFFFFFFFFFFFFFFFFFFFFFFFFFFFFFFFFFF AND MUL OR SWAP1 SSTORE POP PUSH1 0x40 DUP3 ADD MLOAD DUP2 PUSH1 0x2 ADD SWAP1 DUP2 PUSH2 0xB21 SWAP2 SWAP1 PUSH2 0x1AB9 JUMP JUMPDEST POP PUSH1 0x60 DUP3 ADD MLOAD DUP2 PUSH1 0x3 ADD SSTORE SWAP1 POP POP PUSH1 0x1 PUSH1 0x5 SLOAD PUSH2 0xB3E SWAP2 SWAP1 PUSH2 0x183A JUMP JUMPDEST PUSH1 0x5 DUP2 SWAP1 SSTORE POP POP POP JUMP JUMPDEST PUSH1 0x4 PUSH1 0x20 MSTORE DUP2 PUSH0 MSTORE PUSH1 0x40 PUSH0 KECCAK256 DUP2 DUP2 SLOAD DUP2 LT PUSH2 0xB61 JUMPI PUSH0 DUP1 REVERT JUMPDEST SWAP1 PUSH0 MSTORE PUSH1 0x20 PUSH0 KECCAK256 ADD PUSH0 SWAP2 POP SWAP2 POP SWAP1 SLOAD SWAP1 PUSH2 0x100 EXP SWAP1 DIV PUSH20 0xFFFFFFFFFFFFFFFFFFFFFFFFFFFFFFFFFFFFFFFF AND DUP2 JUMP JUMPDEST PUSH0 PUSH1 0x3 PUSH0 CALLER PUSH20 0xFFFFFFFFFFFFFFFFFFFFFFFFFFFFFFFFFFFFFFFF AND PUSH20 0xFFFFFFFFFFFFFFFFFFFFFFFFFFFFFFFFFFFFFFFF AND DUP2 MSTORE PUSH1 0x20 ADD SWAP1 DUP2 MSTORE PUSH1 0x20 ADD PUSH0 KECCAK256 PUSH0 DUP4 PUSH20 0xFFFFFFFFFFFFFFFFFFFFFFFFFFFFFFFFFFFFFFFF AND PUSH20 0xFFFFFFFFFFFFFFFFFFFFFFFFFFFFFFFFFFFFFFFF AND DUP2 MSTORE PUSH1 0x20 ADD SWAP1 DUP2 MSTORE PUSH1 0x20 ADD PUSH0 KECCAK256 PUSH0 PUSH2 0x100 EXP DUP2 SLOAD DUP2 PUSH1 0xFF MUL NOT AND SWAP1 DUP4 ISZERO ISZERO MUL OR SWAP1 SSTORE POP POP JUMP JUMPDEST PUSH1 0x1 PUSH1 0x20 MSTORE DUP2 PUSH0 MSTORE PUSH1 0x40 PUSH0 KECCAK256 DUP2 DUP2 SLOAD DUP2 LT PUSH2 0xC3B JUMPI PUSH0 DUP1 REVERT JUMPDEST SWAP1 PUSH0 MSTORE PUSH1 0x20 PUSH0 KECCAK256 ADD PUSH0 SWAP2 POP SWAP2 POP POP SLOAD DUP2 JUMP JUMPDEST PUSH2 0xC58 DUP4 DUP4 DUP4 PUSH2 0xC6C JUMP JUMPDEST POP POP POP JUMP JUMPDEST PUSH2 0xC68 CALLER DUP3 DUP5 PUSH2 0xC6C JUMP JUMPDEST POP POP JUMP JUMPDEST PUSH1 0x2 PUSH0 DUP5 PUSH20 0xFFFFFFFFFFFFFFFFFFFFFFFFFFFFFFFFFFFFFFFF AND PUSH20 0xFFFFFFFFFFFFFFFFFFFFFFFFFFFFFFFFFFFFFFFF AND DUP2 MSTORE PUSH1 0x20 ADD SWAP1 DUP2 MSTORE PUSH1 0x20 ADD PUSH0 KECCAK256 PUSH1 0x40 MLOAD DUP1 PUSH1 0xA0 ADD PUSH1 0x40 MSTORE DUP1 PUSH1 0x6 SLOAD DUP2 MSTORE PUSH1 0x20 ADD DUP4 DUP2 MSTORE PUSH1 0x20 ADD DUP6 PUSH20 0xFFFFFFFFFFFFFFFFFFFFFFFFFFFFFFFFFFFFFFFF AND DUP2 MSTORE PUSH1 0x20 ADD DUP5 PUSH20 0xFFFFFFFFFFFFFFFFFFFFFFFFFFFFFFFFFFFFFFFF AND DUP2 MSTORE PUSH1 0x20 ADD TIMESTAMP DUP2 MSTORE POP SWAP1 DUP1 PUSH1 0x1 DUP2 SLOAD ADD DUP1 DUP3 SSTORE DUP1 SWAP2 POP POP PUSH1 0x1 SWAP1 SUB SWAP1 PUSH0 MSTORE PUSH1 0x20 PUSH0 KECCAK256 SWAP1 PUSH1 0x5 MUL ADD PUSH0 SWAP1 SWAP2 SWAP1 SWAP2 SWAP1 SWAP2 POP PUSH0 DUP3 ADD MLOAD DUP2 PUSH0 ADD SSTORE PUSH1 0x20 DUP3 ADD MLOAD DUP2 PUSH1 0x1 ADD SWAP1 DUP2 PUSH2 0xD41 SWAP2 SWAP1 PUSH2 0x1AB9 JUMP JUMPDEST POP PUSH1 0x40 DUP3 ADD MLOAD DUP2 PUSH1 0x2 ADD PUSH0 PUSH2 0x100 EXP DUP2 SLOAD DUP2 PUSH20 0xFFFFFFFFFFFFFFFFFFFFFFFFFFFFFFFFFFFFFFFF MUL NOT AND SWAP1 DUP4 PUSH20 0xFFFFFFFFFFFFFFFFFFFFFFFFFFFFFFFFFFFFFFFF AND MUL OR SWAP1 SSTORE POP PUSH1 0x60 DUP3 ADD MLOAD DUP2 PUSH1 0x3 ADD PUSH0 PUSH2 0x100 EXP DUP2 SLOAD DUP2 PUSH20 0xFFFFFFFFFFFFFFFFFFFFFFFFFFFFFFFFFFFFFFFF MUL NOT AND SWAP1 DUP4 PUSH20 0xFFFFFFFFFFFFFFFFFFFFFFFFFFFFFFFFFFFFFFFF AND MUL OR SWAP1 SSTORE POP PUSH1 0x80 DUP3 ADD MLOAD DUP2 PUSH1 0x4 ADD SSTORE POP POP PUSH1 0x6 PUSH0 DUP2 SLOAD DUP1 SWAP3 SWAP2 SWAP1 PUSH2 0xDEC SWAP1 PUSH2 0x18D5 JUMP JUMPDEST SWAP2 SWAP1 POP SSTORE POP POP POP POP JUMP JUMPDEST PUSH2 0xE00 DUP3 DUP3 PUSH2 0xA73 JUMP JUMPDEST POP POP JUMP JUMPDEST PUSH0 PUSH1 0x20 MSTORE DUP1 PUSH0 MSTORE PUSH1 0x40 PUSH0 KECCAK256 PUSH0 SWAP2 POP SWAP1 POP DUP1 PUSH0 ADD SLOAD SWAP1 DUP1 PUSH1 0x1 ADD PUSH0 SWAP1 SLOAD SWAP1 PUSH2 0x100 EXP SWAP1 DIV PUSH20 0xFFFFFFFFFFFFFFFFFFFFFFFFFFFFFFFFFFFFFFFF AND SWAP1 DUP1 PUSH1 0x2 ADD DUP1 SLOAD PUSH2 0xE4D SWAP1 PUSH2 0x180A JUMP JUMPDEST DUP1 PUSH1 0x1F ADD PUSH1 0x20 DUP1 SWAP2 DIV MUL PUSH1 0x20 ADD PUSH1 0x40 MLOAD SWAP1 DUP2 ADD PUSH1 0x40 MSTORE DUP1 SWAP3 SWAP2 SWAP1 DUP2 DUP2 MSTORE PUSH1 0x20 ADD DUP3 DUP1 SLOAD PUSH2 0xE79 SWAP1 PUSH2 0x180A JUMP JUMPDEST DUP1 ISZERO PUSH2 0xEC4 JUMPI DUP1 PUSH1 0x1F LT PUSH2 0xE9B JUMPI PUSH2 0x100 DUP1 DUP4 SLOAD DIV MUL DUP4 MSTORE SWAP2 PUSH1 0x20 ADD SWAP2 PUSH2 0xEC4 JUMP JUMPDEST DUP3 ADD SWAP2 SWAP1 PUSH0 MSTORE PUSH1 0x20 PUSH0 KECCAK256 SWAP1 JUMPDEST DUP2 SLOAD DUP2 MSTORE SWAP1 PUSH1 0x1 ADD SWAP1 PUSH1 0x20 ADD DUP1 DUP4 GT PUSH2 0xEA7 JUMPI DUP3 SWAP1 SUB PUSH1 0x1F AND DUP3 ADD SWAP2 JUMPDEST POP POP POP POP POP SWAP1 DUP1 PUSH1 0x3 ADD SLOAD SWAP1 POP DUP5 JUMP JUMPDEST PUSH2 0xEDE CALLER DUP3 PUSH2 0xA73 JUMP JUMPDEST POP JUMP JUMPDEST PUSH1 0x1 PUSH1 0x3 PUSH0 CALLER PUSH20 0xFFFFFFFFFFFFFFFFFFFFFFFFFFFFFFFFFFFFFFFF AND PUSH20 0xFFFFFFFFFFFFFFFFFFFFFFFFFFFFFFFFFFFFFFFF AND DUP2 MSTORE PUSH1 0x20 ADD SWAP1 DUP2 MSTORE PUSH1 0x20 ADD PUSH0 KECCAK256 PUSH0 DUP4 PUSH20 0xFFFFFFFFFFFFFFFFFFFFFFFFFFFFFFFFFFFFFFFF AND PUSH20 0xFFFFFFFFFFFFFFFFFFFFFFFFFFFFFFFFFFFFFFFF AND DUP2 MSTORE PUSH1 0x20 ADD SWAP1 DUP2 MSTORE PUSH1 0x20 ADD PUSH0 KECCAK256 PUSH0 PUSH2 0x100 EXP DUP2 SLOAD DUP2 PUSH1 0xFF MUL NOT AND SWAP1 DUP4 ISZERO ISZERO MUL OR SWAP1 SSTORE POP POP JUMP JUMPDEST PUSH1 0x40 MLOAD DUP1 PUSH1 0x80 ADD PUSH1 0x40 MSTORE DUP1 PUSH0 DUP2 MSTORE PUSH1 0x20 ADD PUSH0 PUSH20 0xFFFFFFFFFFFFFFFFFFFFFFFFFFFFFFFFFFFFFFFF AND DUP2 MSTORE PUSH1 0x20 ADD PUSH1 0x60 DUP2 MSTORE PUSH1 0x20 ADD PUSH0 DUP2 MSTORE POP SWAP1 JUMP JUMPDEST PUSH0 PUSH1 0x40 MLOAD SWAP1 POP SWAP1 JUMP JUMPDEST PUSH0 DUP1 REVERT JUMPDEST PUSH0 DUP1 REVERT JUMPDEST PUSH0 PUSH20 0xFFFFFFFFFFFFFFFFFFFFFFFFFFFFFFFFFFFFFFFF DUP3 AND SWAP1 POP SWAP2 SWAP1 POP JUMP JUMPDEST PUSH0 PUSH2 0xFE9 DUP3 PUSH2 0xFC0 JUMP JUMPDEST SWAP1 POP SWAP2 SWAP1 POP JUMP JUMPDEST PUSH2 0xFF9 DUP2 PUSH2 0xFDF JUMP JUMPDEST DUP2 EQ PUSH2 0x1003 JUMPI PUSH0 DUP1 REVERT JUMPDEST POP JUMP JUMPDEST PUSH0 DUP2 CALLDATALOAD SWAP1 POP PUSH2 0x1014 DUP2 PUSH2 0xFF0 JUMP JUMPDEST SWAP3 SWAP2 POP POP JUMP JUMPDEST PUSH0 DUP1 PUSH1 0x40 DUP4 DUP6 SUB SLT ISZERO PUSH2 0x1030 JUMPI PUSH2 0x102F PUSH2 0xFB8 JUMP JUMPDEST JUMPDEST PUSH0 PUSH2 0x103D DUP6 DUP3 DUP7 ADD PUSH2 0x1006 JUMP JUMPDEST SWAP3 POP POP PUSH1 0x20 PUSH2 0x104E DUP6 DUP3 DUP7 ADD PUSH2 0x1006 JUMP JUMPDEST SWAP2 POP POP SWAP3 POP SWAP3 SWAP1 POP JUMP JUMPDEST PUSH0 DUP2 ISZERO ISZERO SWAP1 POP SWAP2 SWAP1 POP JUMP JUMPDEST PUSH2 0x106C DUP2 PUSH2 0x1058 JUMP JUMPDEST DUP3 MSTORE POP POP JUMP JUMPDEST PUSH0 PUSH1 0x20 DUP3 ADD SWAP1 POP PUSH2 0x1085 PUSH0 DUP4 ADD DUP5 PUSH2 0x1063 JUMP JUMPDEST SWAP3 SWAP2 POP POP JUMP JUMPDEST PUSH0 DUP2 SWAP1 POP SWAP2 SWAP1 POP JUMP JUMPDEST PUSH2 0x109D DUP2 PUSH2 0x108B JUMP JUMPDEST DUP2 EQ PUSH2 0x10A7 JUMPI PUSH0 DUP1 REVERT JUMPDEST POP JUMP JUMPDEST PUSH0 DUP2 CALLDATALOAD SWAP1 POP PUSH2 0x10B8 DUP2 PUSH2 0x1094 JUMP JUMPDEST SWAP3 SWAP2 POP POP JUMP JUMPDEST PUSH0 DUP1 PUSH1 0x40 DUP4 DUP6 SUB SLT ISZERO PUSH2 0x10D4 JUMPI PUSH2 0x10D3 PUSH2 0xFB8 JUMP JUMPDEST JUMPDEST PUSH0 PUSH2 0x10E1 DUP6 DUP3 DUP7 ADD PUSH2 0x1006 JUMP JUMPDEST SWAP3 POP POP PUSH1 0x20 PUSH2 0x10F2 DUP6 DUP3 DUP7 ADD PUSH2 0x10AA JUMP JUMPDEST SWAP2 POP POP SWAP3 POP SWAP3 SWAP1 POP JUMP JUMPDEST PUSH0 DUP2 MLOAD SWAP1 POP SWAP2 SWAP1 POP JUMP JUMPDEST PUSH0 DUP3 DUP3 MSTORE PUSH1 0x20 DUP3 ADD SWAP1 POP SWAP3 SWAP2 POP POP JUMP JUMPDEST PUSH0 DUP2 SWAP1 POP PUSH1 0x20 DUP3 ADD SWAP1 POP SWAP2 SWAP1 POP JUMP JUMPDEST PUSH2 0x112E DUP2 PUSH2 0x108B JUMP JUMPDEST DUP3 MSTORE POP POP JUMP JUMPDEST PUSH2 0x113D DUP2 PUSH2 0xFDF JUMP JUMPDEST DUP3 MSTORE POP POP JUMP JUMPDEST PUSH0 DUP2 MLOAD SWAP1 POP SWAP2 SWAP1 POP JUMP JUMPDEST PUSH0 DUP3 DUP3 MSTORE PUSH1 0x20 DUP3 ADD SWAP1 POP SWAP3 SWAP2 POP POP JUMP JUMPDEST DUP3 DUP2 DUP4 MCOPY PUSH0 DUP4 DUP4 ADD MSTORE POP POP POP JUMP JUMPDEST PUSH0 PUSH1 0x1F NOT PUSH1 0x1F DUP4 ADD AND SWAP1 POP SWAP2 SWAP1 POP JUMP JUMPDEST PUSH0 PUSH2 0x1185 DUP3 PUSH2 0x1143 JUMP JUMPDEST PUSH2 0x118F DUP2 DUP6 PUSH2 0x114D JUMP JUMPDEST SWAP4 POP PUSH2 0x119F DUP2 DUP6 PUSH1 0x20 DUP7 ADD PUSH2 0x115D JUMP JUMPDEST PUSH2 0x11A8 DUP2 PUSH2 0x116B JUMP JUMPDEST DUP5 ADD SWAP2 POP POP SWAP3 SWAP2 POP POP JUMP JUMPDEST PUSH0 PUSH1 0x80 DUP4 ADD PUSH0 DUP4 ADD MLOAD PUSH2 0x11C8 PUSH0 DUP7 ADD DUP3 PUSH2 0x1125 JUMP JUMPDEST POP PUSH1 0x20 DUP4 ADD MLOAD PUSH2 0x11DB PUSH1 0x20 DUP7 ADD DUP3 PUSH2 0x1134 JUMP JUMPDEST POP PUSH1 0x40 DUP4 ADD MLOAD DUP5 DUP3 SUB PUSH1 0x40 DUP7 ADD MSTORE PUSH2 0x11F3 DUP3 DUP3 PUSH2 0x117B JUMP JUMPDEST SWAP2 POP POP PUSH1 0x60 DUP4 ADD MLOAD PUSH2 0x1208 PUSH1 0x60 DUP7 ADD DUP3 PUSH2 0x1125 JUMP JUMPDEST POP DUP1 SWAP2 POP POP SWAP3 SWAP2 POP POP JUMP JUMPDEST PUSH0 PUSH2 0x121E DUP4 DUP4 PUSH2 0x11B3 JUMP JUMPDEST SWAP1 POP SWAP3 SWAP2 POP POP JUMP JUMPDEST PUSH0 PUSH1 0x20 DUP3 ADD SWAP1 POP SWAP2 SWAP1 POP JUMP JUMPDEST PUSH0 PUSH2 0x123C DUP3 PUSH2 0x10FC JUMP JUMPDEST PUSH2 0x1246 DUP2 DUP6 PUSH2 0x1106 JUMP JUMPDEST SWAP4 POP DUP4 PUSH1 0x20 DUP3 MUL DUP6 ADD PUSH2 0x1258 DUP6 PUSH2 0x1116 JUMP JUMPDEST DUP1 PUSH0 JUMPDEST DUP6 DUP2 LT ISZERO PUSH2 0x1293 JUMPI DUP5 DUP5 SUB DUP10 MSTORE DUP2 MLOAD PUSH2 0x1274 DUP6 DUP3 PUSH2 0x1213 JUMP JUMPDEST SWAP5 POP PUSH2 0x127F DUP4 PUSH2 0x1226 JUMP JUMPDEST SWAP3 POP PUSH1 0x20 DUP11 ADD SWAP10 POP POP PUSH1 0x1 DUP2 ADD SWAP1 POP PUSH2 0x125B JUMP JUMPDEST POP DUP3 SWAP8 POP DUP8 SWAP6 POP POP POP POP POP POP SWAP3 SWAP2 POP POP JUMP JUMPDEST PUSH0 PUSH1 0x20 DUP3 ADD SWAP1 POP DUP2 DUP2 SUB PUSH0 DUP4 ADD MSTORE PUSH2 0x12BD DUP2 DUP5 PUSH2 0x1232 JUMP JUMPDEST SWAP1 POP SWAP3 SWAP2 POP POP JUMP JUMPDEST PUSH0 PUSH1 0x20 DUP3 DUP5 SUB SLT ISZERO PUSH2 0x12DA JUMPI PUSH2 0x12D9 PUSH2 0xFB8 JUMP JUMPDEST JUMPDEST PUSH0 PUSH2 0x12E7 DUP5 DUP3 DUP6 ADD PUSH2 0x1006 JUMP JUMPDEST SWAP2 POP POP SWAP3 SWAP2 POP POP JUMP JUMPDEST PUSH0 PUSH1 0x20 DUP3 DUP5 SUB SLT ISZERO PUSH2 0x1305 JUMPI PUSH2 0x1304 PUSH2 0xFB8 JUMP JUMPDEST JUMPDEST PUSH0 PUSH2 0x1312 DUP5 DUP3 DUP6 ADD PUSH2 0x10AA JUMP JUMPDEST SWAP2 POP POP SWAP3 SWAP2 POP POP JUMP JUMPDEST PUSH2 0x1324 DUP2 PUSH2 0x108B JUMP JUMPDEST DUP3 MSTORE POP POP JUMP JUMPDEST PUSH0 DUP3 DUP3 MSTORE PUSH1 0x20 DUP3 ADD SWAP1 POP SWAP3 SWAP2 POP POP JUMP JUMPDEST PUSH0 PUSH2 0x1344 DUP3 PUSH2 0x1143 JUMP JUMPDEST PUSH2 0x134E DUP2 DUP6 PUSH2 0x132A JUMP JUMPDEST SWAP4 POP PUSH2 0x135E DUP2 DUP6 PUSH1 0x20 DUP7 ADD PUSH2 0x115D JUMP JUMPDEST PUSH2 0x1367 DUP2 PUSH2 0x116B JUMP JUMPDEST DUP5 ADD SWAP2 POP POP SWAP3 SWAP2 POP POP JUMP JUMPDEST PUSH2 0x137B DUP2 PUSH2 0xFDF JUMP JUMPDEST DUP3 MSTORE POP POP JUMP JUMPDEST PUSH0 PUSH1 0xA0 DUP3 ADD SWAP1 POP PUSH2 0x1394 PUSH0 DUP4 ADD DUP9 PUSH2 0x131B JUMP JUMPDEST DUP2 DUP2 SUB PUSH1 0x20 DUP4 ADD MSTORE PUSH2 0x13A6 DUP2 DUP8 PUSH2 0x133A JUMP JUMPDEST SWAP1 POP PUSH2 0x13B5 PUSH1 0x40 DUP4 ADD DUP7 PUSH2 0x1372 JUMP JUMPDEST PUSH2 0x13C2 PUSH1 0x60 DUP4 ADD DUP6 PUSH2 0x1372 JUMP JUMPDEST PUSH2 0x13CF PUSH1 0x80 DUP4 ADD DUP5 PUSH2 0x131B JUMP JUMPDEST SWAP7 SWAP6 POP POP POP POP POP POP JUMP JUMPDEST PUSH0 DUP1 REVERT JUMPDEST PUSH0 DUP1 REVERT JUMPDEST PUSH32 0x4E487B7100000000000000000000000000000000000000000000000000000000 PUSH0 MSTORE PUSH1 0x41 PUSH1 0x4 MSTORE PUSH1 0x24 PUSH0 REVERT JUMPDEST PUSH2 0x1417 DUP3 PUSH2 0x116B JUMP JUMPDEST DUP2 ADD DUP2 DUP2 LT PUSH8 0xFFFFFFFFFFFFFFFF DUP3 GT OR ISZERO PUSH2 0x1436 JUMPI PUSH2 0x1435 PUSH2 0x13E1 JUMP JUMPDEST JUMPDEST DUP1 PUSH1 0x40 MSTORE POP POP POP JUMP JUMPDEST PUSH0 PUSH2 0x1448 PUSH2 0xFAF JUMP JUMPDEST SWAP1 POP PUSH2 0x1454 DUP3 DUP3 PUSH2 0x140E JUMP JUMPDEST SWAP2 SWAP1 POP JUMP JUMPDEST PUSH0 PUSH8 0xFFFFFFFFFFFFFFFF DUP3 GT ISZERO PUSH2 0x1473 JUMPI PUSH2 0x1472 PUSH2 0x13E1 JUMP JUMPDEST JUMPDEST PUSH2 0x147C DUP3 PUSH2 0x116B JUMP JUMPDEST SWAP1 POP PUSH1 0x20 DUP2 ADD SWAP1 POP SWAP2 SWAP1 POP JUMP JUMPDEST DUP3 DUP2 DUP4 CALLDATACOPY PUSH0 DUP4 DUP4 ADD MSTORE POP POP POP JUMP JUMPDEST PUSH0 PUSH2 0x14A9 PUSH2 0x14A4 DUP5 PUSH2 0x1459 JUMP JUMPDEST PUSH2 0x143F JUMP JUMPDEST SWAP1 POP DUP3 DUP2 MSTORE PUSH1 0x20 DUP2 ADD DUP5 DUP5 DUP5 ADD GT ISZERO PUSH2 0x14C5 JUMPI PUSH2 0x14C4 PUSH2 0x13DD JUMP JUMPDEST JUMPDEST PUSH2 0x14D0 DUP5 DUP3 DUP6 PUSH2 0x1489 JUMP JUMPDEST POP SWAP4 SWAP3 POP POP POP JUMP JUMPDEST PUSH0 DUP3 PUSH1 0x1F DUP4 ADD SLT PUSH2 0x14EC JUMPI PUSH2 0x14EB PUSH2 0x13D9 JUMP JUMPDEST JUMPDEST DUP2 CALLDATALOAD PUSH2 0x14FC DUP5 DUP3 PUSH1 0x20 DUP7 ADD PUSH2 0x1497 JUMP JUMPDEST SWAP2 POP POP SWAP3 SWAP2 POP POP JUMP JUMPDEST PUSH0 DUP1 PUSH1 0x40 DUP4 DUP6 SUB SLT ISZERO PUSH2 0x151B JUMPI PUSH2 0x151A PUSH2 0xFB8 JUMP JUMPDEST JUMPDEST PUSH0 PUSH2 0x1528 DUP6 DUP3 DUP7 ADD PUSH2 0x1006 JUMP JUMPDEST SWAP3 POP POP PUSH1 0x20 DUP4 ADD CALLDATALOAD PUSH8 0xFFFFFFFFFFFFFFFF DUP2 GT ISZERO PUSH2 0x1549 JUMPI PUSH2 0x1548 PUSH2 0xFBC JUMP JUMPDEST JUMPDEST PUSH2 0x1555 DUP6 DUP3 DUP7 ADD PUSH2 0x14D8 JUMP JUMPDEST SWAP2 POP POP SWAP3 POP SWAP3 SWAP1 POP JUMP JUMPDEST PUSH0 PUSH1 0x20 DUP3 ADD SWAP1 POP PUSH2 0x1572 PUSH0 DUP4 ADD DUP5 PUSH2 0x1372 JUMP JUMPDEST SWAP3 SWAP2 POP POP JUMP JUMPDEST PUSH0 PUSH1 0x20 DUP3 ADD SWAP1 POP PUSH2 0x158B PUSH0 DUP4 ADD DUP5 PUSH2 0x131B JUMP JUMPDEST SWAP3 SWAP2 POP POP JUMP JUMPDEST PUSH0 DUP1 PUSH0 PUSH1 0x60 DUP5 DUP7 SUB SLT ISZERO PUSH2 0x15A8 JUMPI PUSH2 0x15A7 PUSH2 0xFB8 JUMP JUMPDEST JUMPDEST PUSH0 PUSH2 0x15B5 DUP7 DUP3 DUP8 ADD PUSH2 0x1006 JUMP JUMPDEST SWAP4 POP POP PUSH1 0x20 PUSH2 0x15C6 DUP7 DUP3 DUP8 ADD PUSH2 0x1006 JUMP JUMPDEST SWAP3 POP POP PUSH1 0x40 DUP5 ADD CALLDATALOAD PUSH8 0xFFFFFFFFFFFFFFFF DUP2 GT ISZERO PUSH2 0x15E7 JUMPI PUSH2 0x15E6 PUSH2 0xFBC JUMP JUMPDEST JUMPDEST PUSH2 0x15F3 DUP7 DUP3 DUP8 ADD PUSH2 0x14D8 JUMP JUMPDEST SWAP2 POP POP SWAP3 POP SWAP3 POP SWAP3 JUMP JUMPDEST PUSH0 DUP1 PUSH1 0x40 DUP4 DUP6 SUB SLT ISZERO PUSH2 0x1613 JUMPI PUSH2 0x1612 PUSH2 0xFB8 JUMP JUMPDEST JUMPDEST PUSH0 DUP4 ADD CALLDATALOAD PUSH8 0xFFFFFFFFFFFFFFFF DUP2 GT ISZERO PUSH2 0x1630 JUMPI PUSH2 0x162F PUSH2 0xFBC JUMP JUMPDEST JUMPDEST PUSH2 0x163C DUP6 DUP3 DUP7 ADD PUSH2 0x14D8 JUMP JUMPDEST SWAP3 POP POP PUSH1 0x20 PUSH2 0x164D DUP6 DUP3 DUP7 ADD PUSH2 0x1006 JUMP JUMPDEST SWAP2 POP POP SWAP3 POP SWAP3 SWAP1 POP JUMP JUMPDEST PUSH0 PUSH1 0x80 DUP3 ADD SWAP1 POP PUSH2 0x166A PUSH0 DUP4 ADD DUP8 PUSH2 0x131B JUMP JUMPDEST PUSH2 0x1677 PUSH1 0x20 DUP4 ADD DUP7 PUSH2 0x1372 JUMP JUMPDEST DUP2 DUP2 SUB PUSH1 0x40 DUP4 ADD MSTORE PUSH2 0x1689 DUP2 DUP6 PUSH2 0x133A JUMP JUMPDEST SWAP1 POP PUSH2 0x1698 PUSH1 0x60 DUP4 ADD DUP5 PUSH2 0x131B JUMP JUMPDEST SWAP6 SWAP5 POP POP POP POP POP JUMP JUMPDEST PUSH0 PUSH1 0x20 DUP3 DUP5 SUB SLT ISZERO PUSH2 0x16B6 JUMPI PUSH2 0x16B5 PUSH2 0xFB8 JUMP JUMPDEST JUMPDEST PUSH0 DUP3 ADD CALLDATALOAD PUSH8 0xFFFFFFFFFFFFFFFF DUP2 GT ISZERO PUSH2 0x16D3 JUMPI PUSH2 0x16D2 PUSH2 0xFBC JUMP JUMPDEST JUMPDEST PUSH2 0x16DF DUP5 DUP3 DUP6 ADD PUSH2 0x14D8 JUMP JUMPDEST SWAP2 POP POP SWAP3 SWAP2 POP POP JUMP JUMPDEST PUSH32 0x436F756E74206973206E6F7420646566696E6564000000000000000000000000 PUSH0 DUP3 ADD MSTORE POP JUMP JUMPDEST PUSH0 PUSH2 0x171C PUSH1 0x14 DUP4 PUSH2 0x132A JUMP JUMPDEST SWAP2 POP PUSH2 0x1727 DUP3 PUSH2 0x16E8 JUMP JUMPDEST PUSH1 0x20 DUP3 ADD SWAP1 POP SWAP2 SWAP1 POP JUMP JUMPDEST PUSH0 PUSH1 0x20 DUP3 ADD SWAP1 POP DUP2 DUP2 SUB PUSH0 DUP4 ADD MSTORE PUSH2 0x1749 DUP2 PUSH2 0x1710 JUMP JUMPDEST SWAP1 POP SWAP2 SWAP1 POP JUMP JUMPDEST PUSH32 0x4E487B7100000000000000000000000000000000000000000000000000000000 PUSH0 MSTORE PUSH1 0x11 PUSH1 0x4 MSTORE PUSH1 0x24 PUSH0 REVERT JUMPDEST PUSH0 PUSH2 0x1787 DUP3 PUSH2 0x108B JUMP JUMPDEST SWAP2 POP PUSH2 0x1792 DUP4 PUSH2 0x108B JUMP JUMPDEST SWAP3 POP DUP3 DUP3 SUB SWAP1 POP DUP2 DUP2 GT ISZERO PUSH2 0x17AA JUMPI PUSH2 0x17A9 PUSH2 0x1750 JUMP JUMPDEST JUMPDEST SWAP3 SWAP2 POP POP JUMP JUMPDEST PUSH32 0x4E487B7100000000000000000000000000000000000000000000000000000000 PUSH0 MSTORE PUSH1 0x32 PUSH1 0x4 MSTORE PUSH1 0x24 PUSH0 REVERT JUMPDEST PUSH32 0x4E487B7100000000000000000000000000000000000000000000000000000000 PUSH0 MSTORE PUSH1 0x22 PUSH1 0x4 MSTORE PUSH1 0x24 PUSH0 REVERT JUMPDEST PUSH0 PUSH1 0x2 DUP3 DIV SWAP1 POP PUSH1 0x1 DUP3 AND DUP1 PUSH2 0x1821 JUMPI PUSH1 0x7F DUP3 AND SWAP2 POP JUMPDEST PUSH1 0x20 DUP3 LT DUP2 SUB PUSH2 0x1834 JUMPI PUSH2 0x1833 PUSH2 0x17DD JUMP JUMPDEST JUMPDEST POP SWAP2 SWAP1 POP JUMP JUMPDEST PUSH0 PUSH2 0x1844 DUP3 PUSH2 0x108B JUMP JUMPDEST SWAP2 POP PUSH2 0x184F DUP4 PUSH2 0x108B JUMP JUMPDEST SWAP3 POP DUP3 DUP3 ADD SWAP1 POP DUP1 DUP3 GT ISZERO PUSH2 0x1867 JUMPI PUSH2 0x1866 PUSH2 0x1750 JUMP JUMPDEST JUMPDEST SWAP3 SWAP2 POP POP JUMP JUMPDEST PUSH32 0x436F756E74206964206E6F742070726F70657200000000000000000000000000 PUSH0 DUP3 ADD MSTORE POP JUMP JUMPDEST PUSH0 PUSH2 0x18A1 PUSH1 0x13 DUP4 PUSH2 0x132A JUMP JUMPDEST SWAP2 POP PUSH2 0x18AC DUP3 PUSH2 0x186D JUMP JUMPDEST PUSH1 0x20 DUP3 ADD SWAP1 POP SWAP2 SWAP1 POP JUMP JUMPDEST PUSH0 PUSH1 0x20 DUP3 ADD SWAP1 POP DUP2 DUP2 SUB PUSH0 DUP4 ADD MSTORE PUSH2 0x18CE DUP2 PUSH2 0x1895 JUMP JUMPDEST SWAP1 POP SWAP2 SWAP1 POP JUMP JUMPDEST PUSH0 PUSH2 0x18DF DUP3 PUSH2 0x108B JUMP JUMPDEST SWAP2 POP PUSH32 0xFFFFFFFFFFFFFFFFFFFFFFFFFFFFFFFFFFFFFFFFFFFFFFFFFFFFFFFFFFFFFFFF DUP3 SUB PUSH2 0x1911 JUMPI PUSH2 0x1910 PUSH2 0x1750 JUMP JUMPDEST JUMPDEST PUSH1 0x1 DUP3 ADD SWAP1 POP SWAP2 SWAP1 POP JUMP JUMPDEST PUSH0 DUP2 SWAP1 POP DUP2 PUSH0 MSTORE PUSH1 0x20 PUSH0 KECCAK256 SWAP1 POP SWAP2 SWAP1 POP JUMP JUMPDEST PUSH0 PUSH1 0x20 PUSH1 0x1F DUP4 ADD DIV SWAP1 POP SWAP2 SWAP1 POP JUMP JUMPDEST PUSH0 DUP3 DUP3 SHL SWAP1 POP SWAP3 SWAP2 POP POP JUMP JUMPDEST PUSH0 PUSH1 0x8 DUP4 MUL PUSH2 0x1978 PUSH32 0xFFFFFFFFFFFFFFFFFFFFFFFFFFFFFFFFFFFFFFFFFFFFFFFFFFFFFFFFFFFFFFFF DUP3 PUSH2 0x193D JUMP JUMPDEST PUSH2 0x1982 DUP7 DUP4 PUSH2 0x193D JUMP JUMPDEST SWAP6 POP DUP1 NOT DUP5 AND SWAP4 POP DUP1 DUP7 AND DUP5 OR SWAP3 POP POP POP SWAP4 SWAP3 POP POP POP JUMP JUMPDEST PUSH0 DUP2 SWAP1 POP SWAP2 SWAP1 POP JUMP JUMPDEST PUSH0 PUSH2 0x19BD PUSH2 0x19B8 PUSH2 0x19B3 DUP5 PUSH2 0x108B JUMP JUMPDEST PUSH2 0x199A JUMP JUMPDEST PUSH2 0x108B JUMP JUMPDEST SWAP1 POP SWAP2 SWAP1 POP JUMP JUMPDEST PUSH0 DUP2 SWAP1 POP SWAP2 SWAP1 POP JUMP JUMPDEST PUSH2 0x19D6 DUP4 PUSH2 0x19A3 JUMP JUMPDEST PUSH2 0x19EA PUSH2 0x19E2 DUP3 PUSH2 0x19C4 JUMP JUMPDEST DUP5 DUP5 SLOAD PUSH2 0x1949 JUMP JUMPDEST DUP3 SSTORE POP POP POP POP JUMP JUMPDEST PUSH0 SWAP1 JUMP JUMPDEST PUSH2 0x19FE PUSH2 0x19F2 JUMP JUMPDEST PUSH2 0x1A09 DUP2 DUP5 DUP5 PUSH2 0x19CD JUMP JUMPDEST POP POP POP JUMP JUMPDEST JUMPDEST DUP2 DUP2 LT ISZERO PUSH2 0x1A2C JUMPI PUSH2 0x1A21 PUSH0 DUP3 PUSH2 0x19F6 JUMP JUMPDEST PUSH1 0x1 DUP2 ADD SWAP1 POP PUSH2 0x1A0F JUMP JUMPDEST POP POP JUMP JUMPDEST PUSH1 0x1F DUP3 GT ISZERO PUSH2 0x1A71 JUMPI PUSH2 0x1A42 DUP2 PUSH2 0x191C JUMP JUMPDEST PUSH2 0x1A4B DUP5 PUSH2 0x192E JUMP JUMPDEST DUP2 ADD PUSH1 0x20 DUP6 LT ISZERO PUSH2 0x1A5A JUMPI DUP2 SWAP1 POP JUMPDEST PUSH2 0x1A6E PUSH2 0x1A66 DUP6 PUSH2 0x192E JUMP JUMPDEST DUP4 ADD DUP3 PUSH2 0x1A0E JUMP JUMPDEST POP POP JUMPDEST POP POP POP JUMP JUMPDEST PUSH0 DUP3 DUP3 SHR SWAP1 POP SWAP3 SWAP2 POP POP JUMP JUMPDEST PUSH0 PUSH2 0x1A91 PUSH0 NOT DUP5 PUSH1 0x8 MUL PUSH2 0x1A76 JUMP JUMPDEST NOT DUP1 DUP4 AND SWAP2 POP POP SWAP3 SWAP2 POP POP JUMP JUMPDEST PUSH0 PUSH2 0x1AA9 DUP4 DUP4 PUSH2 0x1A82 JUMP JUMPDEST SWAP2 POP DUP3 PUSH1 0x2 MUL DUP3 OR SWAP1 POP SWAP3 SWAP2 POP POP JUMP JUMPDEST PUSH2 0x1AC2 DUP3 PUSH2 0x1143 JUMP JUMPDEST PUSH8 0xFFFFFFFFFFFFFFFF DUP2 GT ISZERO PUSH2 0x1ADB JUMPI PUSH2 0x1ADA PUSH2 0x13E1 JUMP JUMPDEST JUMPDEST PUSH2 0x1AE5 DUP3 SLOAD PUSH2 0x180A JUMP JUMPDEST PUSH2 0x1AF0 DUP3 DUP3 DUP6 PUSH2 0x1A30 JUMP JUMPDEST PUSH0 PUSH1 0x20 SWAP1 POP PUSH1 0x1F DUP4 GT PUSH1 0x1 DUP2 EQ PUSH2 0x1B21 JUMPI PUSH0 DUP5 ISZERO PUSH2 0x1B0F JUMPI DUP3 DUP8 ADD MLOAD SWAP1 POP JUMPDEST PUSH2 0x1B19 DUP6 DUP3 PUSH2 0x1A9E JUMP JUMPDEST DUP7 SSTORE POP PUSH2 0x1B80 JUMP JUMPDEST PUSH1 0x1F NOT DUP5 AND PUSH2 0x1B2F DUP7 PUSH2 0x191C JUMP JUMPDEST PUSH0 JUMPDEST DUP3 DUP2 LT ISZERO PUSH2 0x1B56 JUMPI DUP5 DUP10 ADD MLOAD DUP3 SSTORE PUSH1 0x1 DUP3 ADD SWAP2 POP PUSH1 0x20 DUP6 ADD SWAP5 POP PUSH1 0x20 DUP2 ADD SWAP1 POP PUSH2 0x1B31 JUMP JUMPDEST DUP7 DUP4 LT ISZERO PUSH2 0x1B73 JUMPI DUP5 DUP10 ADD MLOAD PUSH2 0x1B6F PUSH1 0x1F DUP10 AND DUP3 PUSH2 0x1A82 JUMP JUMPDEST DUP4 SSTORE POP JUMPDEST PUSH1 0x1 PUSH1 0x2 DUP9 MUL ADD DUP9 SSTORE POP POP POP JUMPDEST POP POP POP POP POP POP JUMP INVALID LOG2 PUSH5 0x6970667358 0x22 SLT KECCAK256 GAS 0xC1 DUP14 MUL 0x4D 0xE5 SWAP8 0xB0 PUSH18 0x21F00BD7F86F719568BFE160F0B8C1DEAA1A 0xE8 0xEC 0xA6 PUSH13 0xB364736F6C634300081A003300 "
				},
				"gasEstimates": {
					"creation": {
						"codeDepositCost": "1420400",
						"executionCost": "1477",
						"totalCost": "1421877"
					},
					"external": {
						"_sendMessage(address,address,string)": "infinite",
						"_tweet(address,string)": "infinite",
						"allow(address)": "24978",
						"conversation(address,uint256)": "infinite",
						"disallow(address)": "24978",
						"follow(address)": "49180",
						"following(address,uint256)": "infinite",
						"getLatestTweets(uint256)": "infinite",
						"getLetestTOUser(address,uint256)": "infinite",
						"operators(address,address)": "infinite",
						"sendMessage(address,address,string)": "infinite",
						"sendMessage(string,address)": "infinite",
						"tweet(address,string)": "infinite",
						"tweet(string)": "infinite",
						"tweets(uint256)": "infinite",
						"tweetsOf(address,uint256)": "infinite"
					}
				},
				"methodIdentifiers": {
					"_sendMessage(address,address,string)": "cfe3d77a",
					"_tweet(address,string)": "78bae934",
					"allow(address)": "ff9913e8",
					"conversation(address,uint256)": "5dfcaebf",
					"disallow(address)": "a9ed9cb8",
					"follow(address)": "4dbf27cc",
					"following(address,uint256)": "9139cda5",
					"getLatestTweets(uint256)": "4dc0a687",
					"getLetestTOUser(address,uint256)": "365d1cf7",
					"operators(address,address)": "2637588e",
					"sendMessage(address,address,string)": "b88e318d",
					"sendMessage(string,address)": "c48d6d5e",
					"tweet(address,string)": "d21d1596",
					"tweet(string)": "fb46d4c5",
					"tweets(uint256)": "e8d857b0",
					"tweetsOf(address,uint256)": "af22bf94"
				}
			},
			"storageLayout": {
				"storage": [
					{
						"astId": 26,
						"contract": "Twitter.sol:Twitter",
						"label": "tweets",
						"offset": 0,
						"slot": "0",
						"type": "t_mapping(t_uint256,t_struct(Tweet)10_storage)"
					},
					{
						"astId": 31,
						"contract": "Twitter.sol:Twitter",
						"label": "tweetsOf",
						"offset": 0,
						"slot": "1",
						"type": "t_mapping(t_address,t_array(t_uint256)dyn_storage)"
					},
					{
						"astId": 37,
						"contract": "Twitter.sol:Twitter",
						"label": "conversation",
						"offset": 0,
						"slot": "2",
						"type": "t_mapping(t_address,t_array(t_struct(Message)21_storage)dyn_storage)"
					},
					{
						"astId": 43,
						"contract": "Twitter.sol:Twitter",
						"label": "operators",
						"offset": 0,
						"slot": "3",
						"type": "t_mapping(t_address,t_mapping(t_address,t_bool))"
					},
					{
						"astId": 48,
						"contract": "Twitter.sol:Twitter",
						"label": "following",
						"offset": 0,
						"slot": "4",
						"type": "t_mapping(t_address,t_array(t_address)dyn_storage)"
					},
					{
						"astId": 50,
						"contract": "Twitter.sol:Twitter",
						"label": "nextId",
						"offset": 0,
						"slot": "5",
						"type": "t_uint256"
					},
					{
						"astId": 52,
						"contract": "Twitter.sol:Twitter",
						"label": "nextMessageId",
						"offset": 0,
						"slot": "6",
						"type": "t_uint256"
					}
				],
				"types": {
					"t_address": {
						"encoding": "inplace",
						"label": "address",
						"numberOfBytes": "20"
					},
					"t_array(t_address)dyn_storage": {
						"base": "t_address",
						"encoding": "dynamic_array",
						"label": "address[]",
						"numberOfBytes": "32"
					},
					"t_array(t_struct(Message)21_storage)dyn_storage": {
						"base": "t_struct(Message)21_storage",
						"encoding": "dynamic_array",
						"label": "struct Twitter.Message[]",
						"numberOfBytes": "32"
					},
					"t_array(t_uint256)dyn_storage": {
						"base": "t_uint256",
						"encoding": "dynamic_array",
						"label": "uint256[]",
						"numberOfBytes": "32"
					},
					"t_bool": {
						"encoding": "inplace",
						"label": "bool",
						"numberOfBytes": "1"
					},
					"t_mapping(t_address,t_array(t_address)dyn_storage)": {
						"encoding": "mapping",
						"key": "t_address",
						"label": "mapping(address => address[])",
						"numberOfBytes": "32",
						"value": "t_array(t_address)dyn_storage"
					},
					"t_mapping(t_address,t_array(t_struct(Message)21_storage)dyn_storage)": {
						"encoding": "mapping",
						"key": "t_address",
						"label": "mapping(address => struct Twitter.Message[])",
						"numberOfBytes": "32",
						"value": "t_array(t_struct(Message)21_storage)dyn_storage"
					},
					"t_mapping(t_address,t_array(t_uint256)dyn_storage)": {
						"encoding": "mapping",
						"key": "t_address",
						"label": "mapping(address => uint256[])",
						"numberOfBytes": "32",
						"value": "t_array(t_uint256)dyn_storage"
					},
					"t_mapping(t_address,t_bool)": {
						"encoding": "mapping",
						"key": "t_address",
						"label": "mapping(address => bool)",
						"numberOfBytes": "32",
						"value": "t_bool"
					},
					"t_mapping(t_address,t_mapping(t_address,t_bool))": {
						"encoding": "mapping",
						"key": "t_address",
						"label": "mapping(address => mapping(address => bool))",
						"numberOfBytes": "32",
						"value": "t_mapping(t_address,t_bool)"
					},
					"t_mapping(t_uint256,t_struct(Tweet)10_storage)": {
						"encoding": "mapping",
						"key": "t_uint256",
						"label": "mapping(uint256 => struct Twitter.Tweet)",
						"numberOfBytes": "32",
						"value": "t_struct(Tweet)10_storage"
					},
					"t_string_storage": {
						"encoding": "bytes",
						"label": "string",
						"numberOfBytes": "32"
					},
					"t_struct(Message)21_storage": {
						"encoding": "inplace",
						"label": "struct Twitter.Message",
						"members": [
							{
								"astId": 12,
								"contract": "Twitter.sol:Twitter",
								"label": "id",
								"offset": 0,
								"slot": "0",
								"type": "t_uint256"
							},
							{
								"astId": 14,
								"contract": "Twitter.sol:Twitter",
								"label": "content",
								"offset": 0,
								"slot": "1",
								"type": "t_string_storage"
							},
							{
								"astId": 16,
								"contract": "Twitter.sol:Twitter",
								"label": "from",
								"offset": 0,
								"slot": "2",
								"type": "t_address"
							},
							{
								"astId": 18,
								"contract": "Twitter.sol:Twitter",
								"label": "to",
								"offset": 0,
								"slot": "3",
								"type": "t_address"
							},
							{
								"astId": 20,
								"contract": "Twitter.sol:Twitter",
								"label": "createAt",
								"offset": 0,
								"slot": "4",
								"type": "t_uint256"
							}
						],
						"numberOfBytes": "160"
					},
					"t_struct(Tweet)10_storage": {
						"encoding": "inplace",
						"label": "struct Twitter.Tweet",
						"members": [
							{
								"astId": 3,
								"contract": "Twitter.sol:Twitter",
								"label": "id",
								"offset": 0,
								"slot": "0",
								"type": "t_uint256"
							},
							{
								"astId": 5,
								"contract": "Twitter.sol:Twitter",
								"label": "author",
								"offset": 0,
								"slot": "1",
								"type": "t_address"
							},
							{
								"astId": 7,
								"contract": "Twitter.sol:Twitter",
								"label": "content",
								"offset": 0,
								"slot": "2",
								"type": "t_string_storage"
							},
							{
								"astId": 9,
								"contract": "Twitter.sol:Twitter",
								"label": "createAt",
								"offset": 0,
								"slot": "3",
								"type": "t_uint256"
							}
						],
						"numberOfBytes": "128"
					},
					"t_uint256": {
						"encoding": "inplace",
						"label": "uint256",
						"numberOfBytes": "32"
					}
				}
			},
			"userdoc": {
				"kind": "user",
				"methods": {},
				"version": 1
			}
		}
	}
}